:020000040800F2
:1000000060520020FD01000825240008FD1E0008A4
:10001000C7220008A30400089F4C0008000000004D
:100020000000000000000000000000006501000862
:10003000E519000800000000A9010008C9620008D5
:10004000170200081702000817020008170200082C
:10005000170200081702000817020008170200081C
:10006000170200081702000817020008170200080C
:1000700017020008170200081702000817020008FC
:1000800017020008170200081702000817020008EC
:10009000D10500081702000817020008170200081F
:1000A00017020008170200081702000817020008CC
:1000B000592B000817020008170200081702000851
:1000C00017020008170200081702000817020008AC
:1000D000170200081702000817020008170200089C
:1000E00017020008170200081702000800000000AD
:1000F0000000000000000000000000000000000000
:1001000000000000000000001702000817020008AD
:10011000A12E0008170200081702000817020008A5
:10012000170200081702000817020008170200084B
:10013000170200081702000817020008170200083B
:1001400017020008290700081702000841250008C7
:10015000DFF80CD000F076F800480047E1540008C2
:1001600060520020224B19680868B0E8F00F80F355
:100170000988BFF36F8F4FF0000080F311884EF0B5
:100180000D0E70470000000006480068006880F30C
:10019000088862B661B6BFF34F8FBFF36F8F00DF81
:1001A00000BF00BF08ED00E0EFF30980BFF36F8FE1
:1001B0000F4B1A6820E9F00F106008B54FF0BF0030
:1001C00080F31188BFF34F8FBFF36F8F06F032F8C3
:1001D0004FF0000080F31188BDE8084019680868F6
:1001E000B0E8F00F80F30988BFF36F8F704700BF4E
:1001F000C0010020EFF305807047000006488047EB
:1002000006480047FEE7FEE7FEE7FEE7FEE7FEE7FB
:10021000FEE7FEE7FEE7FEE7ED2A000851010008D1
:1002200040EA01039B0703D009E008C9121F08C078
:10023000042AFAD203E011F8013B00F8013B521EF8
:10024000F9D27047064C074D06E0E06840F0010324
:1002500094E8070098471034AC42F6D3FFF77CFFD0
:10026000486900086869000870B58C1810F8015BCF
:1002700015F0070301D110F8013B2A1106D110F83F
:10028000012B03E010F8016B01F8016B5B1EF9D143
:100290002B0705D40023521E0DD401F8013BFAE7C9
:1002A00010F8013BCB1A921C03E013F8015B01F834
:1002B000015B521EF9D5A142D8D3002070BD21B1F7
:1002C000826842F00102826003E0826822F001024B
:1002D0008260704721B1826842F48072826003E0DC
:1002E000826822F4807282607047000010B5044674
:1002F0001248844208D10121401502F075F900210D
:10030000601502F071F917E00D48844208D101210F
:10031000001502F069F90021201502F065F90BE0E3
:100320000848844208D10121C80302F05DF9002188
:100330004FF4004002F058F910BD000000240140C5
:1003400000280140003C0140014600208A6802F07C
:1003500004020AB1012000E000207047014600209D
:100360008A6802F008020AB1012000E0002070470C
:1003700030B502460020002350680F4C20400D7914
:100380000C6844EA05242043506090680B4C2040E0
:10039000D1E902542C434D7944EA4504204390604E
:1003A000D06A20F470000C7C641EE4B2234340EA5F
:1003B0000350D06230BD0000FFFEF0FFFDF7F1FFFB
:1003C000F0B504460D4600200021092D11DDE0683E
:1003D000A5F10A0606EB4607072606FA07F1884349
:1003E000A5F10A0606EB460603FA06F10843E060AB
:1003F0000CE0206905EB4507072606FA07F188435C
:1004000005EB450603FA06F108432061072A0FDAD7
:10041000606B561E06EB86071F2606FA07F1884317
:10042000561E06EB860605FA06F10843606322E0D5
:100430000D2A0FDA206BD61F06EB86071F2606FA59
:1004400007F18843D61F06EB860605FA06F1084336
:10045000206310E0E06AA2F10D0606EB86071F2676
:1004600006FA07F18843A2F10D0606EB860605FAA7
:1004700006F10843E062F0BD816841F00801816047
:10048000704721B1826842F4A002826003E0826872
:1004900022F4A00282607047816841F0040181600B
:1004A000704700BFFEE7000030B589B00446012167
:1004B000084602F089F80121202002F085F8012089
:1004C000ADF8200028208DF8230008A93D4801F050
:1004D000B5FB0220ADF8200018208DF82300032082
:1004E0008DF8220008A9374801F0A8FB0121C803B4
:1004F00001F030FC0121480602F046F8324800F0D5
:1005000085F9E07938B9002248F20E012E4800F052
:10051000ADFA09B030BD05A800F0B3FB00208DF89E
:100520001A008DF81B008DF81C008DF81D008DF849
:100530001E0001208DF81F0000208DF81600207984
:100540008DF8170060798DF81800A0798DF81900E2
:100550009DF81700401C9DF81810491C01449DF897
:100560001900401C0D1819492068B1FBF0F0B0FBD0
:10057000F5F080B2ADF8140005A9134800F07FFA39
:1005800000208DF80E008DF80F0001208DF810006E
:100590000020ADF80400ADF80600ADF80800ADF895
:1005A0000A00ADF80C0001208DF8110001A800F040
:1005B00049F9012248F20E01034800F057FA00BF42
:1005C000A7E700000014014000640040005125022C
:1005D00000B585B004210C4800F0B8F918B1042129
:1005E000094800F0BFF80821074800F0AFF918B13A
:1005F0000821054800F0B6F86A460021024800F0DC
:10060000C8FA05B000BD00000064004030B589B0F4
:1006100004460121082001F0D7FF4FF48050ADF8C7
:10062000200028208DF8230008A93C4801F006FB93
:100630004FF40050ADF8200018208DF8230003205F
:100640008DF8220008A9354801F0F8FA0121880642
:1006500001F09AFF324800F0D9F8E07938B9002269
:1006600048F270012E4800F001FA09B030BD05A82B
:1006700000F007FB00208DF81A008DF81B008DF8A4
:100680001C008DF81D008DF81E0001208DF81F0044
:1006900000208DF8160020798DF8170060798DF80C
:1006A0001800A0798DF819009DF81700401C9DF8DE
:1006B0001810491C01449DF81900401C0D181949D7
:1006C0002068B1FBF0F0B0FBF5F080B2ADF814009B
:1006D00005A9134800F0D3F90E208DF80E00002074
:1006E0008DF80F0001208DF810000020ADF80400F7
:1006F000ADF80600ADF80800ADF80A000120ADF82D
:100700000C008DF8110001A800F09CF8012248F2BD
:100710007001034800F0AAF900BFA6E7000C0140F1
:10072000006800400051250200B585B020210C482A
:1007300000F00CF918B12021094800F013F840210D
:10074000074800F003F918B14021054800F00AF805
:100750006A460121024800F01CFA05B000BD000005
:1007600000680040B1F5007F3AD00FDC202928D086
:1007700006DC01291CD004291DD0082940D11DE028
:10078000402921D0B1F5807F3AD126E0B1F5004F64
:1007900031D006DCB1F5806F25D0B1F5006F2FD1D7
:1007A00024E0B1F5803F12D0B1F5003F28D111E02F
:1007B000154A826025E00822C26022E01022C26051
:1007C0001FE0082202611CE01022026119E00822E9
:1007D000426016E01022426013E00422426010E002
:1007E000042242600DE0042242600AE0002282619D
:1007F0000422426005E0002282610422426000E09F
:1008000000BF00BF704700000101010010B50446A1
:100810000B48844209D10121480601F0C5FE0021A0
:100820004FF0007001F0C0FE08E00121880601F0E1
:10083000BBFE00214FF0806001F0B6FE10BD00004D
:100840000064004010B50021837A012202FA03F10E
:100850003D4A126842F001023B4B1A603A4A1C3290
:1008600012688A43384B1C331A60027BCAB9364A75
:100870000C3212688A43344B0C331A604288C388A6
:1008800042EA0343304A4032847A42F834300288E4
:10089000838842EA03432C4A4032847A02EBC40242
:1008A0005360027B012A19D1274A0C3212680A438D
:1008B000254B0C331A604288038842EA0343224ADC
:1008C0004032847A42F83430C288838842EA034353
:1008D0001D4A4032847A02EBC4025360C27A3AB9AC
:1008E000194A121D12688A43174B1B1D1A6006E035
:1008F000154A121D12680A43134B1B1D1A60028908
:1009000032B9114A143212688A430F4B14331A60F9
:100910000289012A06D10C4A143212680A430A4B92
:1009200014331A60427B012A06D1074A1C3212682E
:100930000A43054B1C331A60034A126822F0010275
:10094000014B1A6010BD00000066004070B50446FF
:100950000D46002660692840002871D0B5F5807FDB
:100960005CD010DC082D35D006DC012D20D0022D06
:1009700024D0042D72D127E0102D31D0202D35D078
:10098000402D6BD138E0B5F5004F60D009DCB5F5EE
:10099000007F49D0B5F5806F4CD0B5F5006F5DD1C3
:1009A0004FE0B5F5803F2DD0B5F5003F56D12FE093
:1009B000A0682D4900F09EF9064651E0E068032149
:1009C00000F098F906464BE0E068082100F092F943
:1009D000064645E0E068102100F08CF906463FE04D
:1009E0002069032100F086F9064639E020690821D4
:1009F00000F080F9064633E02069102100F07AF912
:100A000006462DE06068082100F074F9064627E0EC
:100A10006068102100F06EF9064621E0A06901210E
:100A200000F068F906461BE0A069022100F062F9B7
:100A3000064615E0A069042100F05CF906460FE0C7
:100A40000FE0A069702100F055F9064608E06068E3
:100A5000042100F04FF9064602E0FFE7002600BF40
:100A600000E00026304670BD010101001AB1436963
:100A70000B43436102E043698B434361704730B5E8
:100A8000024600200023146824F002041460146855
:100A900044F00104146000E05B1C546804F001049D
:100AA0001CB94FF6FF74A342F6D1546804F0010458
:100AB0000CB900206CE08C79012C04D1146844F04E
:100AC0008004146003E0146824F080041460CC797E
:100AD000012C04D1146844F04004146003E014684D
:100AE00024F0400414600C7A012C04D1146844F002
:100AF0002004146003E0146824F0200414604C7A8D
:100B0000012C04D1146844F01004146003E014684C
:100B100024F0100414608C7A012C04D1146844F081
:100B20000804146003E0146824F008041460CC7A0C
:100B3000012C04D1146844F00404146003E0146828
:100B400024F0040414608C78A407CD7844EA05648A
:100B50000D7944EA05444D7944EA05540D886D1E2B
:100B60002C43D461146824F001041460002300E0D5
:100B70005B1C546804F001041CB14FF6FF74A342DF
:100B8000F6D1546804F001040CB1002000E001200B
:100B900030BD10B500F5D87303EB01131B6803F0EB
:100BA00004031372137A53B900F5D87303EB0113DE
:100BB0001B6840F2FF7404EA5353136009E000F528
:100BC000D87303EB01131B686FF0604404EAD3038E
:100BD000536000F5D87303EB01131B6803F00203A5
:100BE000537200F5D87303EB01135B6803F00F0336
:100BF000937200F5D87303EB01135B681B0AD3747F
:100C000000F5D87303EB01139B68D37200F5D8731A
:100C100003EB01139B681C0A147300F5D87303EBF4
:100C200001139B681C0C547300F5D87303EB01137C
:100C30009B681B0E937300F5D87303EB0113DB68FD
:100C4000D37300F5D87303EB0113DB681C0A14742B
:100C500000F5D87303EB0113DB681C0C547400F52A
:100C6000D87303EB0113DB681B0E937421B9C368BF
:100C700043F02003C36003E0036943F020030361F2
:100C800010BD00218171C171017241728172C17206
:100C90008170C17003210171022141710121018024
:100CA000704701460A68C868805C70472DE9F041CA
:100CB00004460E462768002505E0204600F084FE25
:100CC0007055681CC5B2102DF7D32760BDE8F081C0
:100CD0002DE9F04104460E462768002505E0204630
:100CE00000F072FE7055681CC5B2102DF7D3276056
:100CF000BDE8F0810246002002EA01030BB10120A9
:100D000000E00020704770B506460C4604F08000F5
:100D1000802808D104F07F0000EB800106F58E707A
:100D200000EBC10507E004F07F0000EB800106F551
:100D30005D7000EBC10504F07F00287004F08000B6
:100D4000C00968702946304603F0E9FB002070BDF9
:100D500070B506460C4604F08000802808D104F0E7
:100D60007F0000EB800106F58E7000EBC10505E009
:100D700004EB840106F55D7000EBC1050020A8704E
:100D800004F07F002870C4F3C01068702946304614
:100D900003F09DFB002070BD2DE9F04106460D4695
:100DA00090461F4605F08000802808D105F07F009E
:100DB00000EB800106F58E7000EBC10407E005F042
:100DC0007F0000EB800106F55D7000EBC10405F0CB
:100DD0007F00207005F08000C0096070C4F80880B2
:100DE000E770607808B12078E080022F01D1002000
:100DF00020712146304603F01EFB0020BDE8F08143
:100E00002DE9F04105460E461746984606F07F004C
:100E100000EB800105F55D7000EBC104E760C4F8EC
:100E200014800020A061607006F07F002070E878D8
:100E3000012800D12761207820B92146284603F0F7
:100E40001EFA03E02146284603F0CAFB0020BDE855
:100E5000F08108B500220092009A61F30A12009214
:100E600002691268009B1A4303691A6008BD70B5D5
:100E700006460C4604F08000802808D104F07F006C
:100E800000EB800106F58E7000EBC10505E004EB78
:100E9000840106F55D7000EBC1050120A87004F027
:100EA0007F002870C4F3C01068702946304603F0F4
:100EB00065FB002070BD2DE9F04107460D46164642
:100EC000984605F07F0000EB800107F58E7000EB7F
:100ED000C1040120607005F07F002070E66026618B
:100EE0000020A061C4F81480207820B9214638463B
:100EF00003F0C5F903E02146384603F071FB0020FA
:100F0000BDE8F08130B587B00546594C284603F05E
:100F10007CF9684601F078FB019CE868C0680590A0
:100F2000059820F4705005900598E968C860284637
:100F300003F028FD03280BD10020A8704FF40070A7
:100F4000A880059820F4705000F5105005907EE0C0
:100F50000120A8704020A8804648844209D3464812
:100F6000844206D2059820F4705000F56050059038
:100F70006DE04148844209D34048844206D2059836
:100F800020F4705000F55050059060E03B488442DA
:100F900009D33B48844206D2059820F4705000F5EE
:100FA0004050059053E03648844209D33548844286
:100FB00006D2059820F4705000F53050059046E0B8
:100FC0003048844209D33048844206D2059820F440
:100FD000705000F52050059039E02B48844209D329
:100FE0002A48844206D2059820F4705000F510502B
:100FF00005902CE02548844209D32548844206D236
:10100000059820F4705000F5005005901FE020482E
:10101000844209D31F48844206D2059820F47050B8
:1010200000F5E050059012E01A48844209D31A48AE
:10103000844206D2059820F4705000F5C050059007
:1010400005E0059820F4705000F5A0500590059833
:10105000E968C86000200690069820F4005000F56A
:10106000005006900698E9684861012007B030BD3D
:10107000007A030AC0E1E4000024F400E0EC04017B
:1010800000C31801002D310140A44C0100366E014F
:1010900040E2950180C3C90160600B02F8B50546C6
:1010A000002400200090284603F0ADFC064681E0B5
:1010B00006F0010000287BD0E1B2284600F00CFBCE
:1010C0000090009800F0010030B3012000FA04F70E
:1010D0002869406BB8432969486300200090009854
:1010E00020F00100401C009005F1180050F8240089
:1010F00000998160E1B23248006842682846904712
:10110000E878012808D13CB940F21110405D04286C
:1011100002D1284603F05EF90098C0F3C00060B128
:1011200000200090009820F008000830009005F1A1
:10113000180050F82400009981600098C0F3001056
:1011400060B100200090009820F010001030009056
:1011500005F1180050F82400009981600098C0F350
:10116000801060B100200090009820F040004030D6
:10117000009005F1180050F8240000998160009853
:10118000C0F3400060B100200090009820F0020001
:10119000801C009005F1180050F82400009981602F
:1011A0000098C0F3C01018B12146284600F0BEFADE
:1011B000641C7608002E7FF47BAF0120F8BD000090
:1011C000D80000207CB50446002500200190204670
:1011D00003F021FC06466FE006F00100002869D00C
:1011E000E9B2204603F01FFC0190019800F00100D5
:1011F000C8B300200190019820F00100401C01902C
:1012000004F1540050F8250001998160E07801282C
:1012100017D104F1540050F825000069009005EB47
:10122000850104F55D7000EBC10080680099C1F391
:101230001201411A05EB850204F55D7000EBC20056
:101240008161E9B21E480068026820469047E07854
:10125000012808D13DB940F21110005D052802D1E6
:10126000204603F0B7F80198C0F3400060B10020B9
:101270000190019820F00200801C019004F15400BC
:1012800050F82500019981600198C0F3C00088B131
:101290000B4800688168204688470020019001982B
:1012A00020F008000830019004F1540050F82500A7
:1012B000019981606D1C7608002E8DD101207CBDC6
:1012C000D80000203EB50446A07A78B1D4F80C01CD
:1012D00000680090009820F002000090009820F034
:1012E000010000900099D4F80C01016000200190E9
:1012F000019820F00100401C01902069406801998C
:101300008843216948600948006881692046884708
:1013100000200290029820F0004000F1004002906E
:101320000298E168486101203EBD0000D80000201D
:101330007CB5044600200190019820F01000103088
:101340000190E068806901998843E1688861E068FC
:10135000006A0090009800F00F0000EB800104F597
:101360005D7000EBC1050098C0F3434007282DD203
:10137000DFE800F02C04051D1E2C1F0027E000985C
:10138000C0F30A1090B10098C0F30A122046E96831
:1013900003F053FBE8680099C1F30A110844E860C0
:1013A000A8690099C1F30A110844A8610FE00EE092
:1013B0000DE0082204F2CC51204603F03EFBA86960
:1013C0000099C1F30A110844A86100E000BF00BF02
:1013D000E068806901990843E168886101207CBD6B
:1013E00038B5044608480068C16820468847002090
:1013F0000090009820F00800083000900098E16804
:101400004861012038BD0000D80000201FB5044607
:10141000002000904FF48970005D00902348006820
:101420004169204688472069806801900020039028
:10143000039820F4006000F5006003900398E168D1
:101440004861A07A70B3019800F0010050B340F2F7
:101450001510005D012825D19DF80000032821D139
:1014600000200290029820F00100401C0290D4F865
:101470000C01006802990843D4F80C110860029826
:1014800020F00200801C0290D4F80C010068029940
:101490000843D4F80C1108600548006840F00600C5
:1014A00003490860012004B010BD0000D8000020EE
:1014B00010ED00E030B587B00446002002900690A1
:1014C0000590049003900190029820F00100401CC8
:1014D0000290206940680299884321694860002190
:1014E000204603F025FA00250BE0FF2104F1180047
:1014F00050F82500816004F1540050F82500816007
:101500006D1C6078A842F0D84FF0FF3120698161EE
:1015100006986FF30F00401C0690069880B200F505
:101520008030069006992069C161059820F0080076
:1015300008300590059820F00100401C05900598A2
:1015400020F00200801C05900599206941610498F3
:1015500020F00100401C0490049820F0080008309E
:101560000490049820F00200801C049004992069E3
:101570000161206900680390039820F4FE600390E5
:10158000039920690160204602F024FF00200190A9
:10159000019820F4805000F5805001900198E16896
:1015A000486104480068016920468847012007B067
:1015B00030BD0000D80000202DE9F04106460F465E
:1015C0003946304603F04EFA01214FF489708155B7
:1015D0000021801C8155002511E005EB850106F5F1
:1015E0008E7000EBC104012060702570E580002042
:1015F000E0704020A0600020E06060616D1C7078A9
:10160000A842EAD8002510E005EB850106F55D70DB
:1016100000EBC104002060702570E580E070402080
:10162000A0600020E06060616D1C7078A842EBD87B
:10163000304602F0D9FD304602F009FC0021304668
:1016400003F078FA304602F08FFC304603F039F9A7
:10165000BDE8F08138B504460020009007480068D6
:10166000C16920468847009820F4801000F580105A
:1016700000900098E1684861012038BDD800002042
:1016800038B504460020009007480068016A2046EB
:101690008847009820F4001000F500100090009892
:1016A000E1684861012038BDD800002038B5044603
:1016B000E068406800900098C0F3800020B10548C1
:1016C0000068816A204688470098E16848600120E8
:1016D00038BD0000D800002030B5024615692B69DE
:1016E00015696C6B24FA01F505F0010543EAC51391
:1016F00002F1180555F82150AD6805EA030030BD28
:1017000038B5044608480068416A204688470020EA
:101710000090009820F0804000F1804000900098F8
:10172000E1684861012038BDD80000202DE9F84368
:1017300006460F4600250020009007EB870106F5BE
:101740008E7000EBC104D4E90501451AA068A842D7
:1017500000D2A568E81C4FEA900906F1180050F87D
:1017600027008069009029E0D4E90501451AA068A6
:10177000A84200D2A568E81C4FEA9009ABB2FAB2C1
:101780003046E16803F0FDF9E0682844E060A069B4
:101790002844A06106F1180050F8270080690090E5
:1017A000D4E90501884209D12178012000FA01F825
:1017B0003069406B20EA080031694863009880B2C4
:1017C000484506D9D4E90510884202D2606900284C
:1017D000CAD10120BDE8F88300F0805111B103495E
:1017E000086001E0024948607047000004040240BC
:1017F0000000024021B1026842F00102026004E0F0
:1018000002684FF6FE731A400260704701684FF697
:10181000FE72114001600021016041608160C16081
:101820004B49884208D14A490839496841F00F01BB
:10183000474A083A51608AE045491431884208D144
:1018400043490839496841F0F001414A083A51607A
:101850007DE03F492831884208D13D49083949682F
:1018600041F470613A4A083A516070E038493C31BD
:10187000884208D136490839496841F47041344AF0
:10188000083A516063E032495031884208D130490A
:101890000839496841F470212D4A083A516056E0F0
:1018A0002B496431884208D129490839496841F4F3
:1018B0007001274A083A516049E025497831884249
:1018C00008D123490839496841F07061204A083A33
:1018D00051603CE01F49884206D1011F096841F070
:1018E0000F01021F116032E01A491431884208D1F9
:1018F0001849091F096841F0F001164A121F1160CA
:1019000025E014492831884208D11249091F096885
:1019100041F470610F4A121F116018E00D493C310B
:10192000884208D10B49091F096841F47041094AEE
:10193000121F11600BE007495031884207D1054959
:10194000091F096841F47021024A121F1160704793
:1019500008000240080402400146486880B270470F
:1019600001460020002201F0805313B1054B1A6894
:1019700001E0054B1A6802EA01030BB1012000E007
:1019800000207047000402400000024010B5002211
:10199000026847F6F0739A430C6A8B6823430C691C
:1019A00023434C6923438C692343CC6923434C6A0A
:1019B00023438C6A23431A430260CB6843600B685D
:1019C00083604B68C36010BD01460B68CA68D05C79
:1019D0000A68521C0A608B680A689A4201D3002286
:1019E0000A6070477047000010B500F0A7FB084878
:1019F000FEF75AFD0648FEF709FE03F095FB00F0DE
:101A000012FD03F0BDFB012003F0B4FA10BD00008D
:101A1000800100204368C268D1544268521C426071
:101A2000D0E901239A4201D3002242607047014667
:101A3000D1E90020904204D388880A88801A80B2B5
:101A4000704788880A8910440A88801A80B2F7E7AC
:101A500010B500200649087008460078C0F1FF0064
:101A600048700221024800F093F800F0CFF810BD52
:101A70005838002010B52120064908700846007823
:101A8000C0F1FF0048700221024800F081F800F028
:101A9000BDF810BD583800202DE9F04107460C462E
:101AA000164631202149087008460078C0F1FF0031
:101AB000487002211D4800F06BF800F0A7F8200ED6
:101AC0001A490870200C4870200A8870CC700846AB
:101AD0000078497848401549897848401349C978C1
:101AE0004840124908710521104800F051F800F0F3
:101AF0008DF8701E0D490870084690F8008000258A
:101B000008E0795D094A681C11541146085C80EAB6
:101B100008086D1CB542F4D3B01C81B2034800F034
:101B200037F800F073F8BDE8F08100005838002065
:101B30002DE9F0474FF4A0394FF4404A4FF00056DA
:101B4000D0464F4600251FE005F5807040450CD873
:101B50004FF4807231463846FFF79EFF05F58075D9
:101B600006F5807607F580770EE0A8EB05000830D3
:101B700080088400A2B231463846FFF78DFF254425
:101B800026443819074600E0DEE700BFBDE8F087CD
:101B900070B505460E460F48007838B102E00120C6
:101BA00004F0D2FA04F07CF80028F8D001200949AA
:101BB000087005B970BD002403E0285D064908558A
:101BC000641CB442F9D33146034804F0BFF800BFA7
:101BD000F0E70000A4010020682F002010B57F204E
:101BE0000449087001210348FFF7D2FF00F00EF806
:101BF00010BD00005838002010B5FFF7EFFFFFF7C9
:101C000027FFFFF795FFFFF735FF10BD10B5002444
:101C10000BE0641CB4F5FA6F04D904A001F01AF9C2
:101C2000002010BD012004F08FFAF2E741434B2061
:101C300074696D656F75740D0A0000002DE9F0413F
:101C4000024600250026002000230024002791F8EA
:101C500003C00CF00F0591F803C00CF0100CBCF1A0
:101C6000000F03D091F802C04CEA050591F800C0BE
:101C7000BCF1000F31D0146800202BE04FF0010CB4
:101C80000CFA00F3B1F800C00CEA03069E4220D122
:101C900083004FF00F0C0CFA03F7BC4305FA03FC6A
:101CA0004CEA040491F803C0BCF1280F06D14FF0B0
:101CB000010C0CFA00FCC2F814C00AE091F803C051
:101CC000BCF1480F05D14FF0010C0CFA00FCC2F832
:101CD00010C0401C0828D1D31460B1F800C0BCF17A
:101CE000FF0F34DD546800202EE000F1080C4FF0A7
:101CF000010808FA0CF3B1F800C00CEA03069E4292
:101D000021D183004FF00F0C0CFA03F7BC4305FA06
:101D100003FC4CEA040491F803C0BCF1280F05D180
:101D200000F1080C08FA0CF8C2F8148091F803C00E
:101D3000BCF1480F07D100F1080C4FF0010808FA78
:101D40000CF8C2F81080401C0828CED35460BDE8BF
:101D5000F0810000F0B50A46002300240021002590
:101D600000F00046B6F1004F02D11D4EF16901E0CE
:101D70001B4E7168C0F3034583B200F44016B6F5FC
:101D8000401F08D121F07061154E766826F070660C
:101D9000134F7E6012E000F48016B6F5801F06D166
:101DA000032606FA05F4A14341F0706106E0460DF2
:101DB000360103FA06F6B14341F0706122B1460DD7
:101DC000360103FA06F6314300F00046B6F1004F43
:101DD00002D1034EF16101E0014E7160F0BD0000DF
:101DE00000000140416170470161704770B50A48C9
:101DF0000468801C0568801C0668344454B10822BD
:101E00000649204600F040FA0422044910312846D1
:101E100000F03AFA70BD0000E8F7FF1F4A01002009
:101E200070B506463048007800285BD12F4800681E
:101E3000B0F5006F02D100202C4908602B480068E3
:101E40002B490968884203D100202749087070BDDA
:101E50002648006826490968884206D92348006850
:101E6000C0F500602349086006E0214800681F496A
:101E70000968401A1F4908601E480068402811D9A7
:101E80001A48008885B24024184800684030174935
:101E90000860184800684038164908600120124957
:101EA000087018E01148008885B21248008884B292
:101EB0000E4800680F49096808440C490860002072
:101EC0000C490860402C03D102200749087002E049
:101ED00001200549087008484219234681213046EF
:101EE000FEF7E9FF00BFB2E7180000201000002055
:101EF0000C00002014000020BC0E002000BFFEE7F4
:101F000010B586B04FF4404000F022FB3748FEF792
:101F1000EDF90121480200F057FB0121084600F0CD
:101F200023FB00F067F8002404E00020304921F88A
:101F30001400641C602CF8D303F008FA0020019010
:101F400001208DF808008DF809004FF460200390FF
:101F50000020049006208DF8140001A92348FEF704
:101F600007FA062301220A212048FEF729FA062350
:101F700002220B211D48FEF723FA062303220C211F
:101F80001A48FEF71DFA062304220D211748FEF712
:101F900017FA0623052201211448FEF711FA062339
:101FA0001A460E211148FEF70BFA01210F48FEF7E1
:101FB00091F901210D48FEF782F90C48FEF75CFA11
:101FC00000BF0A48FEF7CAF90028FAD10748FEF711
:101FD00063FA00BF0548FEF7B7F90028FAD10121DE
:101FE0000248FEF74EFA06B010BD00000024014082
:101FF0008009002008B50120ADF8000000208DF810
:10200000030001208DF8020069461348FFF716FE11
:102010000220ADF8000069460F48FFF70FFE0420CC
:10202000ADF8000069460C48FFF708FE0820ADF83F
:10203000000069460848FFF701FE1020ADF80000D7
:1020400069460548FFF7FAFD0220ADF80000694631
:102050000248FFF7F3FD08BD0010014000080140F1
:102060000023436003608260C160704710B50022A6
:102070000421142004F042F90149086010BD000059
:10208000A801002010B54FF4406206490648FFF74A
:10209000E7FF00220421142004F030F9034908600E
:1020A00010BD00006823002058230020A00100205C
:1020B00010B54FF4006209490948FFF7D1FF4FF40A
:1020C000006208490848FFF7CBFF002204211420D2
:1020D00004F014F90549086010BD0000BC0E002092
:1020E000BC160020581B0020CC16002098010020B0
:1020F00010B5FFF7C7FFFFF7DBFFFFF7B7FF0B4890
:102100000B490860002008710220487104204871C2
:102110000120C871074808490860002008710220A2
:102120004871042048710120C87110BD20A107002A
:1021300080010020A08601008801002008B501214F
:10214000042000F041FA0121082000F03DFA0121AD
:10215000102000F039FA0121202000F035FA4FF468
:102160008060ADF8000010208DF8030003208DF88A
:10217000020069464148FFF761FD4FF40060ADF889
:10218000000069463D48FFF759FD4FF48050ADF817
:10219000000069463948FFF751FD4FF40050ADF893
:1021A000000069463548FFF749FD4FF48040ADF81F
:1021B000000069463148FFF741FD4FF40040ADF89B
:1021C000000069462D48FFF739FD4020ADF80000BA
:1021D00069462B48FFF732FD8020ADF800006946C4
:1021E0002748FFF72BFD4FF480612448FFF7FAFDE5
:1021F0004FF400612148FFF7F5FD4FF480511F486F
:10220000FFF7F0FD4FF400511C48FFF7EBFD4FF4D2
:1022100080411A48FFF7E6FD4FF400411748FFF7E9
:10222000E1FD40211648FFF7DDFD80211448FFF74E
:10223000D9FD4FF40070ADF8000010208DF80300B8
:1022400003208DF8020069460E48FFF7F7FC4FF4B3
:1022500000710C48FFF7C6FD0420ADF80000102007
:102260008DF8030001208DF8020069460348FFF74E
:10227000E5FC04210148FFF7B5FD08BD001401404D
:1022800000100140000C014030B50B46002100BF9A
:1022900016E00A24B4EB107F05D9302404EB107447
:1022A00003F8114005E0412404EB10740A3C03F8E4
:1022B0001140000100254C00641C1D554C1CE1B26E
:1022C0009142E6DB30BD00BFFEE700002DE9F84398
:1022D00006460F460024B088273020F01F084046ED
:1022E00003F0E4FB044624B91BA000F0B3FDBDE8F5
:1022F000F88325460220A871EF710020A88004F120
:1023000008002860B28831462868FDF789FF0094EC
:10231000012F02D0032F1AD10CE0002314226946AA
:102320001348006804F0E4F8012802D0204603F0C6
:10233000F5FE0DE00023142269460E48006804F003
:10234000D7F8012802D0204603F0E8FE00E000BFE5
:1023500000BF00BFCBE700004D616C6C6F63206D68
:10236000736761646472206572726F72210D0A0076
:1023700098010020A80100202DE9F84306460F46E9
:102380000024B088273020F01F08404603F08EFB61
:10239000044624B91BA000F05DFDBDE8F883254686
:1023A0000120A871EF710020A88004F108002860C6
:1023B000B28831462868FDF733FF0094022F02D01F
:1023C000032F1AD10CE00023142269461348006839
:1023D00004F08EF8012802D0204603F09FFE0DE0A5
:1023E0000023142269460E48006804F081F8012891
:1023F00002D0204603F092FE00E000BF00BF00BF05
:10240000CBE700004D616C6C6F63206D7367616496
:102410006472206572726F72210D0A00A0010020A3
:10242000A8010020704708B54FF4407000F07EF816
:102430001C208DF800000C208DF8010000208DF884
:10244000020001208DF80300684600F037F84320B1
:102450008DF800000D208DF8010000208DF802009D
:1024600001208DF80300684600F028F814208DF84C
:1024700000000E208DF8010000208DF802000120E0
:102480008DF80300684600F019F841208DF800002F
:102490000F208DF8010001208DF80300684600F040
:1024A0000DF834208DF800000B208DF8010001207C
:1024B0008DF80300684600F001F808BD70B50021F2
:1024C00000230F22C47804B3154C246804F4E0649C
:1024D000C4F5E064210AC1F10403CA40447804FA57
:1024E00003F184781440214309010E4C0678A1556C
:1024F000047804F01F050124AC4005786D11AD008F
:1025000005F1E025C5F8004109E0047804F01F0555
:102510000124AC40044D0678761145F8264070BD84
:102520000CED00E000E400E080E100E0024901433E
:10253000024A1160704700000000FA050CED00E04F
:1025400010B5024801F072F810BD00008C030020A5
:1025500001460020034A506820F440400843506080
:10256000704700000010024029B1064A5269024338
:10257000044B5A6104E0034A52698243014B5A6199
:10258000704700000010024029B1064AD269024398
:10259000044BDA6104E0034AD2698243014BDA61F9
:1025A000704700000010024029B1064A1269024338
:1025B000044B1A6104E0034A12698243014B1A6119
:1025C000704700000010024029B1064A9269024398
:1025D000044B9A6104E0034A92698243014B9A6179
:1025E000704700000010024029B1064AD268024339
:1025F000044BDA6004E0034AD2688243014BDA609C
:1026000070470000001002402DE9F0410021002237
:10261000002500230026002400278C46DFF8608177
:10262000D8F8048008F00C0121B1042907D008294A
:1026300059D109E0DFF84C81C0F8008058E0DFF89C
:102640004881C0F8008053E0DFF83481D8F8048076
:1026500008F47012DFF82881D8F8048008F4803577
:10266000920C0D2A01D0921C00E0062235B9DFF849
:102670001C8102FB08F8C0F8008033E0DFF800811D
:10268000D8F82C8008F48036DFF8F480D8F82C8055
:1026900008F00F0808F1010446B9DFF8EC80B8FB38
:1026A000F4F808FB02F8C0F800801BE0DFF8D080E7
:1026B000D8F82C80C8F3031808F10107DFF8C080B0
:1026C000D8F82C80C8F3032808F1020CDFF8B88092
:1026D000B8FBF7F808FB0CF8B8FBF4F808FB02F8B5
:1026E000C0F8008004E0DFF89C80C0F8008000BFE4
:1026F00000BFDFF88C80D8F8048008F0F0010909E9
:10270000DFF88C8018F80130D0F8008028FA03F840
:10271000C0F80480DFF86880D8F8048008F4E0612D
:10272000090ADFF86C8018F80130D0F8048028FA24
:1027300003F8C0F80880DFF84880D8F8048008F46F
:102740006051C90ADFF8488018F80130D0F80480D9
:1027500028FA03F8C0F80C80DFF82480D8F8048049
:1027600008F44041890BDFF82C8018F80130D0F8CC
:102770000C80B8FBF3F8C0F81080BDE8F0810000D1
:102780000010024000127A0000366E0100093D0080
:10279000AC010020BC010020014908607047000026
:1027A000D80042422DE9F04180460C4642E04046C6
:1027B000FFF73DF9102802D20020BDE8F081404625
:1027C000FEF76FFABB2831D121464046FEF76EFA7C
:1027D0002746BD883868B0F1BB3F03D04046FFF7BD
:1027E000F3F827E0B5F5886F01DA102D0BD24046DB
:1027F000FFF7EAF84046FFF7E7F84046FFF7E4F84E
:102800004046FFF7E1F84046FFF711F9A84201DA28
:102810000020D2E7002605E04046FFF7D5F8A05596
:10282000701C86B2AE42F7DB0120C6E74046FFF7D8
:10283000CBF800BFBBE72DE9F04180460C4643E0F2
:102840004046FFF7F4F8102802D20020BDE8F081DE
:102850004046FEF726FAAA2832D121464046FEF726
:1028600037FA2746BD883868B0F1AA3F03D0404602
:10287000FFF7AAF828E040F23C40854201DA102D2B
:102880000BD24046FFF7A0F84046FFF79DF84046C0
:10289000FFF79AF84046FFF797F84046FFF7C7F86A
:1028A000A84201DA0020D1E7002605E04046FFF704
:1028B0008BF8A055701C86B2AE42F7DB0120C5E74D
:1028C0004046FFF781F800BFBAE710B500F002F804
:1028D00010BD00000CB50020019000903F4800683A
:1028E00040F480303D49086000BF3C48006800F477
:1028F000003000900198401C0190009818B9019890
:10290000B0F5A06FF1D13548006800F4003010B187
:102910000120009001E000200090009801285CD187
:102920002F48006840F010002D49086008460068F4
:1029300020F0070008600846006840F002000860C8
:10294000264840682549486008464068486008466F
:10295000406840F4806048600846C06A21490840E9
:102960001E49C8620846C06A1F4908431B49C8621D
:102970000846006840F08060086000BF17480068A3
:1029800000F000600028F9D01448406820F47C1062
:10299000124948600846406840F4E810486008461C
:1029A000006840F08070086000BF0C48006800F0CC
:1029B00000700028F9D00948406820F0030007495A
:1029C00048600846406840F00200486000BF034885
:1029D000406800F00C000828F9D10CBD001002403E
:1029E0000020024000F0FEFF54080100F0B5002175
:1029F000002000230024002200250026354F7F6898
:102A000007F00C0121B1042908D008294BD10BE0B3
:102A1000314FDFF8C8C0CCF800704AE0304FDFF823
:102A2000BCC0CCF8007044E02A4F7F6807F47010F7
:102A3000284F7F6807F48033800C0D2801D0801C5C
:102A400000E0062033B9274F4743DFF890C0CCF8A9
:102A5000007027E01F4FFF6A07F480341D4FFF6AA4
:102A600007F00F077A1C44B91D4FB7FBF2F7474335
:102A7000DFF868C0CCF8007014E0164FFF6AC7F3A7
:102A800003177D1C134FFF6AC7F30327BE1C144FA7
:102A9000B7FBF5F77743B7FBF2F74743DFF83CC0E6
:102AA000CCF8007005E00C4FDFF830C0CCF80070B7
:102AB00000BF00BF074F7F68C7F30317DFF828C0C8
:102AC0001CF80710054F3F68CF40DFF810C0CCF866
:102AD0000070F0BD0010024000127A00DC000020FF
:102AE00000366E0100093D00E000002010B51648D8
:102AF000006840F001001449086008464068134926
:102B000008401149486008460068114908400E49CC
:102B100008600846006820F4802008600846406885
:102B200020F4FE0048600846006820F0A0500860CD
:102B30004FF47F0088600020C862FFF7C6FE4FF0A8
:102B400000600449086010BD001002400000FFF062
:102B5000FFFFF6FE08ED00E010B50121880700F048
:102B60000DF918B10121880700F004F810BDCA431F
:102B700002827047CA430282704721B1028842F044
:102B80000102028004E002884FF6FE731A400280C0
:102B90007047000010B504466848844208D10121FE
:102BA000C014FFF721FD0021E014FFF71DFDC4E074
:102BB000B4F1804F08D101210846FFF7F5FC002150
:102BC0000120FFF7F1FCB8E05D48844208D1012103
:102BD0000220FFF7E9FC00210220FFF7E5FCACE052
:102BE0005848844208D101210420FFF7DDFC002170
:102BF0000420FFF7D9FCA0E05348844208D101210A
:102C00000820FFF7D1FC00210820FFF7CDFC94E05D
:102C10004E48844208D101211020FFF7C5FC002155
:102C20001020FFF7C1FC88E04948844208D1012107
:102C30002020FFF7B9FC00212020FFF7B5FC7CE045
:102C40004448844208D101214014FFF7CDFC002103
:102C50006014FFF7C9FC70E03F48844209D10121AC
:102C6000C804FFF7C1FC00214FF40020FFF7BCFCB3
:102C700063E03A48844209D101210805FFF7B4FC1A
:102C800000214FF48010FFF7AFFC56E03448844237
:102C900009D101214805FFF7A7FC00214FF40010DE
:102CA000FFF7A2FC49E02F48844208D101214020CF
:102CB000FFF77AFC00214020FFF776FC3DE02A4830
:102CC000844208D101218020FFF76EFC0021802082
:102CD000FFF76AFC31E02548844208D101218015C4
:102CE000FFF762FC0021A015FFF75EFC25E02048FD
:102CF000844209D101210804FFF776FC00214FF43A
:102D00008030FFF771FC18E01A48844209D1012194
:102D10004804FFF769FC00214FF40030FFF764FC22
:102D20000BE01548844208D101218804FFF75CFCC0
:102D300000214FF48020FFF757FC10BD002C01400C
:102D40000004004000080040000C0040001000405B
:102D50000014004000340140004C0140005001408C
:102D60000054014000180040001C004000200040BA
:102D700000400140004401400048014030B5024697
:102D8000002000230024158A05EA0103958905EA3D
:102D9000010413B10CB1012000E0002030BD1AB1D4
:102DA00083890B43838102E083898B43838170474E
:102DB000002202881D4B98420ED01D4B98420BD02A
:102DC000B0F1804F08D01B4B984205D01A4B984267
:102DD00002D01A4B984204D14FF68F731A404B8899
:102DE0001A43174B984207D0164B984204D04FF61F
:102DF000FF431A40CB881A4302808B8883850B8857
:102E000003850A4B98420BD0094B984208D00E4BD1
:102E1000984205D00D4B984202D00D4B984201D1FB
:102E20000B7A03860123838270470000002C014047
:102E3000003401400004004000080040000C004045
:102E400000100040001400400040014000440140D8
:102E50000048014070B506460F48007820B100BF19
:102E600002F0EEFE0028FBD001200B490870002480
:102E7000354607E0287800B907E015F8010B074947
:102E80000855641CB4F5806FF4D300BF2146034895
:102E900002F0F0FE70BD0000900100208E0A0020BC
:102EA00010B540F227710F4800F03CF840F2255170
:102EB0000C4800F037F810B10A4800F0E1F840F291
:102EC0002441084800F02EF858B1064800F0D8F820
:102ED00005480068C0F54060044948600120044985
:102EE000087010BD004C00403404024058230020FC
:102EF0009C010020CA430280704721B1828942F4BC
:102F00000052828104E082894DF6FF731A4082816B
:102F100070471AB1838A0B43838202E0838A8B4312
:102F20008382704770B502460B46002400210025BD
:102F30000020C3F3421503F01F01012606FA01F138
:102F4000012D02D19689314006E0022D02D1168A68
:102F5000314001E0968A31401C12012606FA04F441
:102F60001688344011B10CB1012000E0002070BD82
:102F7000F0B5034600240026002500201846C1F3C2
:102F8000421401F01F06012707FA06F5012C01D1B2
:102F90000C3004E0022C01D1103000E014301AB1E2
:102FA00007682F43076002E00768AF430760F0BD82
:102FB0002DE9F04786B005460E460024A24600BF24
:102FC000A14600272F462C8A4CF6FF700440F0885B
:102FD00004432C82AC894EF6F3100440B08831894A
:102FE0000843718908430443AC81AC8A4FF6FF4023
:102FF0000440B0890443AC8201A8FFF705FB1F48D9
:10300000874202D1DDF810A001E0DDF80CA0A8890C
:1030100000F4004040B10AEBCA0000EB0A1031682E
:103020004900B0FBF1F807E00AEBCA0000EB0A1018
:1030300031688900B0FBF1F86420B8FBF0F00401BE
:103040002009642101FB1089A88900F4004040B1E7
:10305000322000EBC900B0FBF1F000F007000443A0
:1030600008E0322000EB09106421B0FBF1F000F021
:103070000F0004432C8106B0BDE8F0870038014002
:1030800001468888C0F30800704770B504460D46B5
:10309000D4F8E4052946426820469047002070BDD8
:1030A00070B504460D464FF48970005D022802D0C9
:1030B000032812D100E000BF688801280CD100214C
:1030C0004FF48C700151D4F8E405294682682046FB
:1030D0009047204600F075F804E02946204600F0AD
:1030E00021F800BF00BF70BD2DE9F04106460C4637
:1030F000154600272B46224600213046FDF780FE6C
:103100003846BDE8F0812DE9F04106460C461546EB
:1031100000272B46224600213046FDF7CCFE3846DC
:10312000BDE8F08170B504460D4680212046FDF7CC
:103130009EFE00212046FDF79AFE204601F04AF946
:1031400070BD2DE9F04104460E4615460027C4F82F
:103150009453C4F89053032140F2111001552B46AB
:10316000324600212046FDF74BFE3846BDE8F0818F
:1031700070B504460025052140F2111001550023C9
:103180001A4619462046FDF73BFE204601F022F97B
:10319000284670BD2DE9F04104460E46154600272D
:1031A000C4F83C51C4F83851022140F211100155C5
:1031B0002B46324600212046FDF77DFE3846BDE80D
:1031C000F08170B504460025042140F2111001552C
:1031D00000231A4619462046FDF76DFE204601F0F1
:1031E000F9F8284670BD70B505460E46002E5DD133
:1031F00005F58E7440F21110405D022849D1A16896
:10320000E069884217D9A168E069401AE061E8786E
:10321000012803D1D4E902100844E060A08B82B2F7
:103220002846E168FFF76FFF00231A461946284633
:10323000FDF7E6FD2DE0A168206AB0FBF1F201FB8D
:103240001200A8B9A168206A884211D3D4E9080104
:1032500088420DD2002211462846FFF754FF002075
:10326000606200231A4619462846FDF7C9FD10E0A2
:10327000D5F8E405C06848B14FF48970405D032873
:1032800004D1D5F8E405C168284688472846FFF7E9
:103290006FFF4FF48B70405D012816D1284600F077
:1032A00091FA00214FF48B7041550EE0D5F8E405FA
:1032B000406950B14FF48970405D032805D1D5F8BD
:1032C000E4053146426928469047002070BD70B53C
:1032D00005460E46A6BB05F55D7440F21110405D33
:1032E00003283DD1A168E069884217D9A168E06947
:1032F000401AE061E878012803D1D4E902100844BB
:10330000E060A368E069984201D2E06900E0A0684B
:1033100082B22846E168FFF7E7FE21E0D5F8E40530
:10332000006948B14FF48970405D032804D1D5F895
:10333000E4050169284688472846FFF742FF0FE069
:10334000FFE7D5F8E405806950B14FF48970405D1E
:10335000032805D1D5F8E40531468269284690470F
:10336000002070BD01460020704710B50446D4F817
:10337000E81548698047012140F2151001550020E9
:1033800010BD10B50446D4F8E81588698047D4F814
:10339000E4050021426820469047002140F21510C4
:1033A0000155002010BD000070B504460D46E888A8
:1033B000012804D029462046FFF7B4FE1AE04FF456
:1033C0008970005D022802D003280DD105E001229A
:1033D00009492046FFF7DEFE0BE0012204F5887163
:1033E0002046FFF7D7FE04E029462046FFF79AFE65
:1033F00000BF00BF70BD00009C000020F8B504466F
:103400000E46F088009070880012082862D2DFE82B
:1034100000F061040C186161575CA078D4F8EC15D9
:103420000A6869469047054659E0A078D4F8E41543
:103430008A6A69469047054602216970C4F8F055CA
:103440004DE0B078062834D2DFE800F0030B131B00
:10345000232BA078D4F8EC154A68694690470546B6
:103460002CE0A078D4F8EC158A68694690470546A8
:1034700024E0A078D4F8EC15CA6869469047054660
:103480001CE0A078D4F8EC150A6969469047054617
:1034900014E0A078D4F8EC154A69694690470546CF
:1034A0000CE0A078D4F8EC158A6969469047054687
:1034B00004E031462046FFF735FEF8BD00BF0EE0C0
:1034C00031462046FFF72EFEF7E731462046FFF74C
:1034D00029FEF2E731462046FFF724FEEDE700BF64
:1034E000BDF8000088B1F08878B1F088BDF8001010
:1034F000884202DDBDF8000000E0F0880090BDF8D1
:10350000002029462046FFF745FE00BFD5E70146CB
:10351000002002E0421CD0B2491C0A78002AF9D1EE
:103520007047000070B504460D464FF48970005D89
:10353000022802D0032813D100E000BF01200C496B
:1035400008604FF48C70005920B10846006840F0C4
:1035500002000860022206492046FFF71BFE04E035
:1035600029462046FFF7DEFD00BF00BF70BD00000A
:10357000A00000202DE9F04104460D461746002624
:10358000FCB12046FFF7C3FF022101EB4000388069
:103590003A783046711CCEB22A5403223046711C50
:1035A000CEB22A540AE014F8012B3046711CCEB278
:1035B0002A5400223046711CCEB22A5420780028AA
:1035C000F1D1BDE8F0812DE9F04104460F461546E2
:1035D0001E46DDF81880204600F017FC2046FFF755
:1035E000C1FEC4F8E465C4F8E885C4F8EC55394672
:1035F0002046FDF7E1FFD4F8E8150868804720462B
:1036000000F002FCBDE8F08110B50446D4F8E405F2
:10361000016A20468847002010BD10B50446D4F842
:10362000E405416A20468847002010BD7CB5054668
:103630000024284601F0D4F9002875D0284601F06E
:10364000DAF90190019808B900207CBD0198C0F317
:10365000C04018B12846FDF7B5FD04430198C0F3FA
:10366000804018B12846FDF719FD04430198C0F3C6
:10367000400050B100200090009820F00200801C13
:1036800000900098E968486100BF0198C00F18B128
:103690002846FDF717FE04430198C0F3C02018B177
:1036A0002846FDF7B3FE04430198C0F3C00018B1EB
:1036B0002846FDF795FE04430198C0F3001018B1A9
:1036C0002846FDF735FE04430198C0F3003018B1D9
:1036D0002846FDF7EFFE04430198C0F3403018B1CF
:1036E0002846FDF70FFC04430198C0F3005018B1C1
:1036F0002846FDF7AFFF04430198C0F3405018B1CE
:103700002846FDF7BDFF04430198C0F3807018B14F
:103710002846FDF7F5FF04430198C0F3800018B177
:103720002846FDF7C3FF044320468EE790F8CC25DA
:103730000A7090F8CD254A7090F8CE3590F8CF25D4
:1037400003EB02224A8090F8D03590F8D12503EBA4
:1037500002228A8090F8D23590F8D32503EB02221A
:10376000CA80CB884FF4A0721350012340F211128B
:103770001354704710B504460023402219462046D2
:10378000FDF70AFB0023402280212046FDF704FBC1
:1037900001214FF489700155A078D4F8E8255168CB
:1037A0008847002010BD10B50446D4F8E815086914
:1037B000804740F21310015D401E01550321015561
:1037C000002010BD014603480268086942600020DD
:1037D00070470000A800002010B50446D4F8E405A6
:1037E000C06920B1D4F8E405C169204688470020AB
:1037F00010BD70B504460D46A88818BBE88808BB04
:10380000A87800F07F064FF48970005D032804D18A
:1038100029462046FFF786FC18E04FF48A700655CB
:1038200031462046FDF715FB2046FFF7CAFC26B1BE
:1038300002214FF48970015508E001214FF489708D
:10384000015503E029462046FFF76CFC70BD70B5BA
:1038500004460D46D4F8E405294602682046904700
:10386000D4F8E81588688047002070BD70B504461C
:103870000D46A8783049087008460078012804DD14
:1038800029462046FFF74EFC55E04FF48970005D55
:10389000022802D0032848D117E02748007880B1D9
:1038A0002548007884F8100103214FF489700155F0
:1038B000214801782046FFF7CAFF2046FFF781FC28
:1038C00002E02046FFF77DFC34E01B48007880B919
:1038D00002214FF4897001551748007884F81001CF
:1038E000154801782046FFF7D0FB2046FFF769FC1A
:1038F0001AE094F8100110490978884211D094F820
:1039000010112046FFF7C1FB0B48007884F8100126
:10391000094801782046FFF79AFF2046FFF751FC3F
:1039200002E02046FFF74DFC04E029462046FFF761
:10393000F9FB00BF00BF70BDA4000020F8B504462D
:103940000D460026688801280DD101214FF48C70A6
:103950000151D4F8E4052946826820469047204664
:10396000FFF72FFC3FE0688802283CD12879D0BBC4
:10397000206940680090A8880612062E22D2DFE84F
:1039800006F02103090F151B009820F0700010307D
:1039900000901DE0009820F070002030009017E0AB
:1039A000009820F070003030009011E0009820F076
:1039B0007000403000900BE0009820F07000503014
:1039C000009005E0009820F070001030009000BFDB
:1039D00000BF05480099016001214FF48B7001552B
:1039E0002046FFF7EEFBF8BDA80000201CB50446FA
:1039F00069462046FFF79AFE9DF8000000F01F0080
:103A000020B1012807D002280FD109E069462046DD
:103A100000F016F811E06946204600F007F90CE0C6
:103A20006946204600F046F807E09DF8000000F0E7
:103A300080012046FDF71BFA00BF00BF00201CBD1F
:103A400070B505460C46002660780A2829D2DFE8C2
:103A500000F01923281E280A0528140F214628469D
:103A6000FFF7CCFC22E021462846FFF7C2FE1DE00E
:103A700021462846FFF7FAFE18E021462846FFF7C0
:103A800093FC13E021462846FFF74CFD0EE021464B
:103A90002846FFF753FF09E021462846FFF700FBC1
:103AA00004E021462846FFF73DFB00BF00BF30463B
:103AB00070BD00002DE9F04105460E46002734791F
:103AC000307800F06000202808D1D5F8E4053146B0
:103AD0008268284690473846BDE8F0817078002813
:103AE00057D001282BD0032875D14FF48970405D41
:103AF000022802D003281BD107E02CB1802C03D070
:103B000021462846FDF7B3F917E0708830B92CB18B
:103B1000802C03D021462846FDF7A9F9D5F8E40505
:103B200031468268284690472846FFF74AFB04E062
:103B300031462846FFF7F6FA00BF00BF70E04FF4A9
:103B40008970405D022802D003281BD107E02CB108
:103B5000802C03D021462846FDF789F917E07088AC
:103B600078B95CB1802C09D021462846FDF7F0F8E1
:103B7000D5F8E40531468268284690472846FFF785
:103B800020FB04E031462846FFF7CCFA00BF00BF17
:103B900046E04FF48970405D022802D0032837D1F7
:103BA00007E02CB1802C03D021462846FDF75FF9B1
:103BB00033E004F08000802812D104F07F0000EB95
:103BC000800105F58E7000EBC100807820B10120E6
:103BD0001549086016E022E000201349086011E052
:103BE00004F0800070B904EB840105F55D7000EB12
:103BF000C100807818B101200B49086002E0002064
:103C000009490860022208492846FFF7C3FA04E080
:103C100031462846FFF786FA00BF00BF00E000BF2C
:103C200000BF384658E700009800002070B50446F1
:103C30000D4600264FF48970005D032814D12879C1
:103C400001280CDCD4F8E405294682682046904718
:103C5000E88840B93EB92046FFF7B3FA03E02946A9
:103C60002046FFF75FFA04E029462046FFF75AFA9C
:103C700000BF00BF304670BD10B504464FF48970D8
:103C8000015D401C01550421401E0155D4F8E81582
:103C9000C8688047002010BD70B505460C462DB998
:103CA0002246064906A0FFF765FC04E022460349C8
:103CB00003A0FFF75FFC014870BD00008B020020ED
:103CC00056435020436F6E66696700007047704727
:103CD0000246122008800148704700002801002099
:103CE000704710B1012802D100E001E000E000BF00
:103CF00000BF7047704770477047000070B50546B9
:103D00000C462DB92246064906A0FFF733FC04E015
:103D10002246034903A0FFF72DFC014870BD0000B7
:103D20008B02002056435020496E746572666163B1
:103D3000650000000246042008800148704700002A
:103D40004401002070B505460C462246024903A0F6
:103D5000FFF710FC004870BD8B02002053544D69E2
:103D600063726F656C656374726F6E696373000074
:103D700070B505460C462DB92246064906A0FFF748
:103D8000F9FB04E0224603490CA0FFF7F3FB0148CE
:103D900070BD00008B02002053544D333220566911
:103DA000727475616C20436F6D506F727420696E10
:103DB000204853206D6F64650000000053544D335C
:103DC00032205669727475616C20436F6D506F724A
:103DD0007420696E204653204D6F6465000000001A
:103DE00070B505460C461A202080FDF7FFFF0148FC
:103DF00070BD0000480100200246432008800148B1
:103E00007047000050000020704710B504460020A5
:103E1000FEF7C2FC01210803FEF7A6FB10BD10B59A
:103E200004464FF47A7104FB01F000F001F810BD74
:103E300010B50022C0EB0013DB000724B3FBF4F144
:103E400000BF531C1A468B4200D910BDF9E73EB59E
:103E5000044600250020029001900090207A01285D
:103E60003DD1E068806B0190019820F48030019092
:103E7000607A28B1019820F4801000F5801001903C
:103E80000198E168886300200290E068C0680290B1
:103E9000029820F040000290029820F480000290E6
:103EA000029820F400300290029820F40020029042
:103EB0000298E168C860204600F05EF9E0780128C9
:103EC0003DD1009820F01E000A300090009820F0AC
:103ED0002000203000900098E16888602FE0E068C2
:103EE000C0680290029820F0400040300290029892
:103EF000E168C860204600F03FF900200190019879
:103F000020F4803000F580300190019820F480206A
:103F100000F580200190019820F4002000F5002099
:103F20000190607A28B1019820F4801000F580108B
:103F300001900198E16888631420FFF770FFE07832
:103F400001280FD1E06880680090009820F01E00E2
:103F50000A300090009820F0200020300090009857
:103F6000E168886028463EBD70B588B004460026EA
:103F70000020079006900590049003900021D4F84B
:103F80000C010160206900680690069820F4C0507A
:103F90000690069920690160E07A01283FD103214B
:103FA000204600F011FD8020E1684862059880B24B
:103FB00000F50010059005986FF30F008030059014
:103FC0000598E1688862059800EB1041049861F358
:103FD0000F000490049880B200F50000049004984B
:103FE000E168C1F80401049800EB104161F30F008F
:103FF0000490049880B200F5001004900499E068E1
:10400000C0F80811049800EB104161F30F00049010
:10401000049880B204900499E068C0F80C11102153
:10402000204600F085FC204600F05CFC0021206961
:10403000016120694161491E206981610021206977
:10404000C16100252CE004F1180050F8250000683B
:1040500007900798C00F70B100200790079820F0D4
:10406000804000F180400790079820F0006000F148
:104070000060079001E00020079004F1180050F85C
:10408000250007990160002104F1180050F825006F
:104090000161FF2104F1180050F8250081606D1CBA
:1040A0006078A842CFD800252CE004F1540050F8E5
:1040B0002500006801900198C00F70B100200190A8
:1040C000019820F0804000F180400190019820F09C
:1040D000006000F10060019001E00020019004F117
:1040E000540050F8250001990160002104F15400AA
:1040F00050F825000161FF2104F1540050F825001B
:1041000081606D1C6078A842CFD80020039003988E
:1041100020F4807000F58070039020690069039995
:104120008843084321690861E07801281DD10020F7
:104130000290029820F00100401C0290029820F0AA
:104140000200801C02904021029861F38A000290D4
:10415000029820F4803000F580300290029861F3DC
:1041600059400290029920690163204600F051FBFA
:10417000304608B070BD0000F8B5044600260025A2
:104180000020009000BF0320FFF752FEE0680069A6
:104190000090681C05461349884201D90020F8BDEB
:1041A0000098C00F0028EED00025009820F00100F4
:1041B000401C00900098E168086100BFE068006959
:1041C0000090681C05460749884200D904E0009821
:1041D00000F001000028F1D100BF0320FFF728FE06
:1041E0003046DCE7400D030008B501460020002200
:1041F0000092009A22F00102521C0092CA68926852
:10420000009B9A43CB689A6008BD0EB5014600201A
:10421000002200920A69926802928A6912680192E9
:10422000029AC2F3410232B1012A05D0022A09D012
:10423000032A0DD101E000BF00BF019A6FF30A020B
:1042400001920AE0019A6FF30A02D21C019204E083
:10425000019A6FF30A02019200BF00BF019B8A69B5
:104260001360009A22F4807202F5807200920A694B
:104270005268009B9A431A430B695A600EBDFCB505
:104280000246002000240025019500954D78012D5F
:1042900052D193691D6801951D6900954D6955B905
:1042A000009D25F07F050095009D25F4002505F56E
:1042B0000025009516E08E684D69B54207D98D68D6
:1042C0004D610E7A009D66F30605009504E00E7DB3
:1042D000009D66F306050095009D25F4002505F573
:1042E00000250095009D1D61D578012D06D10F7820
:1042F00002F1180555F827500E696E61019D25F0F1
:10430000806505F180650195019D25F0004505F169
:1043100000450195019D1D60D578002D59D14D694D
:10432000002D56D00E780125B5402C4315696D6BD4
:104330002543166975634CE00E7802F1540555F873
:1043400026502D6801950E7802F1540555F8265037
:104350002D6900954D695DB90E7A009D66F30605DD
:104360000095009D25F4002505F5002500950CE03D
:104370008D684D610E7A009D66F306050095009DDF
:1043800025F4002505F5002500950F7802F1540568
:1043900055F82750009E2E61D578012D06D10F7853
:1043A00002F1540555F827500E696E61019D25F004
:1043B000806505F180650195019D25F0004505F1B9
:1043C000004501950F7802F1540555F82750019EDC
:1043D0002E60FCBD0CB500210191019921F0C04176
:1043E00001F1C0410191019921F4002101F5002161
:1043F0000191019921F07F0118310191019A416DDC
:104400000A61C178012915D10021009100F2CC5137
:10441000426D5161416D09680091009921F00041A0
:1044200001F1004100914FF080210091009A416D0F
:104430000A6000BF0CBD3CB5024600200024019478
:1044400000944C78012C0CD10D7802F1180454F82A
:1044500025300D780124AC40009D64F30F050095D4
:104460000BE00D7802F1540454F825300D78012446
:10447000AC40009D64F31F4500951C680194019CAD
:10448000C4F3C034E4B90D89019C65F30A040194B6
:10449000CD78019C65F3934401948D79019C65F37B
:1044A00099540194019C24F0805404F180540194A7
:1044B000019C24F4004404F500440194019C1C6018
:1044C0001469E469009D2C431569EC613CBD38B565
:1044D00003460020002400944C78012C05D10D786F
:1044E00003F1180454F8252004E00D7803F1540476
:1044F00054F8252014680094009C24F400140094BF
:10450000CC78032C02D0CC78022C05D1009C24F06E
:10451000805404F180540094009C146038BD3CB574
:10452000024600200024019400944C78012C0CD108
:104530000D7802F1180454F825300D780124AC40B0
:10454000009D64F30F0500950BE00D7802F1540413
:1045500054F825300D780124AC40009D64F31F45CC
:104560000095019C24F400440194019C1C60146992
:10457000E469009DAC431569EC613CBD38B5034668
:104580000A460020002400945478012C18D1157894
:1045900003F1180454F825100C680094009CE40FF3
:1045A0002CB1009C24F0804404F180440094009CD1
:1045B00024F4001404F500140094009C0C600EE038
:1045C000157803F1540454F825100C680094009CED
:1045D00024F4001404F500140094009C0C6038BD11
:1045E000FEB505460C4600260027002002900190EB
:1045F000607801287ED1217805F1180050F821005B
:1046000000680290217805F1180050F82100006937
:104610000190606948B901986FF31200019001217F
:10462000019861F3DC40019017E06169019861F342
:10463000120001906069401EA1680844B0FBF1F1CE
:10464000019861F3DC400190E078012805D10198E0
:1046500020F0C04000F100500190227805F11800D0
:1046600050F8220001990161E878012807D12278E9
:1046700005F1180050F82200216941610DE0E07851
:1046800001280AD0606940B12178012000FA01F7C1
:104690002869406B384329694863E078012813D1C1
:1046A0002869806800900098C0F3002030B9029813
:1046B00020F0005000F10050029005E0029820F038
:1046C000805000F180500290029820F0806000F14C
:1046D00080600290029820F0004000F100400290BB
:1046E000227805F1180050F8220002990160E07864
:1046F000012800E008E070D1A08A83B22278284621
:10470000E16800F03EFA68E0217805F1540050F8C5
:10471000210000680290217805F1540050F8210032
:1047200000690190606950B9A168019861F31200B5
:1047300001900121019861F3DC40019017E0A0682D
:10474000401E61690844A168B0FBF1F1019861F372
:10475000DC4001900198C0F3C940A1684843019929
:1047600060F3120101910198C0F312006061227898
:1047700005F1540050F8220001990161E878012800
:1047800006D1227805F1540050F8220021694161D8
:10479000E07801280ED1607930B1029820F0005005
:1047A00000F10050029005E0029820F0805000F1E6
:1047B00080500290029820F0806000F180600290AA
:1047C000029820F0004000F100400290227805F1AC
:1047D000540050F82200029901603046FEBD08B531
:1047E00000210091491EC26851606FF08041C2688B
:1047F0005161009921F0004101F1004100910099BF
:1048000021F4006101F5006100910099C268916195
:1048100008BD38B50446002500200090E168886195
:104820006FF08040E16848612046FFF7D8FFE078EC
:1048300020B9009820F0100010300090009820F46B
:10484000006000F500600090009820F4805000F5B2
:1048500080500090009820F4005000F50050009027
:10486000009820F4802000F580200090009820F42B
:10487000002000F500200090009820F0080008308B
:104880000090009820F4801000F5801000900098AF
:1048900020F4001000F500100090009820F08040F7
:1048A00000F180400090009820F00400001D00906E
:1048B000E0688069009988430843E1688861284678
:1048C00038BD08B50146002000220092009A22F06F
:1048D0000102521C0092CA689268009B1A43CB687E
:1048E0009A6008BDF8B50446002500260020009017
:1048F000009820F01000103000900098E1680861E6
:1049000000BFE06800690090701C064607498842B5
:1049100000D904E00098C0F300100028F1D100BFD6
:104920000320FFF785FA2846F8BD0000400D03007C
:10493000F8B504460D460026002700200090009898
:1049400020F0200020300090009865F38A1000903D
:104950000098E168086100BFE06800690090781C79
:1049600007460749884200D904E00098C0F3401088
:104970000028F1D100BF0320FFF75AFA3046F8BDF6
:10498000400D030008B5014600200A6992680092B4
:10499000009AC2F3410232B1012A06D0022A07D09E
:1049A000032A07D102E0032006E000BF022003E053
:1049B000012001E0022000BF00BF08BD0146C86819
:1049C000406900F00100704708B502691268009262
:1049D000009A61F301020092009B0269136008BD16
:1049E00000B502461046FFF7E9FF012801D001207B
:1049F00000BD0020FCE701460020CA685069CA6873
:104A00009269104070470146086982690869C06967
:104A1000024090B270470146086982690869C0691E
:104A20000240100C7047024602F1540353F8213043
:104A3000986813695B6918407047F0B50346002415
:104A4000D01CC71700EB9777BD10D3F8D06000BF1C
:104A500003E030680860091D641CAC42F9D30846C5
:104A6000F0BD000070B502460C4600230020002572
:104A7000D5700125957040259580012C0CD14FF003
:104A8000A0430125D57208251570042555709D1584
:104A9000D580022515720AE04CB9254B0025D57248
:104AA0000C251570062555704FF4A065D580D36090
:104AB00003F500651561002110E003F5106505EBB5
:104AC000411602F1180545F8216003F5306505EB44
:104AD000411602F1540545F82160491C55788D4274
:104AE000EBD803F5806555614035C2F8CC50002104
:104AF00008E003F5A06505EB411602F1900545F8C5
:104B00002160491C15788D42F3D8002108E003F597
:104B1000805505EB013602F1D00545F82160491CAE
:104B200015788D42F3D803F56065C2F80C5170BD5D
:104B300000000440F8B504460D460026E068C06851
:104B40000090009820F000500090009820F08040E5
:104B50000090012D06D1009820F0005000F1005087
:104B6000009006E02DB9009820F0804000F18040D0
:104B700000900098E168C8603220FFF750F9304695
:104B8000F8BD2DE9F04104460026E078B0B90027D1
:104B90000020DD1C4FEAE57805EB98784FEAA8077E
:104BA00004F1D00555F822C000BF04E00D68CCF830
:104BB0000050091D401CB842F8D300BF3046BDE884
:104BC000F08170B504462546A87A012804D0022851
:104BD00006D003280CD107E0284600F01CF808E0B6
:104BE000284600F02BF804E0284600F004F800BF47
:104BF00000BF00BF70BD70B50446E57A022D06D037
:104C0000052D05D103212046FDF760FB01E000E002
:104C100000BF00BF70BD70B50446E57A012D02D01B
:104C2000022D08D103E0204600F009F804E02046F8
:104C300000F034F800E000BF00BF70BD704770475F
:104C40002DE9F04104461348007838B102E0012014
:104C500001F07AFA01F024F80028F8D001200D497B
:104C60000870206808B9BDE8F081D4F80080B8F871
:104C700004602768002504E017F8010B0649485531
:104C80006D1CB542F8D33146034801F05FF800BF10
:104C9000E9E70000A4010020682F0020704700BF52
:104CA000FEE770B504462546A87A012804D00228FC
:104CB00006D003280CD107E0284600F019F808E0D8
:104CC000284600F028F804E0284600F004F800E048
:104CD00000BF00BF70BD70B50446E57A052D04D154
:104CE00003212046FDF748FB00E000BF00BF70BD78
:104CF00070B50446E57A012D02D0022D08D103E0FB
:104D0000204600F009F804E0204600F006F800E034
:104D100000BF00BF70BD70477047704710B50346B5
:104D2000042B15D007DC7BB1012B0ED0022B0DD04C
:104D3000032B2ED10BE0202B0BD0212B0AD0222BC2
:104D400025D0232B25D123E024E023E022E021E01D
:104D500020E01FE04FF46120104C206020460078D6
:104D6000087020460088000A487020460068000C41
:104D7000887020460068000EC870204600790871CF
:104D800020464079487120468079887102E001E030
:104D900000E000BF00BF002010BD0000F0000020B8
:104DA00070B505460E46002404E0295D0548FCF771
:104DB00031FE641CB442F8D301200349087000207E
:104DC00070BD0000CC16002094010020024840680D
:104DD0000249086000207047BC1600200C0000202B
:104DE000002070470020704702E008C8121F08C169
:104DF000002AFAD170477047002001E001C1121F5C
:104E0000002AFBD1704770B5044620698047206AAC
:104E1000804760688047206A804794F8290070B115
:104E20004FF47A7506E0012000F068F9E0698047E8
:104E300000B103E0281EA5F10105F4D100BFA0696F
:104E4000804708B1012070BD206A804720688047F4
:104E50000020F8E710B50446A0688047206A804724
:104E600060688047206A804720688047206A8047C2
:104E700010BD10B50446E0688047206A804760682E
:104E80008047206A804720688047206A804710BD9D
:104E900070B50446002520698047002612E06806A8
:104EA000050E206A804760688047206A8047A069B5
:104EB000804708B145F0010520688047206A804797
:104EC000701CC6B2082EEADB284670BD10B5044639
:104ED000E0688047206A8047206A80476068804792
:104EE000206A8047206A8047A0688047206A804700
:104EF00020688047206A804710BD10B50446A0682E
:104F00008047206A804760688047206A8047E06861
:104F10008047606A804710BD70B504460E46002584
:104F200015E006FA05F000F0800010B1E068804757
:104F300001E0A0688047206A804760688047206A57
:104F4000804720688047206A8047681CC5B2082DCA
:104F5000E7DB2046FFF757FF08B1012070BD0020B6
:104F6000FCE7000010B504210148FCF73DFF10BD2F
:104F70000014014010B590B004460121C804FDF7AB
:104F800003FB01210220FDF7EFFA4FF48060ADF83A
:104F9000000018208DF8030003208DF802006946F8
:104FA0004C48FCF74BFE4FF40060ADF80000482081
:104FB0008DF8030069464748FCF740FE4648FCF779
:104FC00025FC464805900020069010200790002000
:104FD0000890099080200A9000200B900C900D9072
:104FE0004FF400500E9000200F9005A93A48FCF7AE
:104FF000CDFC39482838FCF709FC3848059038487A
:105000000690002007904FF440600890002009901F
:1050100080200A9000200B900C9020200D904FF4DF
:1050200040500E9000200F9005A92B482838FCF71F
:10503000ADFC012C12D14FF4E13001902003ADF80A
:1050400008000020ADF80A00A002ADF80C00002016
:10505000ADF810000C20ADF80E000EE04FF4E1208A
:1050600001900020ADF80800ADF80A00ADF80C0082
:10507000ADF810000C20ADF80E0001A91748001F74
:10508000FDF796FF002240F226611448001FFDF74D
:105090006FFF002240F225511048001FFDF768FF06
:1050A000012240F224410D48001FFDF761FF01215C
:1050B0000A48001FFDF721FF012240210748001F79
:1050C000FDF727FF012104482838FCF793FB10B0B7
:1050D00010BD00000010014058040240044C004084
:1050E0006823002030B50446002504E04FF47A70B0
:1050F00000F004F86D1CA542F8D330BD002105E096
:10510000002200E0521C0A2AFCDB491C8142F7D332
:105110007047000010B54FF400710248FCF764FEC0
:1051200010BD0000000C01400EB54FF08040FDF7AF
:1051300031FD01210846FDF727FA4CF24F30ADF85A
:10514000040040F2CF20ADF800000020ADF80600CA
:10515000ADF802008DF8080069464FF08040FDF779
:1051600027FE01218807FDF702FD01221146900765
:10517000FDF715FE01218807FDF7FFFC0EBD0000BD
:1051800000B591B001210820FDF71EFA0121880326
:10519000FDF71AFA01210846FDF7E6F94020ADF8BF
:1051A000040018208DF8070003208DF8060001A9DF
:1051B0002448FCF743FD8020ADF8040048208DF81A
:1051C000070001A91F48FCF739FD01210420FCF765
:1051D000C1FD1D48FCF71AFB1C48069000200790F3
:1051E000102008904FF49660099000200A908020CB
:1051F0000B9000200C900D900E904FF400500F90EB
:105200000020109006A91048FCF7C0FB4FF4E120E5
:1052100002900020ADF80C00ADF80E00ADF81000C3
:10522000ADF814000820ADF8120002A90748001FCD
:10523000FDF7BEFE01210548001FFDF75EFE11B01F
:1052400000BD0000000C0140440002400438014051
:1052500010B5002821D0114B0022001F196803E06F
:10526000814203D80A4649680029F9D152B113682E
:10527000841A9C4204D1006818441060104602E071
:10528000506000E0186039B102680B1A934203D1F4
:105290000B681A4402604968416010BD000200209A
:1052A00010B50A20FFF72AFF10BD10B53220FFF716
:1052B00025FF10BD10B54FF480610248FCF794FD46
:1052C00010BD0000000C014010B54FF48061024891
:1052D000FCF788FD10BD0000000C01400448006888
:1052E00000F4806008B1012070470020FCE7000056
:1052F000080C014010B54FF400610248FCF774FD42
:1053000010BD0000000C01407047000010B54FF4C4
:1053100000610248FCF768FD10BD0000000C014070
:1053200010B54FF400610248FCF75CFD10BD0000B1
:10533000000C01400448006800F4006008B101203E
:1053400070470020FCE70000080C014000B58BB05E
:1053500001210846FDF708F91148FCF757FA1148F2
:1053600000901148019000200290602003900020DE
:105370000490802005904000069080000790202037
:1053800008904FF44050099000200A906946044864
:10539000FCF7FCFA01210248FCF72CFA0BB000BD27
:1053A000080002404C2401408009002038B500F07C
:1053B0006FF800F03BF802236A46FE211A4800F01D
:1053C00097FB02236A46FF21174800F091FB4FF438
:1053D0000044200A8DF80000E0B28DF8010002239D
:1053E0006A460021104800F0D1FB0A20FFF77AFE40
:1053F00004208DF8000000208DF8010002236A4689
:105400000521094800F0C2FB44F62734200A8DF834
:105410000000E0B28DF8010002236A460021024834
:1054200000F0B4FB38BD0000900E00200D480E497E
:1054300008600E4848600E4888600E48C8600E48F4
:1054400008610E4848610E4888610E48C8610E48E0
:1054500008620E484862802081F82800012081F807
:1054600029007047C9520008900E0020B55200086C
:10547000215300080D530008F55200080953000895
:1054800035530008DD520008A1520008AB52000855
:1054900008B501210820FDF797F84FF48060ADF8BA
:1054A000000014208DF8030001208DF802006946E9
:1054B0000A48FCF7C3FB4FF40060ADF800006946F2
:1054C0000648FCF7BBFB4FF480610448FCF78CFCFA
:1054D0004FF400610148FCF787FC08BD000C014057
:1054E0001CB5FCF705FEFCF77FFA1948194B1A4A60
:1054F000012100901948FEF766F8FDF777FA18A029
:10550000FDF7A8FC16A0FDF7A5FC00200621034628
:105510008022CDE9001018A11A4801F0A3F800205C
:10552000072103468022CDE9001017A11A4801F097
:1055300099F80020042103468022CDE9001017A12C
:105540001A4801F08FF800F03BFE00BFFEE70000B4
:1055500064010020240000200C0100208C030020A6
:1055600073797374656D20737461727475702E2E07
:105570002E200D0A0000000074657374207461739E
:105580006B000000015C000875736220636F6D6D35
:10559000207461736B000000795D0008756172749E
:1055A00020636F6D6D207461736B0000E15C000817
:1055B000F0B50B30154D20F007010024144A0FE020
:1055C00003688B420BD38B4205D95E1A4318476898
:1055D000C3E9006700E04368136002C004E0021DF5
:1055E00010680028ECD12046002802D1286808B1B4
:1055F0000020F0BD064A07481060074A121A22F040
:105600000702C0E9002401202860D7E70402002037
:1056100000020020643B0020604A00202DE9F04198
:1056200005460E461C4807681C480068001D00F02F
:1056300007FD50B91948006890F82C1001208840E7
:1056400017490968814316480160681C38B936B1AA
:1056500012480168091D134800F031FD1AE07C1959
:105660000E4800684460BC4207D20C480168091D1E
:105670000D48006800F009FD0CE008480168091DAC
:105680000A48006800F001FD09480068844201D220
:1056900007480460BDE8F081D4010020C00100206B
:1056A000D8010020483B0020C8010020C401002090
:1056B000F001002010B5044600F00EFD23480068FC
:1056C000401C224908602248006840B92048046014
:1056D0000846006801280DD100F034F90AE01D48A1
:1056E000006838B91A480068C06AE16A884201D87F
:1056F0001748046018480068401C1749086094F86F
:105700002C10012088401549096808431349086096
:10571000E16A01EB8101124A02EB8100211D00F0D8
:10572000CEFC00F0EBFC0B48006868B1084800684C
:10573000C06AE16A884207D24FF080500949086088
:10574000BFF34F8FBFF36F8F10BD0000D00100205B
:10575000C0010020DC010020EC010020D801002065
:10576000583A002004ED00E070B523E000F05AFD47
:105770001348006808B9012000E00020054601F048
:105780006FF8BDB900F0A8FC0D48C068C468201DC2
:1057900000F056FC0B480068401E0A4908600A48A1
:1057A0000068401E0849086000F0A8FC204600F090
:1057B00057F800BF044800680028D7D170BD00002A
:1057C000343B0020D0010020CC01002070B50446FD
:1057D0000D46206C70B1216CE0680844E06061689F
:1057E000E068884201D32068E0602846226CE168C6
:1057F000FAF716FD70BD2DE9F04104460F46154637
:105800004FF00008A66B206C28B37DB93946226C96
:10581000A068FAF705FD216CA0680844A060D4E9EF
:105820000110884217D32068A06014E03946226C2A
:10583000E068FAF7F5FC216CE068401AE060216846
:10584000E068884203D2216C6068401AE060022D53
:1058500001D106B1761E701CA0634046BDE8F08100
:1058600010B50446206B00F059FC204600F056FCB1
:1058700010BD000000BFFFF777FF06480068012851
:10588000F9D94FF0805004490860BFF34F8FBFF340
:105890006F8FF0E7583A002004ED00E02DE9F04169
:1058A00006460D4617469846069C0DB9246000E052
:1058B0002760E66325640121204600F0D9FDBDE89C
:1058C000F0812DE9FF5F80460E469146DDE90E7AB4
:1058D000109CA9F10100216B01EB800B2BF0070B51
:1058E000002507E0715D04F134004155705D00B999
:1058F00002E06D1C102DF5D300BF0021432001559F
:10590000082F00D30727E762201D00F0BBFB04F13E
:10591000180000F0B7FB2461C7F10800A0616462C1
:105920000020606484F8480041465846039A00F01D
:10593000CDF82060BAF1000F01D0CAF80040BDE8F0
:10594000FF9F000010B5002407E004EB84010F4A1C
:1059500002EB810000F089FB641C082CF5D30C4895
:1059600000F083FB0B4800F080FB0B4800F07DFB50
:105970000A4800F07AFB0A4800F077FB044809491E
:10598000086004480849086010BD0000583A00202B
:10599000F83A00200C3B0020203B0020343B002044
:1059A000483B0020C4010020C801002070B5054616
:1059B00000F092FBA86B08B9012400E0002400F07D
:1059C0009DFB204670BD70B5054600F085FBA86BB9
:1059D000E96B884201D1012400E0002400F08EFB35
:1059E000204670BD0A490968096809B9012100E02B
:1059F000002121B14FF0FF31064A116006E0044951
:105A00000968C968C868034A4168116070470000A6
:105A1000C4010020F001002000BFBF2080F31188E6
:105A2000BFF34F8FBFF36F8F00BF00BFFEE770B5AE
:105A3000044600F051FB94F9455010E0606A08B943
:105A4000012000E0002038B904F1240000F0C8FE75
:105A500018B100F093FB00E003E0681E45B2002D92
:105A6000ECDC00BFFF2084F8450000F047FB00F0AD
:105A700033FB94F9445010E0206908B9012000E09C
:105A8000002048B904F1100000F0AAFE08B100F0AF
:105A900075FB681E45B200E001E0002DECDC00BFA4
:105AA000FF2084F8440000F029FB70BD70B5054666
:105AB00000F0B8FB2846FFF77BFD044600F0D0FE5F
:105AC0000CB900F0D1FA204670BD0000001F4FF065
:105AD00080730360001F21F001030360001F034B6C
