:020000040800F2
:10000000B8FE0020FD010008DD380008BD30000802
:100010003D360008F10900080D82000800000000CC
:100020000000000000000000000000006501000862
:10003000F120000800000000A901000801BF00082D
:10004000170200081702000817020008170200082C
:10005000170200081702000817020008170200081C
:10006000170200081702000817020008170200080C
:1000700017020008170200081702000817020008FC
:1000800017020008170200081702000817020008EC
:10009000250B0008170200081702000817020008C5
:1000A00017020008170200081702000817020008CC
:1000B0005D4A00081702000817020008170200082E
:1000C00017020008170200081702000817020008AC
:1000D000170200081702000817020008170200089C
:1000E00017020008170200081702000800000000AD
:1000F0000000000000000000000000000000000000
:1001000000000000000000001702000817020008AD
:1001100055630008170200081702000817020008BC
:10012000170200081702000817020008170200084B
:10013000170200081702000817020008170200083B
:1001400017020008910C000817020008F93900088E
:10015000DFF80CD000F096FA0048004731A80008FC
:10016000B8FE0020224B19680868B0E8F00F80F351
:100170000988BFF36F8F4FF0000080F311884EF0B5
:100180000D0E70470000000006480068006880F30C
:10019000088862B661B6BFF34F8FBFF36F8F00DF81
:1001A00000BF00BF08ED00E0EFF30980BFF36F8FE1
:1001B0000F4B1A6820E9F00F106008B54FF0BF0030
:1001C00080F31188BFF34F8FBFF36F8F0BF022FBCB
:1001D0004FF0000080F31188BDE8084019680868F6
:1001E000B0E8F00F80F30988BFF36F8F704700BF4E
:1001F00088020020EFF30580704700000648804722
:1002000006480047FEE7FEE7FEE7FEE7FEE7FEE7FB
:10021000FEE7FEE7FEE7FEE7F149000851010008AE
:1002200040EA01039B0703D009E008C9121F08C078
:10023000042AFAD203E011F8013B00F8013B521EF8
:10024000F9D27047D2B201E000F8012B491EFBD26F
:1002500070470022F6E710B513460A4604461946D1
:10026000FFF7F0FF204610BD80EA010210B502F052
:100270000043400022D04A001FD0010E01EB126162
:10028000C0F35600C2F3560240F4000042F40002EC
:10029000A0FB022000047F39140400D0401C50EA67
:1002A000124001D44000491EC2B20C0604EBD0102B
:1002B000401C4008802A02D003E0002010BD20F03E
:1002C0000100002900DA0020184310BD2DE9FE4F7F
:1002D00081EA030404F0004421F0004100944FF04F
:1002E000000B23F0004350EA01045ED052EA0304FD
:1002F0005BD0C3F30A54C1F30A552C44A4F2F3347F
:100300000194A0FB0254C1F3130141F48011C3F323
:10031000130343F4801301FB024400FB034E840AE1
:10032000970A44EA815447EA8357A4FB0768029579
:100330008D0A05FB07854FEA932C04FB0C54270517
:10034000029D4FEA065847EA1637B5EB08056EEBF3
:10035000070C870E920E47EA811742EA8312A7FB29
:100360000201B6EB0B0164EB00042B0D43EA0C33E6
:100370005E1844EB1C50DA465146E7FB0201C5F318
:1003800013044FEA0B3343EA14534FEA0432019C3F
:1003900043EA0603A4F10C040294009CCDE900B4E6
:1003A00000F021F903B0BDE8F08F00200146F9E725
:1003B0002DE9F04D81EA030404F0004B21F00045E3
:1003C00014464FF0000A23F0004150EA050220D005
:1003D00054EA01021DD0C5F30A570246C5F31303C0
:1003E000C1F31300C1F30A5640F4801543F480139F
:1003F000A7EB0608101BD64608F2FD3873EB050084
:1004000002D308F1010801E092185B41B8F1000F36
:1004100003DA00200146BDE8F08D00204FF4801182
:10042000064684460EE0171B73EB050705D3121B27
:1004300063EB050306434CEA010C49084FEA300020
:1004400092185B4150EA0107EDD152EA030012D045
:1004500082EA040083EA0501084305D0101BAB4182
:1004600006D20122002306E000224FF0004302E002
:100470006FF0010253101AEB06004CEB085110EB21
:100480000A0041EB0B01BDE8F04D00F09DB80EB540
:1004900040F2334102910021CDE900110A460B469A
:1004A00000F0A1F803B000BD20F00040C10DC0F382
:1004B000160040F400007F2901DA002070479629D9
:1004C00003DCC1F19601C8407047963988407047F7
:1004D00000F0004230F000400AD0C10D01F560711B
:1004E000C0F3160042EA0151C208400711437047A9
:1004F00000200146704701F0004330B421F0004174
:1005000050EA010206D00A0DA2F56072C1F3130190
:10051000002A02DC30BC00207047440F44EAC104CA
:10052000C100E01830BC00EBC25000F016B830B586
:100530000B46014600202022012409E021FA02F5A1
:100540009D4205D303FA02F5491B04FA02F528443B
:10055000151EA2F10102F1DC30BD0029A8BF7047D1
:10056000401C490008BF20F00100704710B4B0FAE9
:1005700080FC00FA0CF050EA010404BF10BC704784
:1005800049B1CCF1200421FA04F411FA0CF118BF9E
:10059000012121430843A3EB0C01CB1D4FEA00616D
:1005A0004FEA102042BF002010BC704700EBC35040
:1005B00010440029A4BF10BC7047401C490008BF6C
:1005C00020F0010010BC704710B5141E73F1000438
:1005D00008DA401C41F1000192185B411A4301D135
:1005E00020F0010010BD2DE9F04D92469B4611B15F
:1005F000B1FA81F202E0B0FA80F22032904600F0C7
:1006000053F804460F4640EA0A0041EA0B015346FC
:100610005A46084313D0114653EA010019D0C8F1D5
:100620004002504600F04FF805460E4650465946E7
:10063000424600F039F8084305D0012004E0204686
:100640003946BDE8F08D0020054346EAE0762C43AC
:1006500037430A986305E40AA0EB08000022FD0A6C
:1006600044EA47540A3002D500200146E9E7010573
:1006700010196941DDE9084500196941BDE8F04DEF
:10068000A2E70000064C074D06E0E06840F00103D9
:1006900094E8070098471034AC42F6D3FFF75CFDAE
:1006A0009CC90008BCC90008202A04DB203A00FAD3
:1006B00002F1002070479140C2F1200320FA03F3B9
:1006C000194390407047202A04DB203A21FA02F0B7
:1006D0000021704721FA02F3D040C2F1200291407C
:1006E00008431946704770B58C1810F8015B15F077
:1006F000070301D110F8013B2A1106D110F8012B94
:1007000003E010F8016B01F8016B5B1EF9D12B07B8
:1007100005D40023521E0DD401F8013BFAE710F86E
:10072000013BCB1A921C03E013F8015B01F8015B5B
:10073000521EF9D5A142D8D3002070BD21B18268E4
:1007400042F00102826003E0826822F001028260CE
:10075000704721B1826842F48072826003E082684F
:1007600022F480728260704710B5044612488442B9
:1007700008D10121401503F093F90021601503F021
:100780008FF917E00D48844208D10121001503F0CC
:1007900087F90021201503F083F90BE00848844213
:1007A00008D10121C80303F07BF900214FF4004078
:1007B00003F076F910BD000000240140002801403C
:1007C000003C0140014600208A6802F004020AB1A0
:1007D000012000E000207047014600208A6802F0F6
:1007E00008020AB1012000E00020704730B502463F
:1007F0000020002350680F4C20400D790C6844EA1B
:1008000005242043506090680B4C2040D1E90254ED
:100810002C434D7944EA450420439060D06A20F48B
:1008200070000C7C641EE4B2234340EA0350D062A3
:1008300030BD0000FFFEF0FFFDF7F1FFF0B504460C
:100840000D4600200021092D11DDE068A5F10A0602
:1008500006EB4607072606FA07F18843A5F10A06C4
:1008600006EB460603FA06F10843E0600CE0206957
:1008700005EB4507072606FA07F1884305EB450611
:1008800003FA06F108432061072A0FDA606B561E4F
:1008900006EB86071F2606FA07F18843561E06EB6D
:1008A000860605FA06F10843606322E00D2A0FDA96
:1008B000206BD61F06EB86071F2606FA07F1884332
:1008C000D61F06EB860605FA06F10843206310E002
:1008D000E06AA2F10D0606EB86071F2606FA07F16D
:1008E0008843A2F10D0606EB860605FA06F10843D9
:1008F000E062F0BD816841F008018160704721B17C
:10090000826842F4A002826003E0826822F4A002BE
:1009100082607047816841F0040181607047000087
:1009200010B500200B49087009F010FD09F0B0FB6C
:10093000C8200AF0F9FE09F095FB0A200AF0F4FE3F
:1009400009F00EFD4FF496700AF0EEFE062003F05B
:10095000C9FF10BD8801002000B5ADF2044D012093
:100960001649087009F0F2FC09F092FBC8200AF061
:10097000DBFE09F077FB0A200AF0D6FE09F0F0FC56
:100980004FF496700AF0D0FE00BF4FF4806101A8CA
:10099000FFF75FFC0AA040F299230DA20FA100907F
:1009A00001A808F019FC01A805F0AEFC00BF072063
:1009B00003F098FF0DF2044D00BD000088010020F7
:1009C000626F6F74206E6F726D616C0D0A000000B3
:1009D0007372635C746573742E63000046696C65A2
:1009E0003A25732C4C494E453A25642C25732C002E
:1009F00000BFFEE730B589B004460121084603F088
:100A00003FF80121202003F03BF80121202003F0D2
:100A100037F80120ADF8200028208DF8230008A920
:100A20003D4802F04BF90220ADF8200018208DF867
:100A3000230003208DF8220008A9374802F03EF970
:100A400001214FF4EB1002F0C5F90121480602F034
:100A5000F7FF324800F0CCF9E07938B9012248F2CA
:100A60000E012E4800F0F4FA09B030BD05A800F0E0
:100A7000FAFB00208DF81A008DF81B008DF81C0081
:100A80008DF81D008DF81E0001208DF81F0000203C
:100A90008DF8160020798DF8170060798DF8180010
:100AA000A0798DF819009DF81700401C9DF81810CA
:100AB000491C01449DF81900401C0D181849206874
:100AC000B1FBF0F0B0FBF5F080B2ADF8140005A971
:100AD000124800F0C6FA00208DF80E008DF80F00C5
:100AE00001208DF810000020ADF80400ADF80600DC
:100AF000ADF80800ADF80A00ADF80C0001208DF843
:100B0000110001A800F090F9012248F20E010348FB
:100B100000F09EFA00BFA7E7001401400064004007
:100B20000051250200B587B0002001900421104833
:100B300000F0FEF918B104210D4800F005F9082174
:100B40000B4800F0F5F918B10821094800F0FCF84D
:100B500002AA0021064800F00EFB40F2FF71029845
:100B6000884203D30120019007B000BD00BFFBE71E
:100B70000064004030B589B004460121082002F02D
:100B80007FFF4FF48050ADF8200028208DF823001F
:100B900008A93C4802F092F84FF40050ADF820004C
:100BA00018208DF8230003208DF8220008A935486D
:100BB00002F084F80121880602F042FF324800F07A
:100BC00017F9E07938B9012248F270012E4800F097
:100BD0003FFA09B030BD05A800F045FB00208DF8B4
:100BE0001A008DF81B008DF81C008DF81D008DF883
:100BF0001E0001208DF81F0000208DF816002079BE
:100C00008DF8170060798DF81800A0798DF819001B
:100C10009DF81700401C9DF81810491C01449DF8D0
:100C20001900401C0D1819492068B1FBF0F0B0FB09
:100C3000F5F080B2ADF8140005A9134800F011FAE0
:100C40000E208DF80E0000208DF80F0001208DF889
:100C500010000020ADF80400ADF80600ADF8080063
:100C6000ADF80A000120ADF80C008DF8110001A8C4
:100C700000F0DAF8012248F27001034800F0E8F9C8
:100C800000BFA6E7000C01400068004000512502AB
:100C900000B585B04FF48061294800F049F920B1D2
:100CA0004FF48061264800F04FF82021244800F0DE
:100CB0003FF918B12021224800F046F84021204891
:100CC00000F036F918B140211D4800F03DF84FF40E
:100CD00000711B4800F02CF918B14021184800F0B1
:100CE00033F86A460121164800F045FA9DF80B00DA
:100CF000F0281FD19DF80C00F0281BD19DF80D00A5
:100D0000F02817D19DF80E00F02813D19DF80F00A0
:100D1000F0280FD19DF81000F0280BD19DF811009C
:100D2000F02807D19DF81200F02803D101200549D1
:100D3000087002E000200349087005B000BD000003
:100D400000680040DC000020B1F5007F3AD00FDCE5
:100D5000202928D006DC01291CD004291DD008290F
:100D600040D11DE0402921D0B1F5807F3AD126E065
:100D7000B1F5004F31D006DCB1F5806F25D0B1F56B
:100D8000006F2FD124E0B1F5803F12D0B1F5003FC4
:100D900028D111E0154A826025E00822C26022E0D5
:100DA0001022C2601FE0082202611CE010220261D2
:100DB00019E00822426016E01022426013E004228B
:100DC000426010E0042242600DE0042242600AE02A
:100DD000002282610422426005E000228261042236
:100DE000426000E000BF00BF704700000101010049
:100DF00010B504460B48844209D10121480602F08F
:100E00002FFE00214FF0007002F02AFE08E00121C1
:100E1000880602F025FE00214FF0806002F020FEDF
:100E200010BD00000064004010B50021837A01224B
:100E300002FA03F13D4A126842F001023B4B1A608C
:100E40003A4A1C3212688A43384B1C331A60027BC0
:100E5000CAB9364A0C3212688A43344B0C331A60D2
:100E60004288C38842EA0343304A4032847A42F8D7
:100E700034300288838842EA03432C4A4032847A21
:100E800002EBC4025360027B012A19D1274A0C32BB
:100E900012680A43254B0C331A604288038842EAE1
:100EA0000343224A4032847A42F83430C28883882D
:100EB00042EA03431D4A4032847A02EBC402536083
:100EC000C27A3AB9194A121D12688A43174B1B1D80
:100ED0001A6006E0154A121D12680A43134B1B1DC7
:100EE0001A60028932B9114A143212688A430F4BD0
:100EF00014331A600289012A06D10C4A143212688E
:100F00000A430A4B14331A60427B012A06D1074A6E
:100F10001C3212680A43054B1C331A60034A1268DC
:100F200022F00102014B1A6010BD00000066004073
:100F300070B504460D46002660692840002871D02F
:100F4000B5F5807F5CD010DC082D35D006DC012D96
:100F500020D0022D24D0042D72D127E0102D31D0C5
:100F6000202D35D0402D6BD138E0B5F5004F60D045
:100F700009DCB5F5007F49D0B5F5806F4CD0B5F5EB
:100F8000006F5DD14FE0B5F5803F2DD0B5F5003F46
:100F900056D12FE0A0682D4900F031FA064651E005
:100FA000E068032100F02BFA06464BE0E0680821D8
:100FB00000F025FA064645E0E068102100F01FFA2F
:100FC00006463FE02069032100F019FA064639E0A1
:100FD0002069082100F013FA064633E02069102149
:100FE00000F00DFA06462DE06068082100F007FACF
:100FF000064627E06068102100F001FA064621E06D
:10100000A069012100F0FBF906461BE0A06902215E
:1010100000F0F5F9064615E0A069042100F0EFF9AB
:1010200006460FE00FE0A069702100F0E8F90646DF
:1010300008E06068042100F0E2F9064602E0FFE7FC
:10104000002600BF00E00026304670BD010101000F
:101050001AB143690B43436102E043698B43436127
:10106000704730B5024600200023146824F00204C3
:101070001460146844F00104146000E05B1C5468C0
:1010800004F001041CB94FF6FF74A342F6D1546872
:1010900004F001040CB900206CE08C79012C04D11F
:1010A000146844F08004146003E0146824F08004A1
:1010B0001460CC79012C04D1146844F0400414600D
:1010C00003E0146824F0400414600C7A012C04D16D
:1010D000146844F02004146003E0146824F0200431
:1010E00014604C7A012C04D1146844F0100414608C
:1010F00003E0146824F0100414608C7A012C04D1ED
:10110000146844F00804146003E0146824F0080430
:101110001460CC7A012C04D1146844F004041460E7
:1011200003E0146824F0040414608C78A407CD78DC
:1011300044EA05640D7944EA05444D7944EA0554CE
:101140000D886D1E2C43D461146824F001041460D2
:10115000002300E05B1C546804F001041CB14FF64E
:10116000FF74A342F6D1546804F001040CB10020CE
:1011700000E0012030BD10B500F5D87303EB01137A
:101180001B6803F004031372137A53B900F5D87384
:1011900003EB01131B6840F2FF7404EA535313601E
:1011A00009E000F5D87303EB01131B686FF060448E
:1011B00004EAD303536000F5D87303EB01131B68F3
:1011C00003F00203537200F5D87303EB01135B685D
:1011D00003F00F03937200F5D87303EB01135B6800
:1011E0001B0AD37400F5D87303EB01139B68D37209
:1011F00000F5D87303EB01139B681C0A147300F508
:10120000D87303EB01139B681C0C547300F5D8735F
:1012100003EB01139B681B0E937300F5D87303EB6C
:101220000113DB68D37300F5D87303EB0113DB689C
:101230001C0A147400F5D87303EB0113DB681C0C53
:10124000547400F5D87303EB0113DB681B0E937421
:1012500021B9C36843F02003C36003E0036943F08E
:101260002003036110BD00218171C17101724172BF
:101270008172C1728170C1700321017102214171BB
:1012800001210180704710B502460020936803F0E9
:101290008063B3F1806F00D110E0936803F00063C6
:1012A000B3F1006F01D1012008E0936803F080538F
:1012B000B3F1805F01D1022000E00420042874D043
:1012C00002F5C07303EB00131B6803F0010402F581
:1012D000C07303EB00131C600B7A7BB94B7A0C884C
:1012E00043EA445302F5C07404EB0014246823431A
:1012F00002F5C07404EB0014236010E00B7A4C6814
:1013000043EAC4034C7A234302F5C07404EB00148F
:101310002468234302F5C07404EB001423608B7A25
:1013200003F00F038B7202F5C07303EB00135B68CD
:1013300023F00F0402F5C07303EB00135C6002F5A9
:10134000C07303EB00135B688C7A234302F5C0740F
:1013500004EB001463608B7B1C064B7B44EA034464
:101360000B7B44EA0323CC7A234302F5C07404EBDD
:101370000014A3608B7C1C064B7C44EA03440B7C6A
:1013800044EA0323CC7B234302F5C07404EB00142E
:10139000E36002F5C07303EB00131B6843F0010424
:1013A00002F5C07303EB00131C6010BD01460A6810
:1013B000C868805C70472DE9F04104460E462768F6
:1013C000002505E0204600F085FE7055681CC5B27A
:1013D000102DF7D32760BDE8F0812DE9F0410446D8
:1013E0000E462768002505E0204600F073FE705584
:1013F000681CC5B2102DF7D32760BDE8F081024606
:10140000002002EA01030BB1012000E00020704738
:1014100070B506460C4604F08000802808D104F020
:101420007F0000EB800106F58E7000EBC10507E040
:1014300004F07F0000EB800106F55D7000EBC10554
:1014400004F07F00287004F08000C009687029460D
:10145000304606F00AFB002070BD70B506460C460B
:1014600004F08000802808D104F07F0000EB8001A8
:1014700006F58E7000EBC10505E004EB840106F56E
:101480005D7000EBC1050020A87004F07F0028709B
:10149000C4F3C01068702946304606F0BEFA00203A
:1014A00070BD2DE9F04106460D4690461F4605F0F9
:1014B0008000802808D105F07F0000EB800106F550
:1014C0008E7000EBC10407E005F07F0000EB8001A7
:1014D00006F55D7000EBC10405F07F00207005F09B
:1014E0008000C0096070C4F80880E770607808B1B7
:1014F0002078E080022F01D1002020712146304663
:1015000006F03FFA0020BDE8F0812DE9F0410546E4
:101510000E461746984606F07F0000EB800105F561
:101520005D7000EBC104E760C4F814800020A06186
:10153000607006F07F002070E878012800D12761F4
:10154000207820B92146284606F03FF903E02146DD
:10155000284606F0EBFA0020BDE8F08108B500222D
:101560000092009A61F30A12009202691268009BCD
:101570001A4303691A6008BD70B506460C4604F0AC
:101580008000802808D104F07F0000EB800106F580
:101590008E7000EBC10505E004EB840106F55D707B
:1015A00000EBC1050120A87004F07F002870C4F38F
:1015B000C01068702946304606F086FA002070BDDB
:1015C0002DE9F04107460D461646984605F07F0086
:1015D00000EB800107F58E7000EBC1040120607004
:1015E00005F07F002070E66026610020A061C4F84D
:1015F0001480207820B92146384606F0E6F803E04A
:101600002146384606F092FA0020BDE8F08100003D
:1016100030B587B00546594C284606F09CF8684618
:1016200002F04EFA019CE868C0680590059820F425
:10163000705005900598E968C860284606F048FC97
:1016400003280BD10020A8704FF40070A8800598E3
:1016500020F4705000F5105005907EE00120A87035
:101660004020A8804648844209D34648844206D296
:10167000059820F4705000F5605005906DE04148E9
:10168000844209D34048844206D2059820F4705021
:1016900000F55050059060E03B48844209D33B4838
:1016A000844206D2059820F4705000F54050059011
:1016B00053E03648844209D33548844206D205981F
:1016C00020F4705000F53050059046E030488442D8
:1016D00009D33048844206D2059820F4705000F5B2
:1016E0002050059039E02B48844209D32A4884428F
:1016F00006D2059820F4705000F5105005902CE0AB
:101700002548844209D32548844206D2059820F40E
:10171000705000F5005005901FE02048844209D326
:101720001F48844206D2059820F4705000F5E0501E
:10173000059012E01A48844209D31A48844206D21E
:10174000059820F4705000F5C050059005E005980C
:1017500020F4705000F5A05005900598E968C86025
:1017600000200690069820F4005000F500500690E6
:101770000698E9684861012007B030BD007A030A85
:10178000C0E1E4000024F400E0EC040100C318010F
:10179000002D310140A44C0100366E0140E295015C
:1017A00080C3C90160600B02F8B505460024002023
:1017B0000090284606F0CDFB064681E006F00100C9
:1017C00000287BD0E1B2284600F00CFB0090009886
:1017D00000F0010030B3012000FA04F72869406BE3
:1017E000B8432969486300200090009820F0010068
:1017F000401C009005F1180050F824000099816009
:10180000E1B232480068426828469047E8780128EB
:1018100008D13CB940F21110405D042802D128469D
:1018200006F07EF80098C0F3C00060B10020009080
:10183000009820F008000830009005F1180050F8DA
:101840002400009981600098C0F3001060B100206E
:101850000090009820F010001030009005F1180062
:1018600050F82400009981600098C0F3801060B1A6
:1018700000200090009820F040004030009005F1DA
:10188000180050F82400009981600098C0F34000CF
:1018900060B100200090009820F00200801C0090B1
:1018A00005F1180050F82400009981600098C0F3F9
:1018B000C01018B12146284600F0BEFA641C760814
:1018C000002E7FF47BAF0120F8BD0000D80000207F
:1018D0007CB50446002500200190204606F041FB1F
:1018E00006466FE006F00100002869D0E9B2204604
:1018F00006F03FFB0190019800F00100C8B3002002
:101900000190019820F00100401C019004F1540066
:1019100050F8250001998160E078012817D104F181
:10192000540050F825000069009005EB850104F58E
:101930005D7000EBC10080680099C1F31201411A8B
:1019400005EB850204F55D7000EBC2008161E9B230
:101950001E480068026820469047E078012808D1B8
:101960003DB940F21110005D052802D1204605F076
:10197000D7FF0198C0F3400060B1002001900198AA
:1019800020F00200801C019004F1540050F8250062
:10199000019981600198C0F3C00088B10B480068CC
:1019A00081682046884700200190019820F00800B7
:1019B0000830019004F1540050F82500019981602D
:1019C0006D1C7608002E8DD101207CBDD800002032
:1019D0003EB50446A07A78B1D4F80C0100680090B6
:1019E000009820F002000090009820F00100009084
:1019F0000099D4F80C01016000200190019820F0BA
:101A00000100401C019020694068019988432169C8
:101A10004860094800688169204688470020029094
:101A2000029820F0004000F1004002900298E16826
:101A3000486101203EBD0000D80000207CB504466E
:101A400000200190019820F0100010300190E06813
:101A5000806901998843E1688861E068006A0090C4
:101A6000009800F00F0000EB800104F55D7000EBC2
:101A7000C1050098C0F3434007282DD2DFE800F0ED
:101A80002C04051D1E2C1F0027E00098C0F30A102F
:101A900090B10098C0F30A122046E96806F073FA84
:101AA000E8680099C1F30A110844E860A869009940
:101AB000C1F30A110844A8610FE00EE00DE008220E
:101AC00004F2CC51204606F05EFAA8690099C1F3F1
:101AD0000A110844A86100E000BF00BFE068806907
:101AE00001990843E168886101207CBD38B504464E
:101AF00008480068C1682046884700200090009888
:101B000020F00800083000900098E168486101204A
:101B100038BD0000D80000201FB50446002000900A
:101B20004FF48970005D00902348006841692046A9
:101B3000884720698068019000200390039820F472
:101B4000006000F5006003900398E1684861A07AA6
:101B500070B3019800F0010050B340F21510005D21
:101B6000012825D19DF80000032821D100200290F2
:101B7000029820F00100401C0290D4F80C0100688B
:101B800002990843D4F80C110860029820F0020072
:101B9000801C0290D4F80C01006802990843D4F824
:101BA0000C1108600548006840F006000349086011
:101BB000012004B010BD0000D800002010ED00E0AE
:101BC00030B587B00446002002900690059004903E
:101BD00003900190029820F00100401C02902069BF
:101BE000406802998843216948600021204606F038
:101BF00045F900250BE0FF2104F1180050F82500FD
:101C0000816004F1540050F8250081606D1C6078FB
:101C1000A842F0D84FF0FF312069816106986FF338
:101C20000F00401C0690069880B200F580300690A8
:101C300006992069C161059820F0080008300590D8
:101C4000059820F00100401C0590059820F0020046
:101C5000801C0590059920694161049820F00100DD
:101C6000401C0490049820F0080008300490049868
:101C700020F00200801C0490049920690161206911
:101C800000680390039820F4FE6003900399206994
:101C90000160204605F044FE00200190019820F4E8
:101CA000805000F5805001900198E1684861044837
:101CB0000068016920468847012007B030BD000058
:101CC000D80000202DE9F04106460F46394630463F
:101CD00006F06EF901214FF4897081550021801CB6
:101CE0008155002511E005EB850106F58E7000EBAE
:101CF000C104012060702570E5800020E070402064
:101D0000A0600020E06060616D1C7078A842EAD895
:101D1000002510E005EB850106F55D7000EBC104C0
:101D2000002060702570E580E0704020A0600020F9
:101D3000E06060616D1C7078A842EBD8304605F019
:101D4000F9FC304605F029FB0021304606F098F9F1
:101D5000304605F0AFFB304606F059F8BDE8F0819B
:101D600038B504460020009007480068C169204645
:101D70008847009820F4801000F5801000900098AB
:101D8000E1684861012038BDD800002038B504461C
:101D90000020009007480068016A204688470098A4
:101DA00020F4001000F5001000900098E1684861F0
:101DB000012038BDD800002038B50446E0684068EE
:101DC00000900098C0F3800020B105480068816A47
:101DD000204688470098E1684860012038BD00002F
:101DE000D800002030B5024615692B6915696C6B67
:101DF00024FA01F505F0010543EAC51302F11805BF
:101E000055F82150AD6805EA030030BD38B50446E9
:101E100008480068416A20468847002000900098E2
:101E200020F0804000F1804000900098E168486117
:101E3000012038BDD80000202DE9F84306460F46A2
:101E400000250020009007EB870106F58E7000EB5F
:101E5000C104D4E90501451AA068A84200D2A568CA
:101E6000E81C4FEA900906F1180050F82700806935
:101E7000009029E0D4E90501451AA068A84200D2E3
:101E8000A568E81C4FEA9009ABB2FAB23046E168A7
:101E900006F01DF9E0682844E060A0692844A061CC
:101EA00006F1180050F8270080690090D4E9050178
:101EB000884209D12178012000FA01F83069406B8D
:101EC00020EA080031694863009880B2484506D985
:101ED000D4E90510884202D260690028CAD10120E5
:101EE000BDE8F88300F0805111B10349086001E0BA
:101EF00002494860704700000404024000000240AC
:101F000021B1026842F00102026004E002684FF66B
:101F1000FE731A400260704701684FF6FE7211406E
:101F200001600021016041608160C1604B498842CD
:101F300008D14A490839496841F00F01474A083A2F
:101F400051608AE045491431884208D14349083933
:101F5000496841F0F001414A083A51607DE03F494B
:101F60002831884208D13D490839496841F47061F7
:101F70003A4A083A516070E038493C31884208D109
:101F800036490839496841F47041344A083A516089
:101F900063E032495031884208D1304908394968F4
:101FA00041F470212D4A083A516056E02B496431C2
:101FB000884208D129490839496841F47001274A03
:101FC000083A516049E025497831884208D12349CF
:101FD0000839496841F07061204A083A51603CE094
:101FE0001F49884206D1011F096841F00F01021FF5
:101FF000116032E01A491431884208D11849091F8A
:10200000096841F0F001164A121F116025E01449D9
:102010002831884208D11249091F096841F47061CA
:102020000F4A121F116018E00D493C31884208D157
:102030000B49091F096841F47041094A121F1160D8
:102040000BE007495031884207D10549091F09684B
:1020500041F47021024A121F1160704708000240CB
:10206000080402400146486880B2704701460020DB
:10207000002201F0805313B1054B1A6801E0054BB3
:102080001A6802EA01030BB1012000E0002070474A
:10209000000402400000024010B50022026847F62A
:1020A000F0739A430C6A8B6823430C6923434C6991
:1020B00023438C692343CC6923434C6A23438C6AB2
:1020C00023431A430260CB6843600B6883604B680C
:1020D000C36010BD01460B68CA68D05C0A68521C18
:1020E0000A608B680A689A4201D300220A6070472E
:1020F0007047000010B501F033F90848FEF77AFC8C
:102100000648FEF737FD08F035F901F0E8FB08F066
:102110005DF907F0BDFF08F0C1F910BD9401002082
:102120004368C268D1544268521C4260D0E901231E
:102130009A4201D30022426070472DE9F0410446E3
:102140000F461546204600F06AF8A168081AA84212
:1021500002D80020BDE8F081D4E9000188420AD904
:102160006268E16888182A463946FEF759F86068BF
:102170002844606021E0D4E90110401AA8420AD93D
:102180006268E16888182A463946FEF749F86068AF
:102190002844606011E02089A188401A86B26268F4
:1021A000E168881832463946FEF73AF8AA1BB91991
:1021B000E068FEF735F8A81B60600120CAE7000060
:1021C00010B500240023022204210E4806F01CFF53
:1021D00008B9002010BD002408E00021642009F0A7
:1021E00049FB012800D103E0601CC4B2052CF4DBDC
:1021F00000BF002004490860052C00DBEAE701204D
:10220000E8E70000200200205402002000B5034649
:10221000184600F004F81989081A80B200BD01467A
:10222000D1E90020904204D388880A88801A80B2BD
:10223000704788880A8910440A88801A80B2F7E7B4
:1022400038B504460121402001F01AFC3820ADF8D1
:10225000000010208DF8030003208DF8020069466D
:102260001C4800F02BFDE07901280CD120211948F1
:1022700000F0F8FD0821174800F0F6FD4FF47A70E1
:1022800009F052FA25E02021124800F0EDFD64200B
:1022900009F04AFA08210F4800F0E4FD0A2009F08D
:1022A00043FA08210B4800F0DFFD4FF4FA7009F003
:1022B0003BFA1021074800F0D5FD4FF47A7009F081
:1022C00033FA1021034800F0CFFD4FF47A7009F083
:1022D0002BFA38BD0018014010B5ADF5816D102105
:1022E000C80500F001F91648016816A003F0D8FFF0
:1022F00013480068112803D201200DF5816D10BD2F
:10230000012406E01148005DFF2801D00120F4E718
:10231000641C112CF6D300BF4FF4806102A8FDF7B6
:1023200098FF0BA09D230EA210A1009002A806F01A
:1023300053FF02A803F0E8FF00BF0020DDE7000024
:1023400070020020726376206E756D00B0730020FD
:10235000446F206E6F74206572617365200D0A00F2
:102360007372635C6669726D2E63000046696C650A
:102370003A25732C4C494E453A25642C25732C0084
:1023800010B582200949087008460078C0F1FF00A6
:1023900048700221054800F0BBFAC821002000F077
:1023A000EBFB08B9012010BD0120FCE7B073002051
:1023B00000B5ADF2044D44202F490870084600785E
:1023C000C0F1FF00487002212B4800F0A1FA14214F
:1023D0004FF4967000F0D0FBA8B900BF4FF48061B5
:1023E00001A8FDF736FF25A07E232BA22DA100908A
:1023F00001A806F0F1FE01A803F086FF00BF00204F
:102400000DF2044D00BDFF201B49087048700020EC
:1024100088700321184800F07BFA642148F2E80034
:1024200000F0AAFB98B900BF4FF4806101A8FDF746
:1024300010FF21A0872318A21AA1009001A806F07E
:10244000CBFE01A803F060FF00BF0020D8E700BF6B
:102450004FF4806101A8FDF7FCFE1DA08A230EA2A7
:1024600010A1009001A806F0B7FE01A803F04CFFF0
:1024700000BF0120C4E70000B07300205752495448
:102480004520455241534520434D44202C204E4F7A
:102490002041434B0D0A00007372635C6669726DE4
:1024A0002E63000046696C653A25732C4C494E45F5
:1024B0003A25642C25732C00457261736520464CC7
:1024C000415348206661696C6564200D0A00000074
:1024D000457261736520636F646520636F6D706C16
:1024E000657465200D0A000030B5ADF2044D044658
:1024F0000D4600BF4FF4806101A8FDF7AAFE45A07C
:10250000A62347A249A1009001A806F065FE01A8F4
:1025100003F0FAFE00BF1120494908700846007810
:10252000C0F1FF0048700221454800F0F1F9002198
:10253000084600F021FB18B900200DF2044D30BD13
:1025400000BF4FF4806101A8FDF783FE3DA0AF23DB
:1025500033A236A1009001A806F03EFE01A803F0C8
:10256000D3FE00BF200E36490870200C4870200AA8
:102570008870CC700846007849784840304989789E
:1025800048402F49C97848402D49087105212C48F9
:1025900000F0BEF90021084600F0EEFA08B900206C
:1025A000CBE700BF4FF4806101A8FDF752FE29A0E0
:1025B000BB231BA21DA1009001A806F00DFE01A8DF
:1025C00003F0A2FE00BF681E1D490870084600788F
:1025D000C0F1FF0048700221194800F099F9142158
:1025E000C82000F0C9FA08B90020A6E700BF4FF4E0
:1025F000806101A8FDF72DFE19A0C42308A20BA13C
:10260000009001A806F0E8FD01A803F07DFE00BFE0
:10261000012092E77265616420636D64200D0A00F9
:102620007372635C6669726D2E63000046696C6547
:102630003A25732C4C494E453A25642C25732C00C1
:10264000B0730020726561642061646472200D0AB9
:102650000000000072656164206E756D200D0A0037
:1026600072656164206F6B200D0A00002DE9F04156
:10267000ADF5816D80460D461646312048490870FB
:1026800008460078C0F1FF0048700221444800F07D
:102690003FF900214FF4967000F06EFAB0B900BF18
:1026A0004FF4806102A8FDF7D4FD3EA0EC2343A2C5
:1026B00045A1009002A806F08FFD02A803F024FEB9
:1026C00000BF00200DF5816DBDE8F081280E344972
:1026D0000870280C4870280A8870CD700846007869
:1026E000497848402E49897848402D49C978484062
:1026F0002B49087105212A4800F00AF900214FF4FE
:10270000967000F039FA98B900BF4FF4806102A8C2
:10271000FDF79FFD31A0F82328A22BA1009002A86D
:1027200006F05AFD02A803F0EFFD00BF0020C9E744
:10273000701E1B49087008460778002408E018F846
:102740000410174A601C11541146085C4740641C71
:10275000B442F4D31249701C0F54B01C81B210481B
:1027600000F0D6F800214FF4967000F005FAA0B9F9
:1027700000BF4FF4806102A8FDF76BFD1DA040F281
:1027800007130EA210A1009002A806F025FD02A8D2
:1027900003F0BAFD00BF002094E7012092E700009B
:1027A000B0730020575249544520434D44202C20FB
:1027B0004E4F2041434B0D0A000000007372635CD2
:1027C0006669726D2E63000046696C653A25732C4C
:1027D0004C494E453A25642C25732C0057524954D8
:1027E000452041444452202C204E4F2041434B0D64
:1027F0000A00000057524954452044415441202CBE
:10280000204E4F2041434B0D0A00000000B5ADF2B1
:10281000044D07F03DFC244801F0A2FF00BF4FF437
:10282000806101A8FDF715FD20A04FF4D27325A209
:1028300027A1009001A806F0CFFC01A803F064FDD9
:1028400000BF00F08BF81421002000F095F9B0B91A
:1028500000BF4FF4806101A8FDF7FBFC21A040F20E
:10286000A71318A21AA1009001A806F0B5FC01A8B0
:1028700003F04AFD00BF00200DF2044D00BD00BF73
:102880004FF4806101A8FDF7E4FC1CA04FF4D57360
:102890000CA20FA1009001A806F09EFC01A803F075
:1028A00033FD00BF0120E7E768400020426F6F74EE
:1028B00020696E204669726D206D6F6465200D0A77
:1028C000000000007372635C6669726D2E63000025
:1028D00046696C653A25732C4C494E453A25642C63
:1028E00025732C004669726D206D6F6465206E6FD4
:1028F00074205265616479200D0A00004669726D8A
:10290000206D6F6465205265616479200D0A0000B6
:1029100070B505460E460F48007838B102E0012038
:1029200008F002FF08F09AFC0028F8D001200949BD
:10293000087005B970BD002403E0285D06490855FC
:10294000641CB442F9D33146034808F0A7FC00BF29
:10295000F0E70000D70100201852002010B57F20BA
:102960000349087001210248FFF7D2FF10BD0000A3
:10297000B073002000B5ADF2044D4F4801F0F0FEF9
:1029800000BF4FF4806101A8FDF763FC4BA040F24B
:102990005B134DA24FA1009001A806F01DFC01A8F9
:1029A00003F0B2FC00BFFFF7D9FF0A21002000F0BE
:1029B000E3F8B0B900BF4FF4806101A8FDF749FC0E
:1029C00049A04FF4AF7340A242A1009001A806F0C5
:1029D00003FC01A803F098FC00BF00200DF2044D99
:1029E00000BD00BF4FF4806101A8FDF732FC43A099
:1029F00040F2611334A237A1009001A806F0ECFB6D
:102A000001A803F081FC00BF00BF4FF4806101A862
:102A1000FDF71FFC3EA040F265132BA22DA10090F4
:102A200001A806F0D9FB01A803F06EFC00BFFFF778
:102A300053FC00283DD000BF4FF4806101A8FDF792
:102A400008FC3DA040F267131FA222A1009001A83C
:102A500006F0C2FB01A803F057FC00BFFFF7A8FC7B
:102A600090B100BF4FF4806101A8FDF7F2FB37A0E1
:102A700040F2691314A217A1009001A806F0ACFB64
:102A800001A803F041FC14E000BF4FF4806101A8ED
:102A9000FDF7DFFB33A040F26B130BA20DA10090FA
:102AA00001A806F099FB01A803F02EFC00BF00204E
:102AB00094E7012092E70000684000204669726DAB
:102AC00054657374200D0A007372635C6669726DDD
:102AD0002E63000046696C653A25732C4C494E45BF
:102AE0003A25642C25732C004669726D537461720B
:102AF00074206661696C65640D0A00004669726D38
:102B0000537461727420737563636573730D0A0087
:102B10005374617274204669726D436865636B43D8
:102B20006F64654E65656445726173652056203338
:102B30002E300D0A0000000053746172742065721B
:102B400061736520636F6465200D0A0045726173CF
:102B500065204669726D20737563636573730D0A32
:102B6000000000004572617365204669726D206641
:102B700061696C65640D0A0070B5ADF5816D05463F
:102B80000E46002036490870642D01DA642400E006
:102B90002C4634E000BF4FF4806102A8FDF759FBDA
:102BA00030A040F2B91330A232A1009002A806F082
:102BB00013FB02A803F0A8FB00BF012C00D9641E80
:102BC0002748007800B11BE0012C15D100BFA102FD
:102BD00002A8FDF73EFB2CA040F2C11322A225A1C2
:102BE000009002A806F0F8FA02A803F08DFB00BFDF
:102BF00000200DF5816D70BD0A2008F095FDC9E734
:102C000000BF1EB9012008F08FFD02E0304608F039
:102C10008BFD2149214801F07FFA214908601E48B7
:102C20000078792801D10120E3E700BF4FF48061EB
:102C300002A8FDF70EFB1BA040F2D1130AA20DA1C2
:102C4000009002A806F0C8FA02A803F05DFB00BFDE
:102C50001148017816A003F023FB0020C9E700000B
:102C6000D4010020400000007372635C6669726DDD
:102C70002E63000046696C653A25732C4C494E451D
:102C80003A25642C25732C0041434B2074696D65F3
:102C90006F75740D0A000000B073002068400020BA
:102CA0007002002041434B204572726F720D0A0082
:102CB00061636B2076616C75650000002DE9F04161
:102CC000024600250026002000230024002791F85A
:102CD00003C00CF00F0591F803C00CF0100CBCF110
:102CE000000F03D091F802C04CEA050591F800C02E
:102CF000BCF1000F31D0146800202BE04FF0010C24
:102D00000CFA00F3B1F800C00CEA03069E4220D191
:102D100083004FF00F0C0CFA03F7BC4305FA03FCD9
:102D20004CEA040491F803C0BCF1280F06D14FF01F
:102D3000010C0CFA00FCC2F814C00AE091F803C0C0
:102D4000BCF1480F05D14FF0010C0CFA00FCC2F8A1
:102D500010C0401C0828D1D31460B1F800C0BCF1E9
:102D6000FF0F34DD546800202EE000F1080C4FF016
:102D7000010808FA0CF3B1F800C00CEA03069E4201
:102D800021D183004FF00F0C0CFA03F7BC4305FA76
:102D900003FC4CEA040491F803C0BCF1280F05D1F0
:102DA00000F1080C08FA0CF8C2F8148091F803C07E
:102DB000BCF1480F07D100F1080C4FF0010808FAE8
:102DC0000CF8C2F81080401C0828CED35460BDE82F
:102DD000F0810000F0B50A46002300240021002500
:102DE00000F00046B6F1004F02D11D4EF16901E03E
:102DF0001B4E7168C0F3034583B200F44016B6F56C
:102E0000401F08D121F07061154E766826F070667B
:102E1000134F7E6012E000F48016B6F5801F06D1D5
:102E2000032606FA05F4A14341F0706106E0460D61
:102E3000360103FA06F6B14341F0706122B1460D46
:102E4000360103FA06F6314300F00046B6F1004FB2
:102E500002D1034EF16101E0014E7160F0BD00004E
:102E6000000001404161704701617047F0B50246C2
:102E70000B46002000210CE012F8016BCFB286EA6D
:102E8000070585EA1064044E56F8246086EA00209F
:102E9000491C9942F0D3F0BD8CC500080148007868
:102EA00070470000D60100200148007870470000FC
:102EB000D501002010B500230D220821114806F08D
:102EC000A3F808B9002010BD0F488179407901EBC3
:102ED00000200E4908800C48017AC07901EB0020DF
:102EE0000B490860094801880AA003F0D9F908488D
:102EF00001680BA003F0D4F902210C4802F092F90A
:102F00000120E0E718020020745F00204E0200203C
:102F100050020020626C6F636B2073697A65000059
:102F2000626C6F636B206E756D0000002C020020D8
:102F300010B500230D220821114806F065F808B9E4
:102F4000002010BD0F488179407901EB00200E4927
:102F500008800C48017AC07901EB00200B49086019
:102F6000094801880AA003F09BF9084801680BA0F2
:102F700003F096F902210C4802F054F90120E0E731
:102F800010020020745F00204E020020500200203A
:102F9000626C6F636B2073697A650000626C6F63AB
:102FA0006B206E756D0000002C02002070B50A4881
:102FB0000468801C0568801C0668344454B10822EB
:102FC0000649204600F072FA0422044910312846CE
:102FD00000F06CFA70BD0000E8F7FF1F52010020FE
:102FE00070B506463048007800285BD12F4800684D
:102FF000B0F5006F02D100202C4908602B48006812
:103000002B490968884203D100202749087070BD08
:103010002648006826490968884206D9234800687E
:10302000C0F500602349086006E0214800681F4998
:103030000968401A1F4908601E480068402811D9D5
:103040001A48008885B24024184800684030174963
:103050000860184800684038164908600120124985
:10306000087018E01148008885B21248008884B2C0
:103070000E4800680F49096808440C4908600020A0
:103080000C490860402C03D102200749087002E077
:10309000012005490870084842192346812130461D
:1030A000FEF78EFA00BFB2E71800002010000020E3
:1030B0000C000020140000204810002000BFFEE794
:1030C00010B586B04FF4404000F09EFC4048FDF73C
:1030D0004BFB0121480200F0D3FC0121084600F01F
:1030E0009FFC00F079F8002404E00020394921F821
:1030F0001400641C902CF8D307F0D0FA0020019043
:1031000001208DF808008DF809004FF4602003902D
:103110000020049009208DF8140001A92C48FDF727
:1031200065FB062301220A212948FDF787FB0623B8
:1031300002220B212648FDF781FB062303220C21E6
:103140002348FDF77BFB062304220D212048FDF7D1
:1031500075FB0623052201211D48FDF76FFB0623A1
:103160001A460E211A48FDF769FB002307220F219A
:103170001748FDF763FB0023082211461448FDF7AA
:103180005DFB0023092211461148FDF757FB012181
:103190000F48FDF7DEFA01210D48FDF7CFFA0C4884
:1031A000FDF7A8FB00BF0A48FDF716FB0028FAD17F
:1031B0000748FDF7AFFB00BF0548FDF703FB0028FC
:1031C000FAD101210248FDF79AFB06B010BD0000BC
:1031D000002401407C0A002008B50121102000F0E5
:1031E0001FFC0121082000F01BFC0121042000F03D
:1031F00017FC0120ADF8000000208DF8030001202D
:103200008DF8020069461E48FFF758FD0220ADF810
:10321000000069461A48FFF751FD0420ADF8000090
:1032200069461748FFF74AFD0820ADF800006946D7
:103230001348FFF743FD1020ADF800006946104821
:10324000FFF73CFD0220ADF8000069460D48FFF78E
:1032500035FD2020ADF8000069460948FFF72EFD36
:103260000120ADF8000069460748FFF727FD02205E
:10327000ADF8000069460448FFF720FD08BD0000D6
:103280000010014000080140000C01400023436091
:1032900003608260C160704710B5002204211420D1
:1032A00008F048FE0749086040F6C802064907488A
:1032B000FFF7ECFF40F6C80205490648FFF7E6FFB6
:1032C00010BD0000D00100205049002068400020BF
:1032D000884000207840002010B54FF40062094972
:1032E0000948FFF7D3FF4FF4A05208490848FFF7F9
:1032F000CDFF00220421142008F01CFE05490860BF
:1033000010BD000048100020482C00204818002064
:10331000582C0020C801002010B5FFF7DDFFFFF793
:10332000BBFF0B480B49086000200871082048715A
:10333000072088710120C8710748084908600020EB
:10334000087108204871072088710120C87110BDDC
:1033500020A107008C010020A0860100940100201C
:1033600008B50121042000F08BFB0121082000F0AA
:1033700087FB0121102000F083FB0121202000F0B9
:103380007FFB4FF48060ADF8000010208DF8030043
:1033900003208DF8020069464148FFF78FFC4FF487
:1033A0000060ADF8000069463D48FFF787FC4FF428
:1033B0008050ADF8000069463948FFF77FFC4FF4B4
:1033C0000050ADF8000069463548FFF777FC4FF430
:1033D0008040ADF8000069463148FFF76FFC4FF4BC
:1033E0000040ADF8000069462D48FFF767FC40201B
:1033F000ADF8000069462B48FFF760FC8020ADF86F
:10340000000069462748FFF759FC4FF480612448C3
:10341000FFF728FD4FF400612148FFF723FD4FF42B
:1034200080511F48FFF71EFD4FF400511C48FFF765
:1034300019FD4FF480411A48FFF714FD4FF4004185
:103440001748FFF70FFD40211648FFF70BFD8021BD
:103450001448FFF707FD4FF40070ADF8000010208E
:103460008DF8030003208DF8020069460E48FFF72F
:1034700025FC4FF400710C48FFF7F4FC0420ADF874
:10348000000010208DF8030001208DF8020069462D
:103490000348FFF713FC04210148FFF7E3FC08BDD4
:1034A0000014014000100140000C014030B50B46F3
:1034B000002100BF16E00A24B4EB107F05D93024A8
:1034C00004EB107403F8114005E0412404EB107480
:1034D0000A3C03F81140000100254C00641C1D55F6
:1034E0004C1CE1B29142E6DB30BD000010B508F0A3
:1034F00005FF044609480068201AB0F5967F0CD9EC
:103500000748006880F48060054908600846006844
:1035100080F4006008600148046010BD640200206F
:103520000C14014010B590B00121102000F0A8FA51
:103530004FF47A7008F0F8F80023022208213B4883
:1035400005F062FD10B9002010B010BD002427E086
:103550004FF48060ADF8000010208DF803000320C8
:103560008DF8020069463248FFF7A8FB4FF48061EE
:103570002F48FFF777FC4FF47A7006F0CFFE00215A
:10358000022008F077F9012800D10BE04FF48061A8
:103590002748FFF769FC012008F0C6F8601CC4B298
:1035A000052CD5DB00BF052C01DB0020CCE74FF458
:1035B0008060ADF8000018208DF8030003208DF81E
:1035C000020069461A48FFF779FB1A48FEF7A4FC87
:1035D00019480590002006901020079000200890C0
:1035E000099080200A9000200B900C900D904FF4D1
:1035F00000500E9000200F9005A90E48FEF74CFDDC
:103600004FF4612001900020ADF80800ADF80A00E9
:10361000ADF80C00ADF810000C20ADF80E00012143
:103620000448FEF76DFC01208EE700002402002014
:103630000010014058040240044C004000BFFEE767
:103640002DE9F041ADF5816D06460F460024B088A6
:10365000273020F01F08404607F0EEFB0446002C00
:103660001AD100BF4FF4806101A8FCF7F2FD1CA045
:1036700040F22A2320A223A1009001A805F0ACFD6E
:1036800001A802F041FE00BF414623A002F008FE5F
:103690000DF5816DBDE8F08125460220A871EF711E
:1036A0000020A88004F108002860B288314628680C
:1036B000FCF7B6FDCDF80444012F0DD100231422F0
:1036C0000DF204411748006808F02EFD012802D0D1
:1036D000204608F013F800E000BF00BF00BFD7E7A6
:1036E0004D616C6C6F63206D7367616464722065FB
:1036F00072726F72210D0A007372635C7465737469
:103700002E63000046696C653A25732C4C494E4582
:103710003A25642C25732C006D616C6C6F632073EB
:10372000697A6500C80100202DE9F047ADF5816D8B
:10373000054689460024AA4600BF4FF4806101A8CF
:10374000FCF787FD42A040F2C31346A249A10090B6
:1037500001A805F041FD01A802F0D6FD00BFA87A3E
:10376000012814D1E87A202802D0E87A21280ED145
:103770009AF808109AF8090001EB002707F12700D2
:1037800020F01F08404607F057FB044608E0AF88CA
:1037900007F1270020F01F08404607F04DFB0446C4
:1037A000002C1AD100BF4FF4806101A8FCF751FD35
:1037B00035A04FF4E9732BA22EA1009001A805F0CB
:1037C0000BFD01A802F0A0FD00BF414639A002F0A8
:1037D00067FD0DF5816DBDE8F08726460120344672
:1037E000B07186F807900020B08004F108003060C6
:1037F00000BF4FF4806101A8FCF72BFD31A040F21F
:10380000DD1318A21BA1009001A805F0E5FC01A89A
:1038100002F07AFD00BF3A4629463068FCF700FD09
:10382000CDF80444B9F1020F0DD1002314220DF29A
:1038300004412948006808F077FC012802D020469E
:1038400007F05CFF00E000BF00BF00BFC1E7000061
:103850004D736753656E6446726F6D5573622030A9
:10386000000000007372635C7573625F636F6D6D5F
:103870002E63000046696C653A25732C4C494E4511
:103880003A25642C25732C004D736753656E64468E
:10389000726F6D557362203A204D616C6C6F6320BE
:1038A0006D736761646472206572726F72210D0AB4
:1038B000000000004D616C6C6F632073697A6520B5
:1038C000000000004D736753656E6446726F6D555E
:1038D0007362203130000000D0010020704708B52D
:1038E0004FF4407000F07EF81C208DF800000C2092
:1038F0008DF8010000208DF8020001208DF80300F2
:10390000684600F037F843208DF800000D208DF850
:10391000010000208DF8020001208DF803006846A8
:1039200000F028F814208DF800000E208DF801001A
:1039300000208DF8020001208DF80300684600F099
:1039400019F841208DF800000F208DF801000120AA
:103950008DF80300684600F00DF834208DF8000063
:103960000B208DF8010001208DF80300684600F05F
:1039700001F808BD70B5002100230F22C47804B3FC
:10398000154C246804F4E064C4F5E064210AC1F134
:103990000403CA40447804FA03F1847814402143B4
:1039A00009010E4C0678A155047804F01F05012486
:1039B000AC4005786D11AD0005F1E025C5F800417A
:1039C00009E0047804F01F050124AC40044D06789A
:1039D000761145F8264070BD0CED00E000E400E0F3
:1039E00080E100E002490143024A11607047000093
:1039F0000000FA050CED00E010B5024803F0BCF839
:103A000010BD00005404002001460020034A506805
:103A100020F440400843506070470000001002400E
:103A200029B1064A52690243044B5A6104E0034A31
:103A300052698243014B5A617047000000100240F6
:103A400029B1064AD2690243044BDA6104E0034A11
:103A5000D2698243014BDA617047000000100240D6
:103A600029B1064A12690243044B1A6104E0034A71
:103A700012698243014B1A61704700000010024036
:103A800029B1064A92690243044B9A6104E0034A51
:103A900092698243014B9A61704700000010024016
:103AA00029B1064AD2680243044BDA6004E0034AB3
:103AB000D2688243014BDA60704700000010024078
:103AC0002DE9F041002100220025002300260024DA
:103AD00000278C46DFF86081D8F8048008F00C01DC
:103AE00021B1042907D0082959D109E0DFF84C8118
:103AF000C0F8008058E0DFF84881C0F8008053E04B
:103B0000DFF83481D8F8048008F47012DFF82881D7
:103B1000D8F8048008F48035920C0D2A01D0921C4C
:103B200000E0062235B9DFF81C8102FB08F8C0F876
:103B3000008033E0DFF80081D8F82C8008F480366C
:103B4000DFF8F480D8F82C8008F00F0808F10104A1
:103B500046B9DFF8EC80B8FBF4F808FB02F8C0F8CF
:103B600000801BE0DFF8D080D8F82C80C8F3031861
:103B700008F10107DFF8C080D8F82C80C8F30328CB
:103B800008F1020CDFF8B880B8FBF7F808FB0CF876
:103B9000B8FBF4F808FB02F8C0F8008004E0DFF896
:103BA0009C80C0F8008000BF00BFDFF88C80D8F890
:103BB000048008F0F0010909DFF88C8018F8013062
:103BC000D0F8008028FA03F8C0F80480DFF8688095
:103BD000D8F8048008F4E061090ADFF86C8018F86E
:103BE0000130D0F8048028FA03F8C0F80880DFF824
:103BF0004880D8F8048008F46051C90ADFF848808A
:103C000018F80130D0F8048028FA03F8C0F80C80C6
:103C1000DFF82480D8F8048008F44041890BDFF8ED
:103C20002C8018F80130D0F80C80B8FBF3F8C0F8FD
:103C30001080BDE8F08100000010024000127A0000
:103C400000366E0100093D0074020020840200204D
:103C50000149086070470000D800424210B5ADF538
:103C6000816D002402202549C8732120C8720020DC
:103C70008870032408E0214880782049095D0844C1
:103C80001E498870601CC4B2102CF4DB0023022291
:103C900010211A4805F0B8F918B900200DF5816D0A
:103CA00010BD40F6B83007F03FFD002406E007F0F5
:103CB0009FFE012800D103E0601CC4B2052CF6DB96
:103CC00000BF052C14DB00BF4FF4806102A8FCF795
:103CD000C0FA0BA04FF41D6314A217A1009002A814
:103CE00005F07AFA02A802F00FFB00BF0020D5E72A
:103CF0000221164801F096FA0120CFE73E0200208B
:103D00000D0A0D0A434D4420474554205354415455
:103D10005553203A20657261736520666C61736843
:103D2000206661696C65640D0A0000007372635C53
:103D3000746573742E63000046696C653A25732CB4
:103D40004C494E453A25642C25732C002C0200204A
:103D500010B5ADF5816D4FF47A7007F0E5FC0020E9
:103D600021498870032408E01F4880781E49095DB6
:103D700008441D498870601CC4B2102CF4DB002379
:103D800002221021184805F03FF918B900200DF55E
:103D9000816D10BD002406E007F02AFE012800D145
:103DA00003E0601CC4B2052CF6DB00BF052C14DB5D
:103DB00000BF4FF4806102A8FCF74BFA0BA040F65D
:103DC0003C1315A217A1009002A805F005FA02A85D
:103DD00002F09AFA00BF0020D9E70221164801F04C
:103DE00021FA0120D3E700002E0200200D0A0D0A5F
:103DF000434D442047455420535441545553203A91
:103E0000206572617365207372616D206661696CF3
:103E100065640D0A000000007372635C746573745E
:103E20002E63000046696C653A25732C4C494E455B
:103E30003A25642C25732C002C020020F0B5ADF23D
:103E4000044D064600240027B07C1030F17C00EBC6
:103E50000120471E380A3F4908704F702D20C87056
:103E600000200871487188710220C8713A480078B2
:103E7000C87239480088000A887237480068000C08
:103E8000487235480068000E0872B17CF07C01EB86
:103E900000253049CD73280A8873280C4873280EF2
:103EA000087300BF07E004F11800315C0838294AA4
:103EB0001154601C84B2AC42F5D3002025498870AF
:103EC000032408E0234880782249095D08442149F9
:103ED0008870601C84B205F11000A042F2D8781CF2
:103EE00081B2002302221B4805F08EF818B9002089
:103EF0000DF2044DF0BD002406E007F079FD012825
:103F000000D103E0601C84B2052CF6DB00BF052C59
:103F100014DB00BF4FF4806101A8FCF79AF90FA0F1
:103F200040F6122318A21BA1009001A805F054F935
:103F300001A802F0E9F900BF0020D9E706480068AF
:103F40002844054908600221174801F06BF9012057
:103F5000CEE7000074630020580200200D0A0D0A0D
:103F6000434D442047455420535441545553203A1F
:103F7000206572617365207372616D206661696C82
:103F800065640D0A000000007372635C74657374ED
:103F90002E63000046696C653A25732C4C494E45EA
:103FA0003A25642C25732C002C020020F0B5ADF2CC
:103FB000044D064600240027B07C1030F17C00EB55
:103FC0000120471E380A3E4908704F702D20C870E6
:103FD0000020087148718871C8713A480078C87229
:103FE00038480088000A887236480068000C487219
:103FF00034480068000E0872B17CF07C01EB0025AB
:104000002F49CD73280A8873280C4873280E08732B
:1040100000BF07E004F11800315C0838284A115449
:10402000601C84B2AC42F5D300202549887003247B
:1040300008E0234880782249095D084420498870B7
:10404000601C84B205F11000A042F2D8781C81B245
:10405000002302221A4804F0D7FF18B900200DF2FD
:10406000044DF0BD002406E007F0C2FC012800D199
:1040700003E0601C84B2052CF6DB00BF052C14DBCA
:1040800000BF4FF4806101A8FCF7E3F80EA040F6F2
:104090007C1318A21AA1009001A805F09DF801A8B0
:1040A00002F032F900BF0020D9E706480068284432
:1040B000044908600221174801F0B4F80120CEE756
:1040C00074630020540200200D0A0D0A434D442061
:1040D00047455420535441545553203A206572614A
:1040E0007365207372616D206661696C65640D0A89
:1040F000000000007372635C746573742E630000CB
:1041000046696C653A25732C4C494E453A25642C1A
:1041100025732C002C0200202DE9F04107460E46A5
:104120003846FEF77CF8054615B90020BDE8F08159
:10413000002405E03846FDF7CDFF3055601C84B201
:10414000AC42F7DB2846F1E770B502460023D2E91E
:104150000040A04276D292E01468D068005DCC287E
:1041600071D11068401C40F6C804B0FBF4F504FBA4
:104170001500D468205CCC2876D11068801C40F6ED
:10418000C804B0FBF4F504FB1500D468205CCC280F
:104190006AD11068C01C40F6C804B0FBF4F504FBFB
:1041A0001500D468205CCC285ED11068083040F639
:1041B000C804B0FBF4F504FB1500D468245C106857
:1041C000093040F6C805B0FBF5F605FB1600D568CA
:1041D000285C04EB00205B4C2060506800F6C800AF
:1041E0001468001B574C2468A04231D15548006820
:1041F00018281FD1AA20C87088704870087004233E
:104200000BE01068184440F6C804B0FBF4F504FB5A
:104210001500D468205CC8545B1C4A48006883427F
:10422000EFD3484C106824682044A0F6C800106002
:10423000012070BD40F6C7041068A04204D10020E0
:1042400010601CE024E00FE01068401C106016E0D5
:1042500040F6C7041068A04202D1002010600EE0B2
:104260001068401C10600AE040F6C7041068A042C5
:1042700002D10020106002E01068401C10605068FD
:1042800000F6C8001468001B10283FF665AF56E022
:1042900050E01468D068005DCC2848D11068401CFC
:1042A000D468205CCC2842D11068801CD468205C83
:1042B000CC283CD11068C01CD468205CCC2836D1F6
:1042C00010680830D468245C10680930D568285C10
:1042D00004EB00201B4C2060D2E90040001B194C6D
:1042E0002468A0421FD117480068152817D1AA20BA
:1042F000C870887048700870042305E014681C4476
:10430000D068005DC8545B1C0E4800688342F5D33A
:104310000C4C1068246820441060012089E7106864
:10432000401C106006E01068401C106002E010683D
:10433000401C1060D2E90040001B1028A9D20020C8
:1043400077E70000F80100202DE9F04180460C4697
:1043500042E04046FDF763FF102802D20020BDE88E
:10436000F0814046FDF722F8AA2831D12146404687
:10437000FDF721F82746BD883868B0F1AA3F03D081
:104380004046FDF7A7FE27E0B5F5886F01DA102D4E
:104390000BD24046FDF79EFE4046FDF79BFE404691
:1043A000FDF798FE4046FDF795FE4046FDF737FFC6
:1043B000A84201DA0020D2E7002605E04046FDF7DA
:1043C00089FEA055701C86B2AE42F7DB0120C6E71D
:1043D0004046FDF77FFE00BFBBE72DE9F047814671
:1043E0000D4654E04846FDF71AFF102802D200207F
:1043F000BDE8F0874846FCF7D9FFAA2843D12946F3
:104400004846FCF7EAFF2C46A07A01280ED1E07A54
:10441000202802D0E07A212808D1A04698F8081078
:1044200098F8090001EB002086B200E0A688206819
:10443000B0F1AA3F03D04846FDF74CFE27E0B6F5A1
:10444000A05F01DA102E0BD24846FDF743FE484626
:10445000FDF740FE4846FDF73DFE4846FDF73AFEB3
:104460004846FDF7DCFEB04201DA0020C0E7002735
:1044700005E04846FDF72EFEE855781C87B2B742A6
:10448000F7DB0120B4E74846FDF724FE00BFA9E7AB
:104490002DE9F04180460E4617464046FDF7BFFE27
:1044A0000546BD4202DA0020BDE8F081002405E0A7
:1044B0004046FDF70FFE3055601C84B2AC42F7DB7E
:1044C0002846F1E72DE9F04FADF2044D002461E0FC
:1044D0004FF00009CA460AE00AEBCA0020443049FE
:1044E00031F8100048441FFA80F90AF1010ABAF1C4
:1044F000100FF1D348464FEAE97109EB1171C1F38E
:104500000F19284951F82400FBF7E2FFF991F890C0
:104510004846FBF7BCFF07464FF06632224BFBF7DD
:10452000D5FE05460022214BFBF742FFF791F6909E
:10453000F99BF89AFBF7CAFE00221D4BFB91FA90FB
:10454000FBF7C4FE00221B4BFD91FC90FBF730FFF4
:10455000FF91FE90FBF7CFFF834600BF4FF48061D1
:1045600001A8FBF776FE1448B12314A216A100900F
:1045700001A804F031FE01A801F0C6FE00BF1749F2
:104580005846FBF771FE0546FBF78EFF144941F8CC
:104590002400641C092C9BD30DF2044DBDE8F08F60
:1045A0007C0A00209C01002066660A400000B040A2
:1045B0000090744000A074409C0B00207372635CF8
:1045C0006164632E6300000046696C653A25732CB4
:1045D0004C494E453A25642C25732C000000C842F6
:1045E000580A0020F0B5ADF20C4D02230DF58162A2
:1045F0000121424806F098FC9DF809149DF8080432
:1046000001EB002087B202230DF5816219463B4879
:1046100006F08AFC9DF809149DF8080401EB0020BF
:1046200085B202230DF581620521344806F07CFC39
:104630009DF809149DF8080401EB002086B205EBF3
:1046400085014800C11700EB5171C9102C4A9160D7
:1046500007FB06F0C11700EB5151CC1200201146A8
:1046600008604860FEF720FC072804D12448046055
:10467000002023494860FEF717FC062804D10020DB
:104680001F49086008464460FEF708FC082808D166
:104690001B48046000201A494860084600881949F0
:1046A0000880FEF7FBFB092807D1002014490860A9
:1046B0000846446080881449088011480068104901
:1046C0008968484342F21071B0FBF1F00C49C860B0
:1046D00000BF4FF4806102A8FBF7BBFD0B484FF40D
:1046E000A0730BA20EA1009002A804F075FD02A811
:1046F00001F00AFE00BF0DF20C4DF0BD1C100020B1
:10470000480A0020CC010020CE0100209C0B002094
:104710007372635C494E413232362E6300000000F2
:1047200046696C653A25732C4C494E453A25642CF4
:1047300025732C0010B507F0E1FD0446074800681A
:10474000201AB0F5FA7F00D210BD04480460FFF7CC
:10475000B9FEFFF747FF00BFF6E700006C0200203C
:10476000002141600160704770B505460C46124853
:10477000FDF74CFDA04210DC0DE0104800680E492A
:1047800008600846FDF742FDA04203DC052006F064
:10479000CBFF00E000E0F0E700BF084800680649F2
:1047A0000860224629460448FDF7C7FC02484068D5
:1047B0000349086070BD0000482C00201000002054
:1047C0000C00002010B500F001F810BD0CB5002061
:1047D000019000903F48006840F480303D490860F7
:1047E00000BF3C48006800F4003000900198401C75
:1047F0000190009818B90198B0F5A06FF1D1354833
:10480000006800F4003010B10120009001E00020A9
:104810000090009801285CD12F48006840F01000FB
:104820002D4908600846006820F007000860084627
:10483000006840F00200086026484068254948604A
:104840000846406848600846406840F48060486018
:104850000846C06A214908401E49C8620846C06A25
:104860001F4908431B49C8620846006840F0806041
:10487000086000BF1748006800F000600028F9D009
:104880001448406820F47C1012494860084640688B
:1048900040F4E81048600846006840F08070086006
:1048A00000BF0C48006800F000700028F9D00948EB
:1048B000406820F00300074948600846406840F01F
:1048C0000200486000BF0348406800F00C00082860
:1048D000F9D10CBD001002400020024000F0FEFFA4
:1048E000540801000149087070470000D5010020FC
:1048F000F0B500210020002300240022002500261E
:10490000354F7F6807F00C0121B1042908D0082930
:104910004BD10BE0314FDFF8C8C0CCF800704AE053
:10492000304FDFF8BCC0CCF8007044E02A4F7F68FD
:1049300007F47010284F7F6807F48033800C0D282F
:1049400001D0801C00E0062033B9274F4743DFF831
:1049500090C0CCF8007027E01F4FFF6A07F4803446
:104960001D4FFF6A07F00F077A1C44B91D4FB7FBB4
:10497000F2F74743DFF868C0CCF8007014E0164F38
:10498000FF6AC7F303177D1C134FFF6AC7F30327A2
:10499000BE1C144FB7FBF5F77743B7FBF2F747435D
:1049A000DFF83CC0CCF8007005E00C4FDFF830C0F9
:1049B000CCF8007000BF00BF074F7F68C7F3031734
:1049C000DFF828C01CF80710054F3F68CF40DFF81C
:1049D00010C0CCF80070F0BD0010024000127A0048
:1049E000E400002000366E0100093D00E8000020D0
:1049F00010B51648006840F00100144908600846E8
:104A00004068134908401149486008460068114948
:104A100008400E4908600846006820F480200860BD
:104A20000846406820F4FE0048600846006820F010
:104A3000A05008604FF47F0088600020C862FFF734
:104A4000C1FE4FF000600449086010BD0010024034
:104A50000000FFF0FFFFF6FE08ED00E010B50121B9
:104A6000880700F00DF918B10121880700F004F85B
:104A700010BDCA4302827047CA430282704721B107
:104A8000028842F00102028004E002884FF6FE73C1
:104A90001A4002807047000010B5044668488442FE
:104AA00008D10121C014FEF7FBFF0021E014FEF73E
:104AB000F7FFC4E0B4F1804F08D101210846FEF7AA
:104AC000CFFF00210120FEF7CBFFB8E05D48844214
:104AD00008D101210220FEF7C3FF00210220FEF7CA
:104AE000BFFFACE05848844208D101210420FEF702
:104AF000B7FF00210420FEF7B3FFA0E05348844233
:104B000008D101210820FEF7ABFF00210820FEF7A5
:104B1000A7FF94E04E48844208D101211020FEF7FF
:104B20009FFF00211020FEF79BFF88E04948844248
:104B300008D101212020FEF793FF00212020FEF75D
:104B40008FFF7CE04448844208D101214014FEF7E5
:104B5000A7FF00216014FEF7A3FF70E03F488442E6
:104B600009D10121C804FEF79BFF00214FF400206A
:104B7000FEF796FF63E03A48844209D10121080517
:104B8000FEF78EFF00214FF48010FEF789FF56E0FC
:104B90003448844209D101214805FEF781FF0021F4
:104BA0004FF40010FEF77CFF49E02F48844208D103
:104BB00001214020FEF754FF00214020FEF750FF66
:104BC0003DE02A48844208D101218020FEF748FFB9
:104BD00000218020FEF744FF31E02548844208D1BF
:104BE00001218015FEF73CFF0021A015FEF738FFDC
:104BF00025E02048844209D101210804FEF750FF36
:104C000000214FF48030FEF74BFF18E01A48844231
:104C100009D101214804FEF743FF00214FF4003081
:104C2000FEF73EFF0BE01548844208D101218804BD
:104C3000FEF736FF00214FF48020FEF731FF10BD54
:104C4000002C01400004004000080040000C00401F
:104C5000001000400014004000340140004C0140AE
:104C6000005001400054014000180040001C00406A
:104C70000020004000400140004401400048014045
:104C800030B50246002000230024158A05EA0103FE
:104C9000958905EA010413B10CB1012000E0002060
:104CA00030BD1AB183890B43838102E083898B4332
:104CB00083817047002202881D4B98420ED01D4B05
:104CC00098420BD0B0F1804F08D01B4B984205D0D2
:104CD0001A4B984202D01A4B984204D14FF68F7368
:104CE0001A404B881A43174B984207D0164B9842EC
:104CF00004D04FF6FF431A40CB881A4302808B88BA
:104D000083850B8803850A4B98420BD0094B984248
:104D100008D00E4B984205D00D4B984202D00D4B57
:104D2000984201D10B7A03860123838270470000E9
:104D3000002C014000340140000400400008004005
:104D4000000C0040001000400014004000400140F2
:104D5000004401400048014010B50A2414E005F069
:104D6000F5FA4FF47A7006F0DFFC05F065F94FF4C0
:104D7000FA7006F0D9FC05F0F3FA642006F0D4FCD2
:104D8000FDF744FD00B104E0201EA4F10101CCB206
:104D9000E5D100BF0CB9002010BD0120FCE70000E8
:104DA0002DE9F043ADF2044D81460E46174600242E
:104DB0004FF02008404606F03FF80446B4B900BF63
:104DC0004FF4806101A8FBF744FA1CA040F20623CF
:104DD00021A224A1009001A804F0FEF901A801F08D
:104DE00093FA00BF0DF2044DBDE8F08325464FF065
:104DF000AA3028601020A8800220A872EE72EF71FD
:104E00000020E86001212846FEF71AFC204606F043
:104E100075FC00BF4FF4806101A8FBF71AFA16A0D9
:104E20004FF406730CA20FA1009001A804F0D4F96E
:104E300001A801F069FA00BF00BFD3E74D616C6CB7
:104E40006F63206D656D6F7279206661696C656452
:104E500021200D0A000000007372635C7465737496
:104E60002E63000046696C653A25732C4C494E450B
:104E70003A25642C25732C0054657374436D645279
:104E800065706C790D0A000010B50446A07A0128FF
:104E900005D0022807D1204600F0EAF904E02046B8
:104EA00000F088FF00E000BF00BF10BD2DE9F04F0B
:104EB000ADF2744D002607F021FA8346B74800682A
:104EC000ABEB0000B0F5FA7F03D20DF2744DBDE8F4
:104ED000F08FB248C0F800B04FF0400A504605F0DD
:104EE000ABFF06469EB900BF4FF4806102A8FBF7F6
:104EF000B0F9ABA040F29643B0A2B3A1009002A8D3
:104F000004F06AF902A801F0FFF900BFDDE73546B9
:104F10004FF0AA3028603C20A8800220A87203200D
:104F2000E8720020E871E86006F11004AB484068C0
:104F30006060AA488068A060A848C068E060A8488F
:104F40000088E084A74800882085A748FFF708FC70
:104F5000002791E0042005F091FFC82006F0E4FB53
:104F6000042004F065FC68B19F480068153040F6E5
:104F7000C801B0FBF1F201FB12009B49086002205E
:104F800020747CE09848006800F6C80040F6C8012C
:104F9000B0FBF1F201FB12009349C968085CCC2810
:104FA00066D19148006800F6C90040F6C801B0FB20
:104FB000F1F201FB12008C49C968085CCC2857D17A
:104FC0008948006800F6CA0040F6C801B0FBF1F25B
:104FD00001FB12008449C968085CCC2848D182488A
:104FE000006800F6CB0040F6C801B0FBF1F201FB0F
:104FF00012007D49C968085CCC2839D17A4800681C
:1050000000F50D6040F6C801B0FBF1F201FB1200A3
:105010007549C968095C7448006800F6D10040F61B
:10502000C802B0FBF2F302FB13006F4AD268105CB7
:1050300001EB002015281BD16B48006800F6DC004E
:1050400040F6C801B0FBF1F201FB12006649C968E5
:10505000085C05280CD100202074634800681530D6
:1050600040F6C801B0FBF1F201FB12005E49086096
:10507000C82006F059FB7F1C0A2FFFF66BAF00BF5C
:1050800000206074A074E0745848008AA0825748D9
:10509000808AE0825548008B20835448808B60834F
:1050A0005248008CA0835148808CE0834F48008D8B
:1050B00020844E48808D60844C48008EA084FDF78B
:1050C000F3FE81464846B9F1020F0CD0062802D003
:1050D00007280CD103E0032084F82A000BE002200B
:1050E00084F82A0007E0012084F82A0003E0002069
:1050F00084F82A0000BF00BFA846002713E018F874
:10510000070000F00F003A49095C7800401C0DF5DB
:105110008162115418F80700354901EB101000782E
:1051200002F817007F1CA888B842E8DC0021A88894
:105130004000401C0DF58162115400BF4FF48061A6
:1051400002A8FBF786F82BA040F2F6431BA21EA193
:10515000009002A804F040F802A801F0D5F800BFC2
:1051600000BF4FF4806102A8FBF773F80DF5816072
:1051700040F2F74311A214A1009002A804F02CF809
:1051800002A801F0C1F800BF01212846FEF758FA35
:10519000304606F0B3FA00BF97E600006802002030
:1051A0004D616C6C6F63206D656D6F727920666107
:1051B000696C656421200D0A000000007372635C55
:1051C000746573742E63000046696C653A25732C10
:1051D0004C494E453A25642C25732C00205F002055
:1051E000CC010020CE01002068400020480A0020A9
:1051F0008CC900087265706C7920636F64653A0031
:10520000014601F11000064BC2685A6002699A60BB
:105210004269DA6002791A748288120A5A747047F5
:10522000205F002070B505460E460F48007838B163
:1052300002E0012006F078FA06F010F80028F8D015
:1052400001200949087005B970BD002403E0285DFC
:1052500006490855641CB442F9D33146034806F0A8
:105260001DF800BFF0E70000D70100201852002011
:105270002DE9F04FADF20C4D054600240027A34662
:105280000020CDF80804A94695F80BA0AAF1020069
:105290001A287DD2DFE810F09C00C4007C001A00C0
:1052A00086009F007C00FE001F013D017C005E0126
:1052B0005003CC037D04C404C704CA04CE04D10443
:1052C000D5047C00D904E1042205250500BF4FF474
:1052D000806102A8FAF7BDFFF5A04FF43473FCA279
:1052E000FEA1009002A803F077FF02A801F00CF8DD
:1052F00000BF00240AE005F033F84FF4FA6006F02E
:1053000013FA00F07BFE00B102E0641C0A2CF2D319
:1053100000BF0A2C18D200BF4FF4806102A8FAF730
:1053200098FFF3A040F2E723E9A2ECA1009002A8C5
:1053300003F052FF02A800F0E7FF00BF00220521A2
:105340000120FFF72DFD17E000BF4FF4806102A898
:10535000FAF77FFFE9A040F2EA23DDA2DFA1009087
:1053600002A803F039FF02A800F0CEFF00BF01221F
:1053700005211046FFF714FD00BF4FF4806102A81D
:10538000FAF767FFE1A040F2F123D1A2D3A100E038
:10539000FEE3009002A803F01FFF02A800F0B4FF94
:1053A00000BFC8E200BF4FF4806102A8FAF751FFC6
:1053B000E0A04FF43D73C6A2C8A1009002A803F07C
:1053C0000BFF02A800F0A0FF00BF00F0C9FEE8E755
:1053D00000F0DAFEE5E700BF4FF4806102A8FAF7BB
:1053E00038FFDEA04FF43F73B9A2BCA1009002A821
:1053F00003F0F2FE02A800F087FF00BF0020E4499E
:105400000870FFF7A9FC28B1002207210120FFF74F
:10541000C7FC04E0012207211046FFF7C1FCC0E7EA
:10542000002402E0FFF7DEF8641C1E2CFAD34FF0D4
:105430000008002407E0FFF7D5F8FFF743F8D54848
:1054400000888044641C1E2CF5D31E20B8FBF0F0AD
:10545000D049088005F052F9642006F065F900BFD4
:105460004FF4806102A8FAF7F4FECBA04FF4457325
:1054700097A29AA1009002A803F0AEFE02A800F045
:1054800043FF00BF04F0AAFEC82006F04DF9FFF765
:105490000DFD86E70020BE49087000BF4FF4806113
:1054A00002A8FAF7D6FEC8A04FF4477388A28BA1D2
:1054B000009002A803F090FE02A800F025FF00BFB4
:1054C000FCF75EFFC82006F02FF900220921012019
:1054D000FFF766FC65E700BF4FF4806102A8FAF7AA
:1054E000B8FEC4A040F2233379A27CA1009002A8A8
:1054F00003F072FE02A800F007FF00BFFBF72CFAD2
:105500000720FFF7EFF900220A210120FFF748FCEE
:10551000EBE300209E49087000BF4FF4806102A8B1
:10552000FAF797FEBFA040F22B3369A26BA100905F
:1055300002A803F051FE02A800F0E6FE00BFFBF750
:10554000EFF90620FFF7CEF900220B210120FFF72B
:1055500027FCCAE300BF4FF4806102A8FAF779FE86
:10556000BDA040F232335AA25CA1009002A803F021
:1055700033FE02A800F0C8FE00BF2E46B17C3546BF
:10558000F07C01EB002087B2317D707D01EB0021C2
:10559000B07D01EB0041F07D01EB0060BA4908608D
:1055A00000249FE1FF2F37DD182101EB042188192A
:1055B0004FF48072B4490968FDF758F878B9B348D8
:1055C00000781F2805D103220D210120FFF7E8FBF9
:1055D00004E001220D211046FFF7E2FB90E1641C7C
:1055E000A948006800F58070A7490860A7F5807099
:1055F00087B200BF4FF4806102A8FAF72AFEA4A088
:1056000040F24F3332A235A1009002A803F0E4FD2E
:1056100002A800F079FE65E1FF2F01DC012000E027
:105620000020002F01DD012100E0002108400028BA
:105630003CD0182101EB042188193A4692490968A7
:10564000FDF714F810BB00BF4FF4806102A8FAF711
:1056500000FE98A04FF455731DA220A1009002A84F
:1056600003F0BAFD02A800F04FFE00BF87480078A3
:105670001F2805D103220D210120FFF791FB04E033
:1056800001220D211046FFF78BFB39E1641C002736
:1056900000BF4FF4806102A8FAF7DBFD7CA040F266
:1056A0005E330BA20DA1009002A815E11AE10000E3
:1056B0005465737453657276696365436D642073D2
:1056C000746172742074657374200D0A0000000008
:1056D0007372635C746573742E63000046696C6555
:1056E0003A25732C4C494E453A25642C25732C00E1
:1056F0007374617274206F6B0D0A000073746172B1
:1057000074206661696C65640D0A00007265706CD6
:105710007920204D53475F545950455F434D445FB6
:1057200053544152545F544553545F5245510D0AEE
:1057300000000000546573745365727669636543B5
:105740006D64204D53475F545950455F434D445F4E
:105750005741524E5F524551200D0A0054657374F3
:1057600053657276696365436D64204D53475F549A
:105770005950455F434D445F424F4F545F494E5F20
:105780004941505F4D4F44455F524551200D0A003D
:1057900088010020CE010020546573745365727631
:1057A000696365436D64204D53475F545950455FAD
:1057B000434D445F544553545F524553554C545FD9
:1057C000524551200D0A000054657374536572767A
:1057D000696365436D64204D53475F545950455F7D
:1057E000434D445F43525950545F524551200D0A76
:1057F00000000000546573745365727669636543F5
:105800006D64204D53475F545950455F434D445F8D
:10581000574F524B5F43555252454E545F5245517C
:10582000200D0A005465737453657276696365438D
:105830006D64204D53475F545950455F434D445F5D
:10584000534C4545505F43555252454E545F524567
:1058500051200D0A000000000D0A544553542054F5
:1058600041534B3A204D53475F545950455F434D88
:10587000445F544553545F4D43555F434F44455F28
:1058800052455350210D0A00F0010020B073002052
:10589000434D445F544553545F4D43555F434F441C
:1058A00045205752495445205355434345530D0A0B
:1058B00000000000434D445F544553545F4D435531
:1058C0005F434F4445205752495445204641494C77
:1058D00045440D0A0000000003F07EFC02A800F021
:1058E00013FD00BF042C01D2012000E00020002F96
:1058F00001DD012100E00021084000287FF452AEC4
:1059000000BF00220D210120FFF74AFA00BF4FF42B
:10591000806102A8FAF79DFCF6A040F26633AFF270
:105920005022AFF24821009002A803F055FC02A8D3
:1059300000F0EAFC00BFD8E100BF4FF4806102A88C
:10594000FAF787FCF6A040F28933AFF27C22AFF27F
:105950007421009002A803F03FFC02A800F0D4FCE0
:1059600000BF04F0F3FC00BF4FF4806102A8FAF717
:1059700070FCF5A040F2AE33AFF2AC22AFF2A4213E
:10598000009002A803F028FC02A800F0BDFC00BFB4
:1059900004F068FB0020FEF7A5FF40F2DC5005F0A4
:1059A000C3FE0A2005F0C0FE04F0DAFC00BF4FF48D
:1059B000806102A8FAF74DFCE8A040F2B633AFF2DE
:1059C000F022AFF2E821009002A803F005FC02A843
:1059D00000F09AFC00BF4FF47A7005F0A5FE082095
:1059E000E3490870002402E0FEF7FCFD641C1E2C55
:1059F000FAD34FF00008002405E0FEF7F3FDDD4880
:105A000000888044641C1E2CF7D31E20B8FBF0F0E5
:105A1000D84908800A20D649087004F0DFFB02202C
:105A2000FEF760FF00220E210120FFF7B9F95CE1CB
:105A300004F0D4FB642005F077FEE87908BB002071
:105A400005F01CFA002414E0002003F0F1FE78B108
:105A5000C9480068153040F6C801B0FBF1F201FBFF
:105A60001200C549086000220F210120FFF798F9B4
:105A7000641C0A2CE8D306220F210120FFF790F9BD
:105A800085E0E879012829D105F0F8F9002418E02B
:105A9000012003F0CDFE80B1B7480068153040F614
:105AA000C801B0FBF1F201FB1200B349086001220A
:105AB0000F211046FFF774F906E00A2005F034FEC6
:105AC000641CB4F5967FE3D300BFB4F5967F5ED136
:105AD00006220F210120FFF763F958E0E879022838
