:020000040800F2
:10000000B8FE0020FD01000889330008492C0008D3
:10001000C931000885090008457500080000000086
:100020000000000000000000000000006501000862
:100030008520000800000000A9010008D1A90008DF
:10004000170200081702000817020008170200082C
:10005000170200081702000817020008170200081C
:10006000170200081702000817020008170200080C
:1000700017020008170200081702000817020008FC
:1000800017020008170200081702000817020008EC
:10009000B90A000817020008170200081702000832
:1000A00017020008170200081702000817020008CC
:1000B0006143000817020008170200081702000831
:1000C00017020008170200081702000817020008AC
:1000D000170200081702000817020008170200089C
:1000E00017020008170200081702000800000000AD
:1000F0000000000000000000000000000000000000
:1001000000000000000000001702000817020008AD
:10011000F556000817020008170200081702000829
:10012000170200081702000817020008170200084B
:10013000170200081702000817020008170200083B
:1001400017020008250C000817020008A534000853
:10015000DFF80CD000F084FA00480047399400081A
:10016000B8FE0020224B19680868B0E8F00F80F351
:100170000988BFF36F8F4FF0000080F311884EF0B5
:100180000D0E70470000000006480068006880F30C
:10019000088862B661B6BFF34F8FBFF36F8F00DF81
:1001A00000BF00BF08ED00E0EFF30980BFF36F8FE1
:1001B0000F4B1A6820E9F00F106008B54FF0BF0030
:1001C00080F31188BFF34F8FBFF36F8F0AF0BEF833
:1001D0004FF0000080F31188BDE8084019680868F6
:1001E000B0E8F00F80F30988BFF36F8F704700BF4E
:1001F00088020020EFF30580704700000648804722
:1002000006480047FEE7FEE7FEE7FEE7FEE7FEE7FB
:10021000FEE7FEE7FEE7FEE7F542000851010008B1
:1002200040EA01039B0703D009E008C9121F08C078
:10023000042AFAD203E011F8013B00F8013B521EF8
:10024000F9D2704780EA010210B502F00043400085
:1002500022D04A001FD0010E01EB1261C0F35600FC
:10026000C2F3560240F4000042F40002A0FB022058
:1002700000047F39140400D0401C50EA124001D41D
:100280004000491EC2B20C0604EBD010401C4008CE
:10029000802A02D003E0002010BD20F001000029D8
:1002A00000DA0020184310BD2DE9FE4F81EA030457
:1002B00004F0004421F0004100944FF0000B23F0C3
:1002C000004350EA01045ED052EA03045BD0C3F35A
:1002D0000A54C1F30A552C44A4F2F3340194A0FB50
:1002E0000254C1F3130141F48011C3F3130343F427
:1002F000801301FB024400FB034E840A970A44EA80
:10030000815447EA8357A4FB076802958D0A05FBD1
:1003100007854FEA932C04FB0C542705029D4FEAF6
:10032000065847EA1637B5EB08056EEB070C870E43
:10033000920E47EA811742EA8312A7FB0201B6EB4D
:100340000B0164EB00042B0D43EA0C335E1844EB05
:100350001C50DA465146E7FB0201C5F313044FEA8D
:100360000B3343EA14534FEA0432019C43EA060379
:10037000A4F10C040294009CCDE900B400F021F932
:1003800003B0BDE8F08F00200146F9E72DE9F04DFC
:1003900081EA030404F0004B21F0004514464FF0BD
:1003A000000A23F0004150EA050220D054EA01027D
:1003B0001DD0C5F30A570246C5F31303C1F313005A
:1003C000C1F30A5640F4801543F48013A7EB0608E6
:1003D000101BD64608F2FD3873EB050002D308F176
:1003E000010801E092185B41B8F1000F03DA002028
:1003F0000146BDE8F08D00204FF48011064684468A
:100400000EE0171B73EB050705D3121B63EB050307
:1004100006434CEA010C49084FEA300092185B4150
:1004200050EA0107EDD152EA030012D082EA04003B
:1004300083EA0501084305D0101BAB4106D2012217
:10044000002306E000224FF0004302E06FF00102BB
:1004500053101AEB06004CEB085110EB0A0041EB6D
:100460000B01BDE8F04D00F09DB80EB540F23341F0
:1004700002910021CDE900110A460B4600F0A1F8D7
:1004800003B000BD20F00040C10DC0F3160040F4E1
:1004900000007F2901DA00207047962903DCC1F1B2
:1004A0009601C840704796398840704700F0004276
:1004B00030F000400AD0C10D01F56071C0F31600A4
:1004C00042EA0151C208400711437047002001462B
:1004D000704701F0004330B421F0004150EA0102BE
:1004E00006D00A0DA2F56072C1F31301002A02DCE6
:1004F00030BC00207047440F44EAC104C100E0183A
:1005000030BC00EBC25000F016B830B50B460146C7
:1005100000202022012409E021FA02F59D4205D3A2
:1005200003FA02F5491B04FA02F52844151EA2F14C
:100530000102F1DC30BD0029A8BF7047401C490012
:1005400008BF20F00100704710B4B0FA80FC00FA38
:100550000CF050EA010404BF10BC704749B1CCF163
:10056000200421FA04F411FA0CF118BF01212143EF
:100570000843A3EB0C01CB1D4FEA00614FEA1020AA
:1005800042BF002010BC704700EBC350104400294C
:10059000A4BF10BC7047401C490008BF20F00100F8
:1005A00010BC704710B5141E73F1000408DA401C2B
:1005B00041F1000192185B411A4301D120F0010082
:1005C00010BD2DE9F04D92469B4611B1B1FA81F272
:1005D00002E0B0FA80F22032904600F053F8044670
:1005E0000F4640EA0A0041EA0B0153465A460843C7
:1005F00013D0114653EA010019D0C8F14002504609
:1006000000F04FF805460E4650465946424600F067
:1006100039F8084305D0012004E020463946BDE8FA
:10062000F08D0020054346EAE0762C4337430A98D4
:100630006305E40AA0EB08000022FD0A44EA4754DF
:100640000A3002D500200146E9E701051019694189
:10065000DDE9084500196941BDE8F04DA2E7000059
:10066000064C074D06E0E06840F0010394E80700FF
:1006700098471034AC42F6D3FFF76EFD6CB4000817
:100680008CB40008202A04DB203A00FA02F1002092
:1006900070479140C2F1200320FA03F319439040C0
:1006A0007047202A04DB203A21FA02F0002170472B
:1006B00021FA02F3D040C2F12002914008431946CA
:1006C000704770B58C1810F8015B15F0070301D165
:1006D00010F8013B2A1106D110F8012B03E010F8A5
:1006E000016B01F8016B5B1EF9D12B0705D40023C8
:1006F000521E0DD401F8013BFAE710F8013BCB1A6A
:10070000921C03E013F8015B01F8015B521EF9D55E
:10071000A142D8D3002070BD21B1826842F001020D
:10072000826003E0826822F001028260704721B19A
:10073000826842F48072826003E0826822F48072F0
:100740008260704710B504461248844208D10121E6
:10075000401502F0FBFE0021601502F0F7FE17E0E5
:100760000D48844208D10121001502F0EFFE00215E
:10077000201502F0EBFE0BE00848844208D101216D
:10078000C80302F0E3FE00214FF4004002F0DEFE59
:1007900010BD00000024014000280140003C014041
:1007A000014600208A6802F004020AB1012000E03C
:1007B00000207047014600208A6802F008020AB152
:1007C000012000E00020704730B5024600200023E1
:1007D00050680F4C20400D790C6844EA05242043F2
:1007E000506090680B4C2040D1E902542C434D7965
:1007F00044EA450420439060D06A20F470000C7CE9
:10080000641EE4B2234340EA0350D06230BD0000CE
:10081000FFFEF0FFFDF7F1FFF0B504460D460020A6
:100820000021092D11DDE068A5F10A0606EB460757
:10083000072606FA07F18843A5F10A0606EB4606E5
:1008400003FA06F10843E0600CE0206905EB450778
:10085000072606FA07F1884305EB450603FA06F179
:1008600008432061072A0FDA606B561E06EB8607E5
:100870001F2606FA07F18843561E06EB860605FA80
:1008800006F10843606322E00D2A0FDA206BD61FC1
:1008900006EB86071F2606FA07F18843D61F06EBEC
:1008A000860605FA06F10843206310E0E06AA2F12B
:1008B0000D0606EB86071F2606FA07F18843A2F10C
:1008C0000D0606EB860605FA06F10843E062F0BD68
:1008D000816841F008018160704721B1826842F46B
:1008E000A002826003E0826822F4A0028260704766
:1008F000816841F0040181607047000010B500205C
:100900000B49087008F026FB08F0C6F9C82009F06A
:10091000A7FC08F0ABF90A2009F0A2FC08F024FBC0
:100920004FF4967009F09CFC062003F05DFC10BDAE
:100930008801002010B501200D49087008F00AFB5D
:1009400008F0AAF9C82009F08BFC08F08FF90A20FA
:1009500009F086FC08F008FB4FF4967009F080FC63
:1009600004A004F0A1FE072003F03EFC10BD00002F
:1009700088010020626F6F74206E6F726D616C0D64
:100980000A00000000BFFEE730B589B0044601212F
:10099000084602F0CBFD0121202002F0C7FD012115
:1009A000202002F0C3FD0120ADF8200028208DF8A2
:1009B000230008A93D4801F047FF0220ADF82000C0
:1009C00018208DF8230003208DF8220008A937484D
:1009D00001F03AFF01214FF4EB1001F0C1FF0121BA
:1009E000480602F083FD324800F0CCF9E07938B9CE
:1009F000012248F20E012E4800F0F4FA09B030BD91
:100A000005A800F0FAFB00208DF81A008DF81B00F5
:100A10008DF81C008DF81D008DF81E0001208DF84A
:100A20001F0000208DF8160020798DF817006079DE
:100A30008DF81800A0798DF819009DF81700401C5A
:100A40009DF81810491C01449DF81900401C0D1810
:100A500018492068B1FBF0F0B0FBF5F080B2ADF8BA
:100A6000140005A9124800F0C6FA00208DF80E0007
:100A70008DF80F0001208DF810000020ADF8040063
:100A8000ADF80600ADF80800ADF80A00ADF80C00AE
:100A900001208DF8110001A800F090F9012248F220
:100AA0000E01034800F09EFA00BFA7E700140140C2
:100AB000006400400051250200B587B0002001907D
:100AC0000421104800F0FEF918B104210D4800F08F
:100AD00005F908210B4800F0F5F918B1082109487B
:100AE00000F0FCF802AA0021064800F00EFB40F2DC
:100AF000FF710298884203D30120019007B000BD26
:100B000000BFFBE70064004030B589B00446012116
:100B1000082002F00BFD4FF48050ADF82000282093
:100B20008DF8230008A93C4801F08EFE4FF40050D8
:100B3000ADF8200018208DF8230003208DF8220046
:100B400008A9354801F080FE0121880602F0CEFC9C
:100B5000324800F017F9E07938B9012248F2700103
:100B60002E4800F03FFA09B030BD05A800F045FB63
:100B700000208DF81A008DF81B008DF81C008DF8F0
:100B80001D008DF81E0001208DF81F0000208DF83B
:100B9000160020798DF8170060798DF81800A0797B
:100BA0008DF819009DF81700401C9DF81810491C7D
:100BB00001449DF81900401C0D1819492068B1FB2B
:100BC000F0F0B0FBF5F080B2ADF8140005A91348C1
:100BD00000F011FA0E208DF80E0000208DF80F00A5
:100BE00001208DF810000020ADF80400ADF80600DB
:100BF000ADF80800ADF80A000120ADF80C008DF842
:100C0000110001A800F0DAF8012248F2700103484F
:100C100000F0E8F900BFA6E7000C014000680040C2
:100C20000051250200B585B04FF48061294800F0DD
:100C300049F920B14FF48061264800F04FF8202197
:100C4000244800F03FF918B12021224800F046F86E
:100C50004021204800F036F918B140211D4800F02D
:100C60003DF84FF400711B4800F02CF918B14021F9
:100C7000184800F033F86A460121164800F045FA9A
:100C80009DF80B00F0281FD19DF80C00F0281BD117
:100C90009DF80D00F02817D19DF80E00F02813D113
:100CA0009DF80F00F0280FD19DF81000F0280BD10F
:100CB0009DF81100F02807D19DF81200F02803D10B
:100CC00001200549087002E000200349087005B0C2
:100CD00000BD000000680040DC000020B1F5007F8E
:100CE0003AD00FDC202928D006DC01291CD00429A9
:100CF0001DD0082940D11DE0402921D0B1F5807FC9
:100D00003AD126E0B1F5004F31D006DCB1F5806F65
:100D100025D0B1F5006F2FD124E0B1F5803F12D07E
:100D2000B1F5003F28D111E0154A826025E0082284
:100D3000C26022E01022C2601FE0082202611CE0B3
:100D40001022026119E00822426016E0102242607F
:100D500013E00422426010E0042242600DE004220D
:100D600042600AE0002282610422426005E0002223
:100D700082610422426000E000BF00BF70470000B3
:100D80000101010010B504460B48844209D101213C
:100D9000480602F0BBFB00214FF0007002F0B6FBEA
:100DA00008E00121880602F0B1FB00214FF08060CD
:100DB00002F0ACFB10BD00000064004010B5002143
:100DC000837A012202FA03F13D4A126842F00102DD
:100DD0003B4B1A603A4A1C3212688A43384B1C3328
:100DE0001A60027BCAB9364A0C3212688A43344B05
:100DF0000C331A604288C38842EA0343304A4032C7
:100E0000847A42F834300288838842EA03432C4AC9
:100E10004032847A02EBC4025360027B012A19D16A
:100E2000274A0C3212680A43254B0C331A60428859
:100E3000038842EA0343224A4032847A42F834303B
:100E4000C288838842EA03431D4A4032847A02EB17
:100E5000C4025360C27A3AB9194A121D12688A4311
:100E6000174B1B1D1A6006E0154A121D12680A4333
:100E7000134B1B1D1A60028932B9114A14321268D1
:100E80008A430F4B14331A600289012A06D10C4A97
:100E9000143212680A430A4B14331A60427B012A47
:100EA00006D1074A1C3212680A43054B1C331A60EC
:100EB000034A126822F00102014B1A6010BD0000C3
:100EC0000066004070B504460D4600266069284063
:100ED000002871D0B5F5807F5CD010DC082D35D0AE
:100EE00006DC012D20D0022D24D0042D72D127E064
:100EF000102D31D0202D35D0402D6BD138E0B5F5F7
:100F0000004F60D009DCB5F5007F49D0B5F5806FA2
:100F10004CD0B5F5006F5DD14FE0B5F5803F2DD0D9
:100F2000B5F5003F56D12FE0A0682D4900F031FA09
:100F3000064651E0E068032100F02BFA06464BE03C
:100F4000E068082100F025FA064645E0E068102137
:100F500000F01FFA06463FE02069032100F019FA6D
:100F6000064639E02069082100F013FA064633E00E
:100F70002069102100F00DFA06462DE06068082176
:100F800000F007FA064627E06068102100F001FA39
:100F9000064621E0A069012100F0FBF906461BE0AE
:100FA000A069022100F0F5F9064615E0A0690421C8
:100FB00000F0EFF906460FE00FE0A069702100F0A5
:100FC000E8F9064608E06068042100F0E2F9064608
:100FD00002E0FFE7002600BF00E00026304670BDBB
:100FE000010101001AB143690B43436102E0436907
:100FF0008B434361704730B50246002000231468DC
:1010000024F002041460146844F00104146000E049
:101010005B1C546804F001041CB94FF6FF74A34232
:10102000F6D1546804F001040CB900206CE08C790E
:10103000012C04D1146844F08004146003E01468A7
:1010400024F080041460CC79012C04D1146844F09D
:101050004004146003E0146824F0400414600C7A27
:10106000012C04D1146844F02004146003E01468D7
:1010700024F0200414604C7A012C04D1146844F04C
:101080001004146003E0146824F0100414608C7AD7
:10109000012C04D1146844F00804146003E01468BF
:1010A00024F008041460CC7A012C04D1146844F0B4
:1010B0000404146003E0146824F0040414608C78C1
:1010C000A407CD7844EA05640D7944EA05444D79D6
:1010D00044EA05540D886D1E2C43D461146824F035
:1010E00001041460002300E05B1C546804F0010458
:1010F0001CB14FF6FF74A342F6D1546804F001040A
:101100000CB1002000E0012030BD10B500F5D8730F
:1011100003EB01131B6803F004031372137A53B932
:1011200000F5D87303EB01131B6840F2FF7404EA67
:101130005353136009E000F5D87303EB01131B68E8
:101140006FF0604404EAD303536000F5D87303EBF7
:1011500001131B6803F00203537200F5D87303EB0D
:1011600001135B6803F00F03937200F5D87303EB70
:1011700001135B681B0AD37400F5D87303EB0113EA
:101180009B68D37200F5D87303EB01139B681C0AAC
:10119000147300F5D87303EB01139B681C0C547394
:1011A00000F5D87303EB01139B681B0E937300F5D6
:1011B000D87303EB0113DB68D37300F5D87303EB2B
:1011C0000113DB681C0A147400F5D87303EB0113D8
:1011D000DB681C0C547400F5D87303EB0113DB6857
:1011E0001B0E937421B9C36843F02003C36003E06E
:1011F000036943F02003036110BD00218171C171B7
:10120000017241728172C1728170C17003210171DA
:101210000221417101210180704710B50246002072
:10122000936803F08063B3F1806F00D110E093689E
:1012300003F00063B3F1006F01D1012008E093686F
:1012400003F08053B3F1805F01D1022000E004205D
:10125000042874D002F5C07303EB00131B6803F07D
:10126000010402F5C07303EB00131C600B7A7BB919
:101270004B7A0C8843EA445302F5C07404EB001423
:101280002468234302F5C07404EB0014236010E0CB
:101290000B7A4C6843EAC4034C7A234302F5C074CA
:1012A00004EB00142468234302F5C07404EB00141B
:1012B00023608B7A03F00F038B7202F5C07303EB8C
:1012C00000135B6823F00F0402F5C07303EB0013F7
:1012D0005C6002F5C07303EB00135B688C7A2343F8
:1012E00002F5C07404EB001463608B7B1C064B7B1F
:1012F00044EA03440B7B44EA0323CC7A234302F5FC
:10130000C07404EB0014A3608B7C1C064B7C44EA85
:1013100003440B7C44EA0323CC7B234302F5C074D3
:1013200004EB0014E36002F5C07303EB00131B68C9
:1013300043F0010402F5C07303EB00131C6010BD01
:1013400001460A68C868805C70472DE9F041044690
:101350000E462768002505E0204600F085FE705502
:10136000681CC5B2102DF7D32760BDE8F0812DE9C8
:10137000F04104460E462768002505E0204600F0AF
:1013800073FE7055681CC5B2102DF7D32760BDE8F9
:10139000F0810246002002EA01030BB1012000E0C7
:1013A0000020704770B506460C4604F08000802887
:1013B00008D104F07F0000EB800106F58E7000EB91
:1013C000C10507E004F07F0000EB800106F55D70C9
:1013D00000EBC10504F07F00287004F08000C00914
:1013E00068702946304605F010FD002070BD70B5CC
:1013F00006460C4604F08000802808D104F07F00E7
:1014000000EB800106F58E7000EBC10505E004EBF2
:10141000840106F55D7000EBC1050020A87004F0A2
:101420007F002870C4F3C01068702946304605F06C
:10143000C4FC002070BD2DE9F04106460D469046E3
:101440001F4605F08000802808D105F07F0000EBE2
:10145000800106F58E7000EBC10407E005F07F0007
:1014600000EB800106F55D7000EBC10405F07F0024
:10147000207005F08000C0096070C4F80880E77033
:10148000607808B12078E080022F01D1002020711F
:101490002146304605F045FC0020BDE8F0812DE9ED
:1014A000F04105460E461746984606F07F0000EBD1
:1014B000800105F55D7000EBC104E760C4F814809D
:1014C0000020A061607006F07F002070E87801289D
:1014D00000D12761207820B92146284605F045FB38
:1014E00003E02146284605F0F1FC0020BDE8F0812C
:1014F00008B500220092009A61F30A120092026974
:101500001268009B1A4303691A6008BD70B506464D
:101510000C4604F08000802808D104F07F0000EB26
:10152000800106F58E7000EBC10505E004EB840137
:1015300006F55D7000EBC1050120A87004F07F0086
:101540002870C4F3C01068702946304605F08CFC42
:10155000002070BD2DE9F04107460D46164698461D
:1015600005F07F0000EB800107F58E7000EBC104F1
:101570000120607005F07F002070E6602661002089
:10158000A061C4F81480207820B92146384605F0BF
:10159000ECFA03E02146384605F098FC0020BDE84F
:1015A000F081000030B587B00546594C284605F05B
:1015B000A2FA684601F0DAFF019CE868C06805906D
:1015C000059820F4705005900598E968C860284691
:1015D00005F04EFE03280BD10020A8704FF40070D8
:1015E000A880059820F4705000F5105005907EE01A
:1015F0000120A8704020A8804648844209D346486C
:10160000844206D2059820F4705000F56050059091
:101610006DE04148844209D34048844206D205988F
:1016200020F4705000F55050059060E03B48844233
:1016300009D33B48844206D2059820F4705000F547
:101640004050059053E03648844209D335488442DF
:1016500006D2059820F4705000F53050059046E011
:101660003048844209D33048844206D2059820F499
:10167000705000F52050059039E02B48844209D382
:101680002A48844206D2059820F4705000F5105084
:1016900005902CE02548844209D32548844206D28F
:1016A000059820F4705000F5005005901FE0204888
:1016B000844209D31F48844206D2059820F4705012
:1016C00000F5E050059012E01A48844209D31A4808
:1016D000844206D2059820F4705000F5C050059061
:1016E00005E0059820F4705000F5A050059005988D
:1016F000E968C86000200690069820F4005000F5C4
:10170000005006900698E9684861012007B030BD96
:10171000007A030AC0E1E4000024F400E0EC0401D4
:1017200000C31801002D310140A44C0100366E01A8
:1017300040E2950180C3C90160600B02F8B505461F
:10174000002400200090284605F0D3FD064681E0E5
:1017500006F0010000287BD0E1B2284600F00CFB27
:101760000090009800F0010030B3012000FA04F767
:101770002869406BB84329694863002000900098AD
:1017800020F00100401C009005F1180050F82400E2
:1017900000998160E1B2324800684268284690476B
:1017A000E878012808D13CB940F21110405D0428C6
:1017B00002D1284605F084FA0098C0F3C00060B159
:1017C00000200090009820F008000830009005F1FB
:1017D000180050F82400009981600098C0F30010B0
:1017E00060B100200090009820F0100010300090B0
:1017F00005F1180050F82400009981600098C0F3AA
:10180000801060B100200090009820F0400040302F
:10181000009005F1180050F82400009981600098AC
:10182000C0F3400060B100200090009820F002005A
:10183000801C009005F1180050F824000099816088
:101840000098C0F3C01018B12146284600F0BEFA37
:10185000641C7608002E7FF47BAF0120F8BD0000E9
:10186000D80000207CB504460025002001902046C9
:1018700005F047FD06466FE006F00100002869D03C
:10188000E9B2204605F045FD0190019800F0010005
:10189000C8B300200190019820F00100401C019085
:1018A00004F1540050F8250001998160E078012886
:1018B00017D104F1540050F825000069009005EBA1
:1018C000850104F55D7000EBC10080680099C1F3EB
:1018D0001201411A05EB850204F55D7000EBC200B0
:1018E0008161E9B21E480068026820469047E078AE
:1018F000012808D13DB940F21110005D052802D140
:10190000204605F0DDF90198C0F3400060B10020E9
:101910000190019820F00200801C019004F1540015
:1019200050F82500019981600198C0F3C00088B18A
:101930000B48006881682046884700200190019884
:1019400020F008000830019004F1540050F8250000
:10195000019981606D1C7608002E8DD101207CBD1F
:10196000D80000203EB50446A07A78B1D4F80C0126
:1019700000680090009820F002000090009820F08D
:10198000010000900099D4F80C0101600020019042
:10199000019820F00100401C0190206940680199E5
:1019A0008843216948600948006881692046884762
:1019B00000200290029820F0004000F100400290C8
:1019C0000298E168486101203EBD0000D800002077
:1019D0007CB5044600200190019820F010001030E2
:1019E0000190E068806901998843E1688861E06856
:1019F000006A0090009800F00F0000EB800104F5F1
:101A00005D7000EBC1050098C0F3434007282DD25C
:101A1000DFE800F02C04051D1E2C1F0027E00098B5
:101A2000C0F30A1090B10098C0F30A122046E9688A
:101A300005F079FCE8680099C1F30A110844E860F0
:101A4000A8690099C1F30A110844A8610FE00EE0EB
:101A50000DE0082204F2CC51204605F064FCA86990
:101A60000099C1F30A110844A86100E000BF00BF5B
:101A7000E068806901990843E168886101207CBDC4
:101A800038B5044608480068C168204688470020E9
:101A90000090009820F00800083000900098E1685D
:101AA0004861012038BD0000D80000201FB5044661
:101AB000002000904FF48970005D0090234800687A
:101AC0004169204688472069806801900020039082
:101AD000039820F4006000F5006003900398E1682B
:101AE0004861A07A70B3019800F0010050B340F251
:101AF0001510005D012825D19DF80000032821D193
:101B000000200290029820F00100401C0290D4F8BE
:101B10000C01006802990843D4F80C11086002987F
:101B200020F00200801C0290D4F80C010068029999
:101B30000843D4F80C1108600548006840F006001E
:101B400003490860012004B010BD0000D800002047
:101B500010ED00E030B587B00446002002900690FA
:101B60000590049003900190029820F00100401C21
:101B700002902069406802998843216948600021E9
:101B8000204605F04BFB00250BE0FF2104F1180077
:101B900050F82500816004F1540050F82500816060
:101BA0006D1C6078A842F0D84FF0FF312069816148
:101BB00006986FF30F00401C0690069880B200F55F
:101BC0008030069006992069C161059820F00800D0
:101BD00008300590059820F00100401C05900598FC
:101BE00020F00200801C059005992069416104984D
:101BF00020F00100401C0490049820F008000830F8
:101C00000490049820F00200801C0490049920693C
:101C10000161206900680390039820F4FE6003903E
:101C2000039920690160204605F04AF800200190E0
:101C3000019820F4805000F5805001900198E168EF
:101C4000486104480068016920468847012007B0C0
:101C500030BD0000D80000202DE9F04106460F46B7
:101C60003946304605F074FB01214FF489708155E7
:101C70000021801C8155002511E005EB850106F54A
:101C80008E7000EBC104012060702570E58000209B
:101C9000E0704020A0600020E06060616D1C707802
:101CA000A842EAD8002510E005EB850106F55D7035
:101CB00000EBC104002060702570E580E0704020DA
:101CC000A0600020E06060616D1C7078A842EBD8D5
:101CD000304604F0FFFE304604F02FFD0021304670
:101CE00005F09EFB304604F0B5FD304605F05FFA86
:101CF000BDE8F08138B50446002000900748006830
:101D0000C16920468847009820F4801000F58010B3
:101D100000900098E1684861012038BDD80000209B
:101D200038B504460020009007480068016A204644
:101D30008847009820F4001000F5001000900098EB
:101D4000E1684861012038BDD800002038B504465C
:101D5000E068406800900098C0F3800020B105481A
:101D60000068816A204688470098E1684860012041
:101D700038BD0000D800002030B5024615692B6937
:101D800015696C6B24FA01F505F0010543EAC513EA
:101D900002F1180555F82150AD6805EA030030BD81
:101DA00038B5044608480068416A20468847002044
:101DB0000090009820F0804000F180400090009852
:101DC000E1684861012038BDD80000202DE9F843C2
:101DD00006460F4600250020009007EB870106F518
:101DE0008E7000EBC104D4E90501451AA068A84231
:101DF00000D2A568E81C4FEA900906F1180050F8D7
:101E000027008069009029E0D4E90501451AA068FF
:101E1000A84200D2A568E81C4FEA9009ABB2FAB21A
:101E20003046E16805F023FBE0682844E060A069E3
:101E30002844A06106F1180050F82700806900903E
:101E4000D4E90501884209D12178012000FA01F87E
:101E50003069406B20EA080031694863009880B21D
:101E6000484506D9D4E90510884202D260690028A5
:101E7000CAD10120BDE8F88300F0805111B10349B7
:101E8000086001E002494860704700000404024015
:101E90000000024021B1026842F00102026004E049
:101EA00002684FF6FE731A400260704701684FF6F1
:101EB000FE72114001600021016041608160C160DB
:101EC0004B49884208D14A490839496841F00F0115
:101ED000474A083A51608AE045491431884208D19E
:101EE00043490839496841F0F001414A083A5160D4
:101EF0007DE03F492831884208D13D490839496889
:101F000041F470613A4A083A516070E038493C3116
:101F1000884208D136490839496841F47041344A49
:101F2000083A516063E032495031884208D1304963
:101F30000839496841F470212D4A083A516056E049
:101F40002B496431884208D129490839496841F44C
:101F50007001274A083A516049E0254978318842A2
:101F600008D123490839496841F07061204A083A8C
:101F700051603CE01F49884206D1011F096841F0C9
:101F80000F01021F116032E01A491431884208D152
:101F90001849091F096841F0F001164A121F116023
:101FA00025E014492831884208D11249091F0968DF
:101FB00041F470610F4A121F116018E00D493C3165
:101FC000884208D10B49091F096841F47041094A48
:101FD000121F11600BE007495031884207D10549B3
:101FE000091F096841F47021024A121F11607047ED
:101FF00008000240080402400146486880B2704769
:1020000001460020002201F0805313B1054B1A68ED
:1020100001E0054B1A6802EA01030BB1012000E060
:1020200000207047000402400000024010B500226A
:10203000026847F6F0739A430C6A8B6823430C6975
:1020400023434C6923438C692343CC6923434C6A63
:1020500023438C6A23431A430260CB6843600B68B6
:1020600083604B68C36010BD01460B68CA68D05CD2
:102070000A68521C0A608B680A689A4201D30022DF
:102080000A6070477047000010B500F02FFF084845
:10209000FEF77AFC0648FEF737FD06F06FFF01F009
:1020A00074F906F097FF06F0F7FD06F0FBFF10BD90
:1020B000940100204368C268D1544268521C4260B7
:1020C000D0E901239A4201D30022426070472DE9F2
:1020D000F04104460F461546204600F06AF8A16814
:1020E000081AA84202D80020BDE8F081D4E9000116
:1020F00088420AD96268E16888182A463946FEF79C
:102100008FF860682844606021E0D4E90110401A2B
:10211000A8420AD96268E16888182A463946FEF75B
:102120007FF860682844606011E02089A188401A27
:1021300086B26268E168881832463946FEF770F860
:10214000AA1BB919E068FEF76BF8A81B60600120B4
:10215000CAE7000010B500240023022204210E4823
:1021600005F0D2FE08B9002010BD002408E00021CF
:10217000642008F01BF9012800D103E0601CC4B200
:10218000052CF4DB00BF002004490860052C00DBAF
:10219000EAE70120E8E700002002002054020020C6
:1021A00000B50346184600F004F81989081A80B2F1
:1021B00000BD0146D1E90020904204D388880A88F6
:1021C000801A80B2704788880A8910440A88801A69
:1021D00080B2F7E738B504460121402001F0A6F9A6
:1021E0003820ADF8000010208DF8030003208DF892
:1021F000020069461C4800F027FBE07901280CD159
:102200002021194800F0F4FB0821174800F0F2FBE8
:102210004FF47A7008F024F825E02021124800F0ED
:10222000E9FB642008F01CF808210F4800F0E0FBEF
:102230000A2008F015F808210B4800F0DBFB4FF4EA
:10224000FA7008F00DF81021074800F0D1FB4FF4A8
:102250007A7008F005F81021034800F0CBFB4FF42A
:102260007A7007F0FDFF38BD0018014010B510214D
:10227000C80500F09DF80D4801680DA003F0E0F9D5
:102280000A480068112801D2012010BD012406E08F
:102290000948005DFF2801D00120F6E7641C112CDD
:1022A000F6D306A003F000FA0020EEE7700200204B
:1022B000726376206E756D00B0730020446F206EDF
:1022C0006F74206572617365200D0A0010B582205D
:1022D0000949087008460078C0F1FF0048700221E3
:1022E000054800F0A3F9C821002000F04FFA08B912
:1022F000012010BD0120FCE7B073002010B5442080
:102300001749087008460078C0F1FF0048700221A4
:10231000134800F08BF914214FF4967000F036FA50
:1023200020B910A003F0C0F9002010BDFF200C4917
:1023300008704870002088700321094800F076F981
:10234000642148F2E80000F021FA20B90CA003F063
:10235000ABF90020E9E710A003F0A6F90120E4E7BB
:10236000B0730020575249544520455241534520EF
:10237000434D44202C204E4F2041434B0D0A00007A
:10238000457261736520464C415348206661696C13
:102390006564200D0A000000457261736520636F5B
:1023A000646520636F6D706C657465200D0A0000B4
:1023B00070B504460D4629A003F076F911202A498C
:1023C000087008460078C0F1FF00487002212648D6
:1023D00000F02CF90021084600F0D8F908B90020D7
:1023E00070BD22A003F060F9200E1F490870200C78
:1023F0004870200A8870CC700846007849784840B8
:102400001949897848401849C978484016490871DF
:102410000521154800F00AF90021084600F0B6F938
:1024200008B90020DCE715A003F03EF9681E0E494C
:10243000087008460078C0F1FF00487002210A4881
:1024400000F0F4F81421C82000F0A0F908B9002029
:10245000C6E70DA003F028F90120C1E772656164A9
:1024600020636D64200D0A00B07300207265616402
:102470002061646472200D0A0000000072656164CE
:10248000206E756D200D0A0072656164206F6B20EF
:102490000D0A00002DE9F04180460D461646312018
:1024A0003049087008460078C0F1FF0048700221EA
:1024B0002C4800F0BBF800214FF4967000F066F94C
:1024C00028B929A003F0F0F80020BDE8F081280E1B
:1024D00024490870280C4870280A8870CD70084676
:1024E0000078497848401F49897848401D49C97893
:1024F00048401C49087105211A4800F097F800214E
:102500004FF4967000F042F920B91DA003F0CCF80A
:102510000020DAE7701E1349087008460778002487
:1025200008E018F804100F4A601C11541146085CAA
:102530004740641CB442F4D30A49701C0F54B01CC9
:1025400081B2084800F072F800214FF4967000F054
:102550001DF920B910A003F0A7F80020B5E701206D
:10256000B3E70000B0730020575249544520434D53
:1025700044202C204E4F2041434B0D0A0000000008
:1025800057524954452041444452202C204E4F205C
:1025900041434B0D0A000000575249544520444125
:1025A0005441202C204E4F2041434B0D0A00000087
:1025B00010B506F071FB0B4801F054FD0AA003F0C2
:1025C00073F800F059F81421002000F0DFF820B96A
:1025D0000BA003F069F8002010BD0FA003F064F811
:1025E0000120F9E768400020426F6F7420696E2077
:1025F0004669726D206D6F6465200D0A0000000051
:102600004669726D206D6F6465206E6F742052652F
:10261000616479200D0A00004669726D206D6F6457
:1026200065205265616479200D0A000070B5054689
:102630000E460F48007838B102E0012007F010FE86
:1026400007F0CEFB0028F8D001200949087005B931
:1026500070BD002403E0285D06490855641CB4429F
:10266000F9D33146034807F0DBFB00BFF0E7000079
:10267000D70100201852002010B57F2003490870B0
:1026800001210248FFF7D2FF10BD0000B073002007
:1026900010B5164801F0E6FC15A003F005F8FFF7A9
:1026A000EBFF0A21002000F071F820B913A002F01E
:1026B000FBFF002010BD16A002F0F6FF19A002F0EB
:1026C000F3FFFFF7D3FD70B120A002F0EDFFFFF79D
:1026D00015FE18B122A002F0E7FF04E026A002F0E8
:1026E000E3FF0020E6E70120E4E700006840002067
:1026F0004669726D54657374200D0A004669726DE7
:102700005374617274206661696C65640D0A00001F
:102710004669726D53746172742073756363657377
:10272000730D0A005374617274204669726D4368B8
:1027300065636B436F64654E65656445726173657F
:10274000205620332E300D0A0000000053746172B1
:102750007420657261736520636F6465200D0A00E3
:102760004572617365204669726D20737563636598
:1027700073730D0A0000000045726173652046699D
:10278000726D206661696C65640D0A0070B505465E
:102790000E4600201D490870642D01DA642400E013
:1027A0002C4613E01AA002F07FFF012C00D9641E12
:1027B0001648007800B10AE0012C04D115A002F0FF
:1027C00073FF002070BD0A2007F04AFDEAE700BF52
:1027D0001EB9012007F044FD02E0304607F040FD3D
:1027E0001049114801F062F9104908600D4800785D
:1027F000792801D10120E5E70DA002F055FF094835
:1028000001780EA002F01CFF0020DBE7D4010020BD
:102810004000000041434B2074696D656F75740D75
:102820000A000000B0730020684000207002002001
:1028300041434B204572726F720D0A0061636B2039
:1028400076616C75650000002DE9F04102460025B7
:102850000026002000230024002791F803C00CF07C
:102860000F0591F803C00CF0100CBCF1000F03D061
:1028700091F802C04CEA050591F800C0BCF1000FC8
:1028800031D0146800202BE04FF0010C0CFA00F35B
:10289000B1F800C00CEA03069E4220D183004FF03D
:1028A0000F0C0CFA03F7BC4305FA03FC4CEA0404D2
:1028B00091F803C0BCF1280F06D14FF0010C0CFABF
:1028C00000FCC2F814C00AE091F803C0BCF1480F44
:1028D00005D14FF0010C0CFA00FCC2F810C0401CEE
:1028E0000828D1D31460B1F800C0BCF1FF0F34DD6B
:1028F000546800202EE000F1080C4FF0010808FA9F
:102900000CF3B1F800C00CEA03069E4221D183000B
:102910004FF00F0C0CFA03F7BC4305FA03FC4CEA2A
:10292000040491F803C0BCF1280F05D100F1080C94
:1029300008FA0CF8C2F8148091F803C0BCF1480FF3
:1029400007D100F1080C4FF0010808FA0CF8C2F8A2
:102950001080401C0828CED35460BDE8F0810000F0
:10296000F0B50A46002300240021002500F00046AF
:10297000B6F1004F02D11D4EF16901E01B4E7168A6
:10298000C0F3034583B200F44016B6F5401F08D1EA
:1029900021F07061154E766826F07066134F7E60E8
:1029A00012E000F48016B6F5801F06D1032606FA61
:1029B00005F4A14341F0706106E0460D360103FACB
:1029C00006F6B14341F0706122B1460D360103FABB
:1029D00006F6314300F00046B6F1004F02D1034E37
:1029E000F16101E0014E7160F0BD000000000140A6
:1029F0004161704701617047F0B502460B46002007
:102A000000210CE012F8016BCFB286EA070585EAD7
:102A10001064044E56F8246086EA0020491C99424E
:102A2000F0D3F0BD5CB000080148007870470000AA
:102A3000D60100200148007870470000D501002031
:102A400010B500230D220821114805F05DFA08B9E0
:102A5000002010BD0F488179407901EB00200E491C
:102A600008800C48017AC07901EB00200B4908600E
:102A7000094801880AA002F0E3FD084801680BA09C
:102A800002F0DEFD02210C4801F0D4FF0120E0E756
:102A900018020020745F00204E0200205002002027
:102AA000626C6F636B2073697A650000626C6F63A0
:102AB0006B206E756D0000002C02002010B5002305
:102AC0000D220821114805F01FFA08B9002010BD99
:102AD0000F488179407901EB00200E4908800C48AD
:102AE000017AC07901EB00200B4908600948018890
:102AF0000AA002F0A5FD084801680BA002F0A0FDA5
:102B000002210C4801F096FF0120E0E710020020AE
:102B1000745F00204E02002050020020626C6F6340
:102B20006B2073697A650000626C6F636B206E7551
:102B30006D0000002C02002070B50A480468801C5B
:102B40000568801C0668344454B1082206492046B2
:102B500000F072FA042204491031284600F06CFAA1
:102B600070BD0000E8F7FF1F5201002070B5064657
:102B70003048007800285BD12F480068B0F5006F1E
:102B800002D100202C4908602B4800682B490968B5
:102B9000884203D100202749087070BD264800688C
:102BA00026490968884206D923480068C0F50060B4
:102BB0002349086006E0214800681F490968401A57
:102BC0001F4908601E480068402811D91A4800882B
:102BD00085B24024184800684030174908601848FA
:102BE000006840381649086001201249087018E052
:102BF0001148008885B21248008884B20E480068E7
:102C00000F49096808440C49086000200C49086015
:102C1000402C03D102200749087002E00120054939
:102C2000087008484219234681213046FEF792FC7D
:102C300000BFB2E718000020100000200C000020A8
:102C4000140000204810002000BFFEE710B586B039
:102C50004FF4404000F02EFC4048FDF773FD012189
:102C6000480200F063FC0121084600F02FFC00F050
:102C700079F8002404E00020394921F81400641C8C
:102C8000902CF8D306F00EFB0020019001208DF867
:102C900008008DF809004FF4602003900020049094
:102CA00009208DF8140001A92C48FDF78DFD06239D
:102CB00001220A212948FDF7AFFD062302220B213C
:102CC0002648FDF7A9FD062303220C212348FDF722
:102CD000A3FD062304220D212048FDF79DFD0623B8
:102CE000052201211D48FDF797FD06231A460E21F6
:102CF0001A48FDF791FD002307220F211748FDF721
:102D00008BFD0023082211461448FDF785FD0023A2
:102D1000092211461148FDF77FFD01210F48FDF7FB
:102D200006FD01210D48FDF7F7FC0C48FDF7D0FD2D
:102D300000BF0A48FDF73EFD0028FAD10748FDF71D
:102D4000D7FD00BF0548FDF72BFD0028FAD1012172
:102D50000248FDF7C2FD06B010BD0000002401408E
:102D60007C0A002008B50121102000F0AFFB0121F2
:102D7000082000F0ABFB0121042000F0A7FB01209C
:102D8000ADF8000000208DF8030001208DF802004E
:102D900069461E48FFF758FD0220ADF8000069465D
:102DA0001A48FFF751FD0420ADF8000069461748A6
:102DB000FFF74AFD0820ADF8000069461348FFF709
:102DC00043FD1020ADF8000069461048FFF73CFDB8
:102DD0000220ADF8000069460D48FFF735FD2020C0
:102DE000ADF8000069460948FFF72EFD0120ADF857
:102DF000000069460748FFF727FD0220ADF80000F4
:102E000069460448FFF720FD08BD0000001001409E
:102E100000080140000C0140002343600360826011
:102E2000C160704710B500220421142007F0EAFDAC
:102E30000749086040F6C80206490748FFF7ECFF5B
:102E400040F6C80205490648FFF7E6FF10BD00003E
:102E5000D001002050490020684000208840002018
:102E60007840002010B54FF4006209490948FFF787
:102E7000D3FF4FF4A05208490848FFF7CDFF0022C6
:102E80000421142007F0BEFD0549086010BD0000B4
:102E900048100020482C002048180020582C002002
:102EA000C801002010B5FFF7DDFFFFF7BBFF0B489F
:102EB0000B490860002008710820487107208871BC
:102EC0000120C871074808490860002008710820DF
:102ED0004871072088710120C87110BD20A107002A
:102EE0008C010020A08601009401002008B501217A
:102EF000042000F01BFB0121082000F017FB01213A
:102F0000102000F013FB0121202000F00FFB4FF4F4
:102F10008060ADF8000010208DF8030003208DF8CC
:102F2000020069464148FFF78FFC4FF40060ADF89E
:102F3000000069463D48FFF787FC4FF48050ADF82C
:102F4000000069463948FFF77FFC4FF40050ADF8A8
:102F5000000069463548FFF777FC4FF48040ADF834
:102F6000000069463148FFF76FFC4FF40040ADF8B0
:102F7000000069462D48FFF767FC4020ADF80000CF
:102F800069462B48FFF760FC8020ADF800006946D9
:102F90002748FFF759FC4FF480612448FFF728FDCC
:102FA0004FF400612148FFF723FD4FF480511F4883
:102FB000FFF71EFD4FF400511C48FFF719FD4FF4B9
:102FC00080411A48FFF714FD4FF400411748FFF7FE
:102FD0000FFD40211648FFF70BFD80211448FFF735
:102FE00007FD4FF40070ADF8000010208DF80300CD
:102FF00003208DF8020069460E48FFF725FC4FF4C8
:1030000000710C48FFF7F4FC0420ADF8000010201C
:103010008DF8030001208DF8020069460348FFF790
:1030200013FC04210148FFF7E3FC08BD0014014034
:1030300000100140000C014030B50B46002100BFDC
:1030400016E00A24B4EB107F05D9302404EB107489
:1030500003F8114005E0412404EB10740A3C03F826
:103060001140000100254C00641C1D554C1CE1B2B0
:103070009142E6DB30BD000010B507F0A7FE044624
:1030800009480068201AB0F5967F0CD907480068F7
:1030900080F48060054908600846006880F400609C
:1030A00008600148046010BD640200200C14014057
:1030B00010B590B00121102000F038FA4FF47A706A
:1030C00007F0CEF80023022208213B4804F01CFF41
:1030D00010B9002010B010BD002427E04FF480602C
:1030E000ADF8000010208DF8030003208DF80200D9
:1030F00069463248FFF7A8FB4FF480612F48FFF77D
:1031000077FC4FF47A7005F00DFF0021022007F0E4
:103110004DF9012800D10BE04FF480612748FFF7FB
:1031200069FC012007F09CF8601CC4B2052CD5DBBB
:1031300000BF052C01DB0020CCE74FF48060ADF828
:10314000000018208DF8030003208DF80200694666
:103150001A48FFF779FB1A48FEF7A8FE19480590B0
:1031600000200690102007900020089009908020F1
:103170000A9000200B900C900D904FF400500E9090
:1031800000200F9005A90E48FEF750FF4FF4612074
:1031900001900020ADF80800ADF80A00ADF80C0071
:1031A000ADF810000C20ADF80E0001210448FEF728
:1031B00071FE01208EE70000240200200010014073
:1031C00058040240044C004000BFFEE72DE9F843DC
:1031D00006460F460024B088273020F01F084046DE
:1031E00006F00EFC044644B915A002F05DFA414613
:1031F00019A002F025FABDE8F88325460220A8713F
:10320000EF710020A88004F108002860B2883146E0
:103210002868FDF705F80094012F0CD10023142233
:1032200069461048006807F0E7FC012802D02046F4
:1032300007F000F800E000BF00BF00BFDBE70000C0
:103240004D616C6C6F63206D73676164647220659F
:1032500072726F72210D0A006D616C6C6F63207366
:10326000697A6500C80100202DE9F84F06468946B5
:103270000024B2462AA002F017FAB07A012814D12D
:10328000F07A202802D0F07A21280ED19AF808107E
:103290009AF8090001EB002707F1270020F01F082A
:1032A000404606F0ADFB044608E0B78807F127006A
:1032B00020F01F08404606F0A3FB044644B91DA0B9
:1032C00002F0F2F9414626A002F0BAF9BDE8F88F03
:1032D000254601202C46A87185F807900020A8807B
:1032E00004F10800286022A002F0DEF93A463146D7
:1032F0002868FCF795FF0094B9F1020F0CD1002368
:10330000142269461F48006807F076FC012802D0A5
:10331000204606F08FFF00E000BF00BF00BFD5E7EA
:103320004D736753656E6446726F6D5573622030DE
:10333000000000004D736753656E6446726F6D55F3
:103340007362203A204D616C6C6F63206D7367610E
:10335000646472206572726F72210D0A00000000B1
:103360004D616C6C6F632073697A6520000000000A
:103370004D736753656E6446726F6D55736220318D
:1033800030000000D0010020704708B54FF44070B5
:1033900000F07EF81C208DF800000C208DF8010054
:1033A00000208DF8020001208DF80300684600F02F
:1033B00037F843208DF800000D208DF80100002023
:1033C0008DF8020001208DF80300684600F028F80F
:1033D00014208DF800000E208DF8010000208DF8DB
:1033E000020001208DF80300684600F019F8412022
:1033F0008DF800000F208DF8010001208DF80300EA
:10340000684600F00DF834208DF800000B208DF890
:10341000010001208DF80300684600F001F808BDA6
:1034200070B5002100230F22C47804B3154C246822
:1034300004F4E064C4F5E064210AC1F10403CA4065
:10344000447804FA03F184781440214309010E4CB6
:103450000678A155047804F01F050124AC400578D6
:103460006D11AD0005F1E025C5F8004109E00478D3
:1034700004F01F050124AC40044D0678761145F890
:10348000264070BD0CED00E000E400E080E100E0CB
:1034900002490143024A1160704700000000FA052A
:1034A0000CED00E010B5024802F036FD10BD000042
:1034B0005404002001460020034A506820F4404094
:1034C00008435060704700000010024029B1064ACE
:1034D00052690243044B5A6104E0034A5269824331
:1034E000014B5A61704700000010024029B1064AA2
:1034F000D2690243044BDA6104E0034AD269824391
:10350000014BDA61704700000010024029B1064A01
:1035100012690243044B1A6104E0034A12698243B0
:10352000014B1A61704700000010024029B1064AA1
:1035300092690243044B9A6104E0034A9269824310
:10354000014B9A61704700000010024029B1064A01
:10355000D2680243044BDA6004E0034AD268824333
:10356000014BDA6070470000001002402DE9F04185
:1035700000210022002500230026002400278C467D
:10358000DFF86081D8F8048008F00C0121B104292B
:1035900007D0082959D109E0DFF84C81C0F8008034
:1035A00058E0DFF84881C0F8008053E0DFF834814C
:1035B000D8F8048008F47012DFF82881D8F8048065
:1035C00008F48035920C0D2A01D0921C00E00622EE
:1035D00035B9DFF81C8102FB08F8C0F8008033E041
:1035E000DFF80081D8F82C8008F48036DFF8F4800A
:1035F000D8F82C8008F00F0808F1010446B9DFF86C
:10360000EC80B8FBF4F808FB02F8C0F800801BE07F
:10361000DFF8D080D8F82C80C8F3031808F1010730
:10362000DFF8C080D8F82C80C8F3032808F1020C1A
:10363000DFF8B880B8FBF7F808FB0CF8B8FBF4F833
:1036400008FB02F8C0F8008004E0DFF89C80C0F8B6
:10365000008000BF00BFDFF88C80D8F8048008F03D
:10366000F0010909DFF88C8018F80130D0F80080EB
:1036700028FA03F8C0F80480DFF86880D8F80480DE
:1036800008F4E061090ADFF86C8018F80130D0F81E
:10369000048028FA03F8C0F80880DFF84880D8F8DA
:1036A000048008F46051C90ADFF8488018F8013036
:1036B000D0F8048028FA03F8C0F80C80DFF82480E2
:1036C000D8F8048008F44041890BDFF82C8018F802
:1036D0000130D0F80C80B8FBF3F8C0F81080BDE8DA
:1036E000F08100000010024000127A0000366E01E6
:1036F00000093D0074020020840200200149086096
:1037000070470000D800424210B5002402201C4936
:10371000C8732120C87200208870032408E018486C
:1037200080781749095D084415498870601CC4B247
:10373000102CF4DB002302221021114804F0E4FBDA
:1037400008B9002010BD40F6B83006F089FD00240D
:1037500006E006F0B5FE012800D103E0601CC4B20B
:10376000052CF6DB00BF052C04DB06A001F09CFF56
:103770000020E7E702210E4801F05CF90120E1E7B3
:103780003E0200200D0A0D0A434D442047455420B7
:10379000535441545553203A206572617365206635
:1037A0006C617368206661696C65640D0A000000D5
:1037B0002C02002010B54FF47A7006F051FD002065
:1037C00018498870032408E0164880781549095D77
:1037D000084414498870601CC4B2102CF4DB002328
:1037E000022210210F4804F08FFB08B9002010BD01
:1037F000002406E006F064FE012800D103E0601C0E
:10380000C4B2052CF6DB00BF052C04DB06A001F0DA
:103810004BFF0020EBE702210E4801F00BF90120DD
:10382000E5E700002E0200200D0A0D0A434D44205A
:1038300047455420535441545553203A20657261F2
:103840007365207372616D206661696C65640D0A31
:10385000000000002C0200202DE9F0410646002463
:103860000027B07C1030F17C00EB0120471E380AA5
:10387000364908704F702D20C870002008714871BB
:1038800088710220C87132480078C87230480088B8
:10389000000A88722E480068000C48722C480068A4
:1038A000000E0872B17CF07C01EB00252749CD7336
:1038B000280A8873280C4873280E087300BF07E095
:1038C00004F11800315C0838204A1154601C84B29D
:1038D000AC42F5D300201D498870032408E01B4842
:1038E00080781A49095D084418498870601C84B2C0
:1038F00005F11000A042F2D8781C81B20023022208
:10390000124804F001FB10B90020BDE8F08100244A
:1039100006E006F0D5FD012800D103E0601C84B26A
:10392000052CF6DB00BF052C04DB0AA001F0BCFE71
:103930000020EAE70648006828440549086002219B
:103940000F4801F077F80120DFE7000074630020E2
:10395000580200200D0A0D0A434D442047455420CB
:10396000535441545553203A206572617365207356
:1039700072616D206661696C65640D0A000000006B
:103980002C0200202DE9F041064600240027B07CDF
:103990001030F17C00EB0120471E380A35490870D1
:1039A0004F702D20C8700020087148718871C8714F
:1039B00031480078C87230480088000A88722E4862
:1039C0000068000C48722C480068000E0872B17C38
:1039D000F07C01EB00252749CD73280A8873280C59
:1039E0004873280E087300BF07E004F11800315C2B
:1039F0000838204A1154601C84B2AC42F5D3002030
:103A00001C498870032408E01A4880781949095D28
:103A1000084418498870601C84B205F11000A04267
:103A2000F2D8781C81B200230222124804F06CFA0A
:103A300010B90020BDE8F081002406E006F040FD4A
:103A4000012800D103E0601C84B2052CF6DB00BF26
:103A5000052C04DB09A001F027FE0020EAE7064858
:103A6000006828440449086002210F4800F0E2FF82
:103A70000120DFE774630020540200200D0A0D0AC4
:103A8000434D442047455420535441545553203A04
:103A9000206572617365207372616D206661696C67
:103AA00065640D0A000000002C0200202DE9F041A1
:103AB00007460E463846FEF77CFB054615B9002042
:103AC000BDE8F081002405E03846FEF7CDFA305518
:103AD000601C84B2AC42F7DB2846F1E770B50246C1
:103AE0000023D2E90040A04276D292E01468D06868
:103AF000005DCC2871D11068401C40F6C804B0FBB2
:103B0000F4F504FB1500D468205CCC2876D110684D
:103B1000801C40F6C804B0FBF4F504FB1500D46823
:103B2000205CCC286AD11068C01C40F6C804B0FBE9
:103B3000F4F504FB1500D468205CCC285ED1106835
:103B4000083040F6C804B0FBF4F504FB1500D46857
:103B5000245C1068093040F6C805B0FBF5F605FB9B
:103B60001600D568285C04EB00205B4C2060506890
:103B700000F6C8001468001B574C2468A04231D1DD
:103B80005548006818281FD1AA20C870887048704E
:103B9000087004230BE01068184440F6C804B0FB1A
:103BA000F4F504FB1500D468205CC8545B1C4A483B
:103BB00000688342EFD3484C106824682044A0F684
:103BC000C8001060012070BD40F6C7041068A04214
:103BD00004D1002010601CE024E00FE01068401CBD
:103BE000106016E040F6C7041068A04202D1002021
:103BF00010600EE01068401C10600AE040F6C70438
:103C00001068A04202D10020106002E01068401C41
:103C10001060506800F6C8001468001B10283FF6BA
:103C200065AF56E050E01468D068005DCC2848D1FC
:103C30001068401CD468205CCC2842D11068801CDD
:103C4000D468205CCC283CD11068C01CD468205CAF
:103C5000CC2836D110680830D468245C106809304C
:103C6000D568285C04EB00201B4C2060D2E90040A2
:103C7000001B194C2468A0421FD117480068152862
:103C800017D1AA20C870887048700870042305E016
:103C900014681C44D068005DC8545B1C0E48006862
:103CA0008342F5D30C4C1068246820441060012036
:103CB00089E71068401C106006E01068401C106026
:103CC00002E01068401C1060D2E90040001B102880
:103CD000A9D2002077E70000F80100202DE9F0418B
:103CE00080460C4642E04046FEF763FA102802D2B6
:103CF0000020BDE8F0814046FDF722FBAA2831D123
:103D000021464046FDF721FB2746BD883868B0F1C3
:103D1000AA3F03D04046FEF7A7F927E0B5F5886F24
:103D200001DA102D0BD24046FEF79EF94046FEF711
:103D30009BF94046FEF798F94046FEF795F9404654
:103D4000FEF737FAA84201DA0020D2E7002605E0A4
:103D50004046FEF789F9A055701C86B2AE42F7DBEB
:103D60000120C6E74046FEF77FF900BFBBE72DE91B
:103D7000F04781460D4654E04846FEF71AFA1028EF
:103D800002D20020BDE8F0874846FDF7D9FAAA28FC
:103D900043D129464846FDF7EAFA2C46A07A012885
:103DA0000ED1E07A202802D0E07A212808D1A0465E
:103DB00098F8081098F8090001EB002086B200E09E
:103DC000A6882068B0F1AA3F03D04846FEF74CF918
:103DD00027E0B6F5A05F01DA102E0BD24846FEF7B9
:103DE00043F94846FEF740F94846FEF73DF9484694
:103DF000FEF73AF94846FEF7DCF9B04201DA002056
:103E0000C0E7002705E04846FEF72EF9E855781C84
:103E100087B2B742F7DB0120B4E74846FEF724F942
:103E200000BFA9E72DE9F04180460E4617464046FF
:103E3000FEF7BFF90546BD4202DA0020BDE8F08179
:103E4000002405E04046FEF70FF93055601C84B2AF
:103E5000AC42F7DB2846F1E72DE9F04F8BB00024A8
:103E600052E04FF00009CA460AE00AEBCA002044BB
:103E7000284931F8100048441FFA80F90AF1010A74
:103E8000BAF1100FF1D348464FEAE97109EB11710D
:103E9000C1F30F19204951F82400FCF707FBCDE9C5
:103EA00002014846FCF7E1FA07464FF066321B4B29
:103EB000FCF7FAF905460022194BFCF767FACDE941
:103EC0000001DDE90223FCF7EFF90022154BCDE9F3
:103ED0000401FCF7E9F90022134BCDE90601FCF7D8
:103EE00055FACDE90801FCF7F4FA83460F4801F0D2
:103EF000DBFB0F495846FCF7A5F90546FCF7C2FA6B
:103F00000C4941F82400641C092CAAD30BB0BDE86D
:103F1000F08F00007C0A00209C01002066660A40A9
:103F20000000B0400090744000A074409C0B002042
:103F30000000C842580A0020F8B502236A46012151
:103F4000384805F0D5FD9DF801109DF8000001EB03
:103F5000002087B202236A461946324805F0C8FDA0
:103F60009DF801109DF8000001EB002085B20223AE
:103F70006A4605212B4805F0BBFD9DF801109DF810
:103F8000000001EB002086B205EB85014800C11757
:103F900000EB5171C910244A916007FB06F0C1176C
:103FA00000EB5151CC120020114608604860FEF72A
:103FB00041FD072804D11C48046000201A494860CC
:103FC000FEF738FD062804D100201749086008468E
:103FD0004460FEF729FD082808D11348046000203A
:103FE000114948600846008810490880FEF71CFD0A
:103FF000092807D100200C490860084644608088E1
:104000000B4908800848006807498968484342F21C
:104010001071B0FBF1F00449C860064801F044FBA0
:10402000F8BD00001C100020480A0020CC01002030
:10403000CE0100209C0B002010B506F0C7FE044600
:1040400007480068201AB0F5FA7F00D210BD044876
:104050000460FFF701FFFFF76FFF00BFF6E7000006
:104060006C020020002141600160704770B5054678
:104070000C461248FEF794F8A04210DC0DE0104800
:1040800000680E4908600846FEF78AF8A04203DC83
:10409000052006F0E5F800E000E0F0E700BF084882
:1040A000006806490860224629460448FEF70FF8D2
:1040B000024840680349086070BD0000482C002099
:1040C000100000200C00002010B500F001F810BD19
:1040D0000CB50020019000903F48006840F480300B
:1040E0003D49086000BF3C48006800F40030009083
:1040F0000198401C0190009818B90198B0F5A06F84
:10410000F1D13548006800F4003010B10120009072
:1041100001E000200090009801285CD12F48006841
:1041200040F010002D4908600846006820F00700A4
:1041300008600846006840F00200086026484068B1
:10414000254948600846406848600846406840F491
:10415000806048600846C06A214908401E49C8621C
:104160000846C06A1F4908431B49C86208460068E0
:1041700040F08060086000BF1748006800F00060F1
:104180000028F9D01448406820F47C101249486097
:104190000846406840F4E81048600846006840F06F
:1041A0008070086000BF0C48006800F000700028B4
:1041B000F9D00948406820F00300074948600846E4
:1041C000406840F00200486000BF0348406800F0CB
:1041D0000C000828F9D10CBD00100240002002405C
:1041E00000F0FEFF5408010001490870704700000C
:1041F000D5010020F0B5002100200023002400227A
:1042000000250026354F7F6807F00C0121B10429F5
:1042100008D008294BD10BE0314FDFF8C8C0CCF8EB
:1042200000704AE0304FDFF8BCC0CCF8007044E0CA
:104230002A4F7F6807F47010284F7F6807F4803397
:10424000800C0D2801D0801C00E0062033B9274FD8
:104250004743DFF890C0CCF8007027E01F4FFF6A9B
:1042600007F480341D4FFF6A07F00F077A1C44B92A
:104270001D4FB7FBF2F74743DFF868C0CCF800707A
:1042800014E0164FFF6AC7F303177D1C134FFF6A34
:10429000C7F30327BE1C144FB7FBF5F77743B7FBF3
:1042A000F2F74743DFF83CC0CCF8007005E00C4F54
:1042B000DFF830C0CCF8007000BF00BF074F7F6848
:1042C000C7F30317DFF828C01CF80710054F3F6835
:1042D000CF40DFF810C0CCF80070F0BD00100240F5
:1042E00000127A00E400002000366E0100093D0053
:1042F000E800002010B51648006840F0010014499D
:10430000086008464068134908401149486008465B
:104310000068114908400E4908600846006820F40A
:10432000802008600846406820F4FE004860084687
:10433000006820F0A05008604FF47F0088600020E3
:10434000C862FFF7C1FE4FF000600449086010BD6D
:10435000001002400000FFF0FFFFF6FE08ED00E055
:1043600010B50121880700F00DF918B10121880767
:1043700000F004F810BDCA4302827047CA430282AB
:10438000704721B1028842F00102028004E00288F5
:104390004FF6FE731A4002807047000010B50446C5
:1043A0006848844208D10121C014FFF7CFF80021EA
:1043B000E014FFF7CBF8C4E0B4F1804F08D101213D
:1043C0000846FFF7A3F800210120FFF79FF8B8E0A7
:1043D0005D48844208D101210220FFF797F80021AF
:1043E0000220FFF793F8ACE05848844208D101213D
:1043F0000420FFF78BF800210420FFF787F8A0E0E6
:104400005348844208D101210820FFF77FF800219A
:104410000820FFF77BF894E04E48844208D1012140
:104420001020FFF773F800211020FFF76FF888E0E5
:104430004948844208D101212020FFF767F8002174
:104440002020FFF763F87CE04448844208D1012132
:104450004014FFF77BF800216014FFF777F870E055
:104460003F48844209D10121C804FFF76FF80021B9
:104470004FF40020FFF76AF863E03A48844209D11C
:1044800001210805FFF762F800214FF48010FFF7C3
:104490005DF856E03448844209D101214805FFF710
:1044A00055F800214FF40010FFF750F849E02F486D
:1044B000844208D101214020FFF728F80021402044
:1044C000FFF724F83DE02A48844208D101218020EA
:1044D000FFF71CF800218020FFF718F831E025488D
:1044E000844208D101218015FFF710F80021A015A2
:1044F000FFF70CF825E02048844209D10121080487
:10450000FFF724F800214FF48030FFF71FF818E080
:104510001A48844209D101214804FFF717F8002105
:104520004FF40030FFF712F80BE01548844208D131
:1045300001218804FFF70AF800214FF48020FFF7DB
:1045400005F810BD002C01400004004000080040A8
:10455000000C0040001000400014004000340140F6
:10456000004C014000500140005401400018004040
:10457000001C004000200040004001400044014079
:104580000048014030B50246002000230024158A6F
:1045900005EA0103958905EA010413B10CB1012074
:1045A00000E0002030BD1AB183890B43838102E013
:1045B00083898B4383817047002202881D4B984278
:1045C0000ED01D4B98420BD0B0F1804F08D01B4B42
:1045D000984205D01A4B984202D01A4B984204D107
:1045E0004FF68F731A404B881A43174B984207D0E7
:1045F000164B984204D04FF6FF431A40CB881A431B
:1046000002808B8883850B8803850A4B98420BD0E8
:10461000094B984208D00E4B984205D00D4B98425A
:1046200002D00D4B984201D10B7A0386012383827D
:1046300070470000002C014000340140000400409D
:1046400000080040000C0040001000400014004032
:1046500000400140004401400048014010B50A24D8
:1046600014E004F077FC4FF47A7005F0F9FD04F0E3
:10467000E7FA4FF4FA7005F0F3FD04F075FC6420DE
:1046800005F0EEFDFDF794FF00B104E0201EA4F15B
:104690000101CCB2E5D100BF0CB9002010BD012052
:1046A000FCE700002DE9F04781460E46174600243E
:1046B0004FF02008404605F0A3F9044624B90EA0A7
:1046C00000F0F2FFBDE8F08725464FF0AA302860E1
:1046D0001020A8800220A872EE72EF710020E8601E
:1046E00001212846FEF772FD204605F0A3FD09A032
:1046F00000F0DAFF00BFE5E74D616C6C6F63206D81
:10470000656D6F7279206661696C656421200D0AA0
:104710000000000054657374436D645265706C79D9
:104720000D0A000010B50446A07A012805D0022821
:1047300007D1204600F0A4F904E0204600F0E2FD95
:1047400000E000BF00BF10BD2DE9F04F9BB0002678
:1047500006F03CFB83469D480068ABEB0000B0F5DB
:10476000FA7F02D21BB0BDE8F08F9848C0F800B0C5
:104770004FF0400A504605F043F906461EB994A092
:1047800000F092FFEEE735464FF0AA3028603C205B
:10479000A8800220A8720320E8720020E871E86077
:1047A00006F1100491484068606090488068A060FD
:1047B0008E48C068E0608E480088E0848D4800889C
:1047C00020858D48FFF74EFC002791E0042005F07E
:1047D00039F9C82005F044FD042003F041FF68B119
:1047E00085480068153040F6C801B0FBF1F201FBC6
:1047F000120081490860022020747CE07E48006835
:1048000000F6C80040F6C801B0FBF1F201FB12004F
:104810007949C968085CCC2866D17748006800F6F9
:10482000C90040F6C801B0FBF1F201FB1200724969
:10483000C968085CCC2857D16F48006800F6CA00E8
:1048400040F6C801B0FBF1F201FB12006A49C968E9
:10485000085CCC2848D16848006800F6CB0040F6D8
:10486000C801B0FBF1F201FB12006349C968085CA2
:10487000CC2839D16048006800F50D6040F6C801C9
:10488000B0FBF1F201FB12005B49C968095C5A48B0
:10489000006800F6D10040F6C802B0FBF2F302FB5C
:1048A0001300554AD268105C01EB002015281BD17B
:1048B0005148006800F6DC0040F6C801B0FBF1F298
:1048C00001FB12004C49C968085C05280CD1002086
:1048D000207449480068153040F6C801B0FBF1F279
:1048E00001FB120044490860C82005F0B9FC7F1C98
:1048F0000A2FFFF66BAF00BF00206074A074E07455
:104900003E48008AA0823D48808AE0823B48008B76
:1049100020833A48808B60833848008CA0833748D6
:10492000808CE0833548008D20843448808D6084FD
:104930003248008EA084FEF77DF881464846B9F1E2
:10494000020F0CD0062802D007280CD103E0032068
:1049500084F82A000BE0022084F82A0007E00120F6
:1049600084F82A0003E0002084F82A0000BF00BF7A
:10497000A846002712E018F8070000F00F002049B1
:10498000095C7800401C0DF8001018F807001C495D
:1049900001EB101000780DF817007F1CA888B842B2
:1049A000E9DC0021A8884000401C0DF8001015A08B
:1049B00000F07AFE684600F077FE01212846FEF7F7
:1049C00005FC304605F036FC00BFCBE6680200204F
:1049D0004D616C6C6F63206D656D6F7279206661DF
:1049E000696C656421200D0A00000000205F002032
:1049F000CC010020CE01002068400020480A0020A1
:104A00005CB400087265706C7920636F64653A006D
:104A1000014601F11000064BC2685A6002699A60B3
:104A20004269DA6002791A748288120A5A747047ED
:104A3000205F002070B505460E460F48007838B15B
:104A400002E0012005F00CFC05F0CAF90028F8D0BE
:104A500001200949087005B970BD002403E0285DF4
:104A600006490855641CB442F9D33146034805F0A1
:104A7000D7F900BFF0E70000D7010020185200204E
:104A80002DE9F84F054600240027A346002000909A
:104A9000A94695F80BA0AAF102001A287ED2DFE8F9
:104AA00010F04A0062007D001A0044004D007D00B5
:104AB0008E009F00AD007D00BE0046018C01850385
:104AC000AA03AD03B003B403B703BB037D00BF0368
:104AD000C70308040B04E4A000F0E6FD00240AE08C
:104AE00004F042FA4FF4FA6005F0BAFB00F0BEFCA5
:104AF00000B102E0641C0A2CF2D300BF0A2C08D2D9
:104B0000E1A000F0D1FD002205210120FFF7CAFD40
:104B100007E0E0A000F0C8FD012205211046FFF7E4
:104B2000C1FDE0A000F0C0FDCAE3E8A000F0BCFDBC
:104B300000F00AFDC4E300F01BFDC1E3EDA000F0AE
:104B4000B3FD0020F8490870FFF788FD28B1002266
:104B500007210120FFF7A6FD04E0012207211046EE
:104B6000FFF7A0FDACE3002402E0FFF7E5F9641CC9
:104B70001E2CFAD34FF00008002407E0FFF7DCF901
:104B8000FFF76AF9E94800888044641C1E2CF5D3BD
:104B90001E20B8FBF0F0E549088000E08FE304F048
:104BA000B1FB642005F05CFBE1A000F07DFD04F0AA
:104BB00019F9C82005F054FBFFF7C6FD80E300207B
:104BC000D9490870E6A000F06FFDFDF77FFBC82013
:104BD00005F046FB002209210120FFF763FD6FE38A
:104BE000EAA000F061FDFBF7A5FE0720FFF7FCFA45
:104BF00000220A210120FFF755FD61E30020CA4988
:104C00000870EEA000F050FDFBF778FE0620FFF7DD
:104C1000EBFA00220B210120FFF744FD50E3F4A042
:104C200000F042FD2E46B17C3546F07C01EB0020C1
:104C300087B2317D707D01EB0021B07D01EB004139
:104C4000F07D01EB0060F6490860002458E0FF2F7A
:104C500028DD182101EB042188194FF48072F049F6
:104C60000968FDF717FC78B9EE4800781F2805D1D0
:104C700003220D210120FFF715FD04E001220D2183
:104C80001046FFF70FFD48E0641CE548006800F59A
:104C90008070E3490860A7F5807087B2E2A000F059
:104CA00003FD2DE0FF2F01DC012000E00020002F9C
:104CB00001DD012100E00021084008B3182101EBCB
:104CC000042188193A46D6490968FDF7E3FB90B9F3
:104CD000DEA000F0E9FCD34800781F2805D10322AC
:104CE0000D210120FFF7DEFC04E001220D2110461A
:104CF000FFF7D8FC11E0641C0027CBA000F0D4FC27
:104D0000042C01D2012000E00020002F01DD012150
:104D100000E000210840002899D100BF00220D21A9
:104D20000120FFF7BFFCD2A000F0BEFCC8E2DBA070
:104D300000F0BAFC04F00EF9E2A000F0B5FC03F0BC
:104D400095FF0020FFF750FA40F2DC5005F088FA9A
:104D50000A2005F085FA04F007F9DFA000F0A4FCB2
:104D60004FF47A7005F07CFA0820E04908700024BE
:104D700002E0FFF7E1F8641C1E2CFAD34FF00008A4
:104D8000002405E0FFF7D8F8D94800888044641C67
:104D90001E2CF7D31E20B8FBF0F0D54908800A205E
:104DA000D249087004F01EF80220FFF71DFA002215
:104DB0000E210120FFF776FC82E204F013F8642054
:104DC00005F04EFAE87908BB002004F03BFE002411
:104DD00014E0002003F044FC78B1C64800681530A8
:104DE00040F6C801B0FBF1F201FB1200C1490860B6
:104DF00000220F210120FFF755FC641C0A2CE8D388
:104E000006220F210120FFF74DFCCEE1E8790128B1
:104E100029D104F017FE002418E0012003F020FC43
:104E200080B1B4480068153040F6C801B0FBF1F21B
:104E300001FB1200AF49086001220F211046FFF765
:104E400031FC06E00A2005F00BFA641CB4F5967FED
:104E5000E3D300BFB4F5967F04D106220F210120D1
:104E6000FFF720FCA1E147E1546573745365727646
:104E7000696365436D642073746172742074657333
:104E800074200D0A000000007374617274206F6B4F
:104E90000D0A00007374617274206661696C656448
:104EA0000D0A00007265706C7920204D53475F54E5
:104EB0005950455F434D445F53544152545F5445EC
:104EC00053545F5245510D0A00000000546573743D
:104ED00053657276696365436D64204D53475F5433
:104EE0005950455F434D445F5741524E5F524551C3
:104EF000200D0A00546573745365727669636543C7
:104F00006D64204D53475F545950455F434D445F96
:104F1000424F4F545F494E5F4941505F4D4F4445AA
:104F20005F524551200D0A0088010020CE0100206B
:104F30005465737453657276696365436D64204D7F
:104F400053475F545950455F434D445F5445535454
:104F50005F524553554C545F524551200D0A000095
:104F60005465737453657276696365436D64204D4F
:104F700053475F545950455F434D445F4352595026
:104F8000545F524551200D0A0000000054657374AF
:104F900053657276696365436D64204D53475F5472
:104FA0005950455F434D445F574F524B5F435552F5
:104FB00052454E545F524551200D0A00546573749A
:104FC00053657276696365436D64204D53475F5442
:104FD0005950455F434D445F534C4545505F4355E1
:104FE0005252454E545F524551200D0A00000000B8
:104FF0000D0A54455354205441534B3A204D5347C6
:105000005F545950455F434D445F544553545F4D81
:1050100043555F434F44455F52455350210D0A00AD
:10502000F0010020B0730020434D445F54455354B9
:105030005F4D43555F434F444520575249544520E7
:105040005355434345530D0A00000000434D445F50
:10505000544553545F4D43555F434F444520575289
:10506000495445204641494C45440D0A0000000082
:105070007265706C7920204D53475F545950455FDD
:10508000434D445F544553545F4D43555F434F4434
:10509000455F524553500D0A000000000D0A204D97
:1050A00053475F545950455F434D445F54455354F3
:1050B0005F4D43555F434F44455F52455354415202
:1050C00054000000206472765F706F7765725F6FC6
:1050D000666628290D0A0000206472765F706F777B
:1050E00065725F6F6E28290D0A000000D60100204E
:1050F000CC01002068400020E879022829D104F082
:10510000A1FC002418E0022003F0AAFA80B16E4846
:105110000068153040F6C801B0FBF1F201FB120047
:105120006949086002220F210120FFF7BBFA06E05F
:105130000A2005F095F8641CB4F5967FE3D300BF10
:10514000B4F5967F31D106220F210120FFF7AAFA8C
:105150002BE0E879032828D104F074FC002418E03F
:10516000032003F07DFA80B157480068153040F6FF
:10517000C801B0FBF1F201FB1200534908600322A1
:105180000F210120FFF78EFA06E00A2005F068F8EB
:10519000641CB4F5967FE3D300BFB4F5967F04D1C9
:1051A00006220F210120FFF77DFA89E00020474900
:1051B0000870002411E045480078012808D144A077
:1051C00000F072FA002210210120FFF76BFA06E0CE
:1051D0004FF47A7005F044F8641C042CEBD300BF44
:1051E000042C07D13EA000F05FFA012210211046E6
:1051F000FFF758FA64E003F0A9FC61E003F098FBC4
:105200005EE0284603F022FC5AE003F03DFB57E045
:10521000284603F0E7FB53E0284603F0DDFB4FE0B0
:1052200003F0A2FE002218210120FFF73BFA47E01D
:1052300002F00AFE4FF47A7005F012F8CC202E49E5
:10524000C8708870487008700020C87188714871F3
:105250000871102008720020C8738873487308739F
:10526000C8728872487210212348FDF7DFF94FF4A5
:105270007A7004F0F5FF002415E02048006840F63D
:10528000C801081A104948601D490F48FEF726FC5E
:1052900020B101211A48FDF799FF06E04FF47A701A
:1052A00004F0DEFF641C052CE7D300BFFFF74CFAC7
:1052B00006E002F05DFD03E002F096FD00E000BFB5
:1052C00000BFBDE8F88F000068400020DC0000202F
:1052D00043414E2053454E534F52204F4B00000048
:1052E00043414E2053454E534F52204953204E4F79
:1052F00054204F4B000000004C5F0020340402405B
:105300005C5F002070B505460024EE7A022E04D0C2
:10531000202E0AD0212E6DD13BE00121284600F03D
:1053200069F9284600F038F965E034A000F0BCF9CE
:1053300001203B4908703B48FEF794FE03F052FD04
:105340004FF0CC302860284602F068FE00240AE0C6
:1053500005F034F918B134A000F0A6F906E00A20EF
:1053600004F07EFF641CB4F57A7FF1DB00BFB4F576
:105370007A7F08D12DA000F097F90022294620203D
:1053800002F010FE04E001222946202002F00AFE6D
:1053900031E02CA000F088F92248FEF763FE03F00C
:1053A00021FD4FF0CC302860284602F037FE002463
:1053B0000AE005F003F918B11BA000F075F906E04A
:1053C0000A2004F04DFF641CB4F57A7FF1DB00BFC6
:1053D000B4F57A7F08D115A000F066F900222946BD
:1053E000212002F0DFFD04E001222946212002F005
:1053F000D9FD00E000BF00BF70BD00000D0A4D5395
:10540000475F545950455F57524954455F4445568C
:105410004943455F46494C455F52455100000000F5
:10542000E401002068400020400000000D0A4E4FBB
:105430002041434B2046524F4D204D41494E424F53
:10544000415244000D0A4D53475F545950455F5730
:10545000524954455F4445564943455F46494C458A
:105460005F4D4F52455F52455100000070B500241A
:1054700024A000F019F903F0F9FB03F06BFD0920FB
:10548000254908704FF47A7004F0EAFE00BF02E08C
:10549000FEF752FD641C1E2CFADB0025002405E0FB
:1054A000FEF74AFD1D4800880544641C1E2CF7DBEE
:1054B0001E20B5FBF0F01949088003F023FFFDF72B
:1054C000C5FB17A000F0F0F803F0E6FB0020FEF7A4
:1054D0008BFE4FF47A7004F0C3FE03F0B1FB40F290
:1054E000DC5004F0BDFE03F03FFD12A000F0DCF83C
:1054F0004FF4FA7004F0B4FEFDF7CAF806463046E1
:1055000070BD000054657374537461727454657394
:105510007420300D0A000000D6010020CE010020CA
:10552000206472765F706F7765725F6F6666282998
:105530000D0A0000206472765F706F7765725F6F8E
:105540006E28290D0A00000010B57920074908705F
:10555000522048700846407880F0FF008870002094
:10556000C87004210148FFF765FA10BDD80100207A
:1055700010B57920074908705120487008464078D6
:1055800080F0FF0088700020C87004210148FFF7F8
:1055900051FA10BDD80100202DE9F041054605F172
:1055A0001008D8F8046005F11807002404E0002072
:1055B0000E490855601CC4B2402CF8DB0C4800684A
:1055C000401C0B49086000240BE04FF48072314608
:1055D0003846FCF75FFF06F5807607F58077601C9C
:1055E000C4B2042CF1DB0120BDE8F0819C0B00204B
:1055F0006002002070B504460D464FF0AA302060CE
:105600001820A0800120A0720220E072E571002025
:10561000E06001212046FDF7D9FD02A000F044F82A
:10562000012070BD73656E642077726974652066B1
:10563000696C65207265706C79200D0A00000000AD
:1056400070B504460D461148007820B100BF04F043
:1056500097FB0028FBD001200C49087004B970BDED
:1056600035B922460AA10C4802F002FD064606E0C2
:105670002B46224609A1084802F0FAFC06463146AC
:10568000054804F097FB00BFE9E70000C0010020D7
:1056900025730D0A000000001C0C00202573203D1E
:1056A00025640D0A0000000070B506460F4800781A
:1056B00020B100BF04F064FB0028FBD001200B499F
:1056C00008700024354607E0287800B907E015F88F
:1056D000010B07490855641CB4F5806FF4D300BF73
:1056E0002146034804F066FB70BD0000C0010020A5
:1056F0001C0C002010B540F227710E4800F088F80D
:1057000040F225510B4800F083F840F2244109484B
:1057100000F07EF860B1074800F028F906480068FC
:1057200040F6C801081A054948600120044908707C
:1057300010BD0000004C00403404024068400020CE
:10574000D4010020CA430280704721B1828942F40B
:105750000052828104E082894DF6FF731A408281F3
:1057600070471AB1838A0B43838202E0838A8B439A
:105770008382704710B504462048844209D1012134
:105780008803FDF7E3FE00214FF48040FDF7DEFEC5
:1057900032E01B48844209D101214804FDF7B6FEDE
:1057A00000214FF40030FDF7B1FE25E0154884429A
:1057B00009D101218804FDF7A9FE00214FF48020C2
:1057C000FDF7A4FE18E01048844209D10121C80465
:1057D000FDF79CFE00214FF40020FDF797FE0BE043
:1057E0000A48844208D101210805FDF78FFE0021F7
:1057F0004FF48010FDF78AFE10BD00000038014014
:105800000044004000480040004C00400050004070
:1058100070B502460B460024002100250020C3F38A
:10582000421503F01F01012606FA01F1012D02D1F4
:105830009689314006E0022D02D1168A314001E0FE
:10584000968A31401C12012606FA04F41688344068
:1058500011B10CB1012000E0002070BDF0B503468D
:1058600000240026002500201846C1F3421401F050
:105870001F06012707FA06F5012C01D10C3004E0C0
:10588000022C01D1103000E014301AB107682F4308
:10589000076002E00768AF430760F0BD2DE9F047FD
:1058A00086B005460E460024A24600BFA14600274A
:1058B0002F462C8A4CF6FF700440F08804432C825B
:1058C000AC894EF6F3100440B088318908437189E1
:1058D00008430443AC81AC8A4FF6FF400440B089D2
:1058E0000443AC8201A8FDF741FE1F48874202D164
:1058F000DDF810A001E0DDF80CA0A88900F400405C
:1059000040B10AEBCA0000EB0A1031684900B0FB55
:10591000F1F807E00AEBCA0000EB0A1031688900D1
:10592000B0FBF1F86420B8FBF0F004012009642119
:1059300001FB1089A88900F4004040B1322000EB3F
:10594000C900B0FBF1F000F00700044308E032208A
:1059500000EB09106421B0FBF1F000F00F000443EC
:105960002C8106B0BDE8F0870038014001468888E8
:10597000C0F30800704770B504460D46D4F8E4053E
:105980002946426820469047002070BD70B5044605
:105990000D464FF48970005D022802D0032812D111
:1059A00000E000BF688801280CD100214FF48C7002
:1059B0000151D4F8E40529468268204690472046E4
:1059C00000F075F804E02946204600F021F800BFF9
:1059D00000BF70BD2DE9F04106460C461546002774
:1059E0002B46224600213046FBF759FD3846BDE8DC
:1059F000F0812DE9F04106460C46154600272B465E
:105A0000224600213046FBF7A5FD3846BDE8F0816F
:105A100070B504460D4680212046FBF777FD002136
:105A20002046FBF773FD204601F04AF970BD2DE9D1
:105A3000F04104460E4615460027C4F89453C4F8B6
:105A40009053032140F2111001552B46324600219C
:105A50002046FBF724FD3846BDE8F08170B50446CA
:105A60000025052140F21110015500231A46194660
:105A70002046FBF714FD204601F022F9284670BDB0
:105A80002DE9F04104460E4615460027C4F83C5166
:105A9000C4F83851022140F2111001552B4632460C
:105AA00000212046FBF756FD3846BDE8F08170B571
:105AB00004460025042140F21110015500231A4626
:105AC00019462046FBF746FD204601F0F9F8284626
:105AD00070BD70B505460E46002E5DD105F58E747D
