:020000040800F2
:10000000483800202D0200085D1D0008D11B0008A3
:10001000591D0008D3030008A34300080000000096
:100020000000000000000000000000004121000866
:100030004518000800000000711E00086522000835
:10004000470200084702000847020008470200086C
:10005000470200084702000847020008470200085C
:10006000470200084702000847020008470200084C
:10007000470200084702000847020008470200083C
:10008000470200084702000847020008470200082C
:10009000050500084702000847020008470200085B
:1000A000470200084702000847020008470200080C
:1000B000D52300084702000847020008470200084D
:1000C00047020008470200084702000847020008EC
:1000D00047020008E126000847020008470200081E
:1000E000470200084702000847020008000000001D
:1000F0000000000000000000000000000000000000
:10010000000000000000000047020008470200084D
:10011000470200084702000847020008470200089B
:10012000470200084702000847020008470200088B
:10013000470200084702000847020008470200087B
:1001400047020008A906000847020008611E0008CF
:1001500000F002F800F05AF80AA090E8000C82447F
:100160008344AAF10107DA4501D100F04FF8AFF25C
:10017000090EBAE80F0013F0010F18BFFB1A43F085
:10018000010318478C460000AC4600000A444FF0BB
:10019000000C10F8013B13F0070408BF10F8014BE6
:1001A0001D1108BF10F8015B641E05D010F8016B2B
:1001B000641E01F8016BF9D113F0080F1EBF10F88F
:1001C000014BAD1C0C1B09D16D1E58BF01F801CBB2
:1001D000FAD505E014F8016B01F8016B6D1EF9D535
:1001E0009142D6D37047000000230024002500264A
:1001F000103A28BF78C1FBD8520728BF30C148BF8A
:100200000B6070471FB51FBD10B510BD00F0A8F8FA
:100210001146FFF7F7FF04F08BF900F0C6F803B4BE
:10022000FFF7F2FF03BC00F0CDF80000094880475B
:1002300009480047FEE7FEE7FEE7FEE7FEE7FEE7C8
:10024000FEE7FEE7FEE7FEE704480549054A064BE0
:10025000704700006923000851010008483200205F
:10026000483800204834002048340020032A40F257
:10027000308010F0030C00F0158011F8013BBCF148
:10028000020F624498BF11F801CB00F8013B38BF60
:1002900011F8013BA2F1040298BF00F801CB38BF6E
:1002A00000F8013B11F0030300F02880083AC0F089
:1002B000088051F8043B083A51F804CBA0E8081034
:1002C000F5E7121D5CBF51F8043B40F8043BAFF367
:1002D0000080D20724BF11F8013B11F801CB48BFC1
:1002E00011F8012B24BF00F8013B00F801CB48BFF7
:1002F00000F8012B704770477047704710B5203ADF
:10030000C0F00B80B1E81850203AA0E81850B1E8CE
:100310001850A0E81850BFF4F5AF5FEA027C24BF84
:10032000B1E81850A0E8185044BF18C918C0BDE87B
:1003300010405FEA827C24BF51F8043B40F8043B44
:1003400008BF7047D20728BF31F8023B48BF11F8F9
:10035000012B28BF20F8023B48BF00F8012B704753
:10036000754600F02BF8AE4605006946534620F06E
:100370000700854618B020B5FFF766FFBDE82040AE
:100380004FF000064FF000074FF000084FF0000B51
:1003900021F00701AC46ACE8C009ACE8C009ACE804
:1003A000C009ACE8C0098D46704710B50446AFF3EC
:1003B00000802046BDE81040FFF731BF004870477D
:1003C000E431002001491820ABBEFEE72600020000
:1003D000704700BFFEE7000030B589B00446012138
:1003E000084601F077FD0121082001F073FD4FF46C
:1003F0008070ADF8200028208DF8230008A93E4821
:1004000001F089FA4FF40070ADF8200018208DF843
:10041000230003208DF8220008A9374801F07BFA59
:1004200001214FF4EA1001F001FB0121480601F01F
:1004300031FD324800F0D0F9E07938B9002248F2B5
:100440000E012E4800F0F8FA09B030BD05A800F002
:10045000FEFB00208DF81A008DF81B008DF81C00A3
:100460008DF81D008DF81E0001208DF81F00002062
:100470008DF8160020798DF8170060798DF8180036
:10048000A0798DF819009DF81700401C9DF81810F0
:10049000491C01449DF81900401C0D18184920689A
:1004A000B1FBF0F0B0FBF5F080B2ADF8140005A997
:1004B000124800F0CAFA00208DF80E008DF80F00E7
:1004C00001208DF810000020ADF80400ADF8060002
:1004D000ADF80800ADF80A00ADF80C0001208DF869
:1004E000110001A800F094F9012248F20E0103481E
:1004F00000F0A2FA00BFA7E7000C01400064004032
:100500000051250210B504211C4800F005FA18B16D
:1005100004211A4800F00CF90821184800F0FCF9F1
:1005200018B10821154800F003F9154A00211348B5
:1005300000F015FB1248807A08280AD0072404E04E
:1005400000210F480B300155641E0D48807AA042EF
:10055000F6DD0B4801F0B6FB0A480068401C09496B
:10056000086008460068022807DD00200860064889
:10057000C06880F400600449C86010BD0064004099
:1005800090310020900100200010014030B589B06A
:1005900004460121082001F09DFC4FF48050ADF885
:1005A000200028208DF8230008A93C4801F0B3F969
:1005B0004FF40050ADF8200018208DF823000320E0
:1005C0008DF8220008A9354801F0A5F90121880617
:1005D00001F060FC324800F0FFF8E07938B9002201
:1005E00048F270012E4800F027FA09B030BD05A886
:1005F00000F02DFB00208DF81A008DF81B008DF8FF
:100600001C008DF81D008DF81E0001208DF81F00C4
:1006100000208DF8160020798DF8170060798DF88C
:100620001800A0798DF819009DF81700401C9DF85E
:100630001810491C01449DF81900401C0D18194957
:100640002068B1FBF0F0B0FBF5F080B2ADF814001B
:1006500005A9134800F0F9F90E208DF80E000020CE
:100660008DF80F0001208DF810000020ADF8040077
:10067000ADF80600ADF80800ADF80A000120ADF8AD
:100680000C008DF8110001A800F0C2F8012248F218
:100690007001034800F0D0F900BFA6E7000C01404C
:1006A000006800400051250210B520211C4800F0D0
:1006B00033F918B120211A4800F03AF840211848BF
:1006C00000F02AF918B14021154800F031F8154A18
:1006D0000121134800F043FA1248807A08280AD012
:1006E000072404E000210F480B300155641E0D481B
:1006F000807AA042F6DD0B4801F0E4FA0A4800686F
:10070000401C0949086008460068C82807DD002029
:1007100008600648C06880F480500449C86010BD75
:1007200000680040903100208C0100200010014042
:10073000B1F5007F3AD00FDC202928D006DC012952
:100740001CD004291DD0082940D11DE0402921D00A
:10075000B1F5807F3AD126E0B1F5004F31D006DC0B
:10076000B1F5806F25D0B1F5006F2FD124E0B1F540
:10077000803F12D0B1F5003F28D111E0154A8260C8
:1007800025E00822C26022E01022C2601FE0082299
:1007900002611CE01022026119E00822426016E0AA
:1007A0001022426013E00422426010E00422426002
:1007B0000DE0042242600AE00022826104224260CD
:1007C00005E0002282610422426000E000BF00BF19
:1007D000704700000101010010B504460B48844237
:1007E00009D10121480601F065FB00214FF000709E
:1007F00001F060FB08E00121880601F05BFB0021AD
:100800004FF0806001F056FB10BD00000064004016
:1008100010B50021837A012202FA03F13D4A1268E1
:1008200042F001023B4B1A603A4A1C3212688A437A
:10083000384B1C331A60027BCAB9364A0C32126834
:100840008A43344B0C331A604288C38842EA03431C
:10085000304A4032847A42F834300288838842EA4F
:1008600003432C4A4032847A02EBC4025360027B79
:10087000012A19D1274A0C3212680A43254B0C333E
:100880001A604288038842EA0343224A4032847A4B
:1008900042F83430C288838842EA03431D4A40321A
:1008A000847A02EBC4025360C27A3AB9194A121D23
:1008B00012688A43174B1B1D1A6006E0154A121D69
:1008C00012680A43134B1B1D1A60028932B9114A80
:1008D000143212688A430F4B14331A600289012ABA
:1008E00006D10C4A143212680A430A4B14331A60B8
:1008F000427B012A06D1074A1C3212680A43054B83
:100900001C331A60034A126822F00102014B1A607C
:1009100010BD00000066004070B504460D4600267C
:1009200060692840002871D0B5F5807F5CD010DC6C
:10093000082D35D006DC012D20D0022D24D0042D29
:1009400072D127E0102D31D0202D35D0402D6BD124
:1009500038E0B5F5004F60D009DCB5F5007F49D02F
:10096000B5F5806F4CD0B5F5006F5DD14FE0B5F5B2
:10097000803F2DD0B5F5003F56D12FE0A0682D491E
:1009800000F08CF9064651E0E068032100F086F99A
:1009900006464BE0E068082100F080F9064645E095
:1009A000E068102100F07AF906463FE02069032153
:1009B00000F074F9064639E02069082100F06EF96C
:1009C000064633E02069102100F068F906462DE064
:1009D0006068082100F062F9064627E0606810218F
:1009E00000F05CF9064621E0A069012100F056F90B
:1009F00006461BE0A069022100F050F9064615E00A
:100A0000A069042100F04AF906460FE00FE0A06952
:100A1000702100F043F9064608E06068042100F008
:100A20003DF9064602E0FFE7002600BF00E0002691
:100A3000304670BD010101001AB143690B434361A7
:100A400002E043698B434361704730B502460020A2
:100A50000023146824F002041460146844F00104B4
:100A6000146000E05B1C546804F001041CB94FF6EC
:100A7000FF74A342F6D1546804F001040CB90020BD
:100A80006CE08C79012C04D1146844F0800414606B
:100A900003E0146824F080041460CC79012C04D1A4
:100AA000146844F04004146003E0146824F0400427
:100AB00014600C7A012C04D1146844F020041460F2
:100AC00003E0146824F0200414604C7A012C04D153
:100AD000146844F01004146003E0146824F0100457
:100AE00014608C7A012C04D1146844F0080414605A
:100AF00003E0146824F008041460CC7A012C04D1BB
:100B0000146844F00404146003E0146824F004043E
:100B100014608C78A407CD7844EA05640D7944EA22
:100B200005444D7944EA05540D886D1E2C43D4616B
:100B3000146824F001041460002300E05B1C546876
:100B400004F001041CB14FF6FF74A342F6D15468BF
:100B500004F001040CB1002000E0012030BD10B50C
:100B600000F5D87303EB01131B6803F00403137241
:100B7000137A53B900F5D87303EB01131B6840F2E5
:100B8000FF7404EA5353136009E000F5D87303EBD4
:100B900001131B686FF0604404EAD303536000F54F
:100BA000D87303EB01131B6803F00203537200F5C3
:100BB000D87303EB01135B6803F00F03937200F526
:100BC000D87303EB01135B681B0AD37400F5D87369
:100BD00003EB01139B68D37200F5D87303EB011389
:100BE0009B681C0A147300F5D87303EB01139B6810
:100BF0001C0C547300F5D87303EB01139B681B0E98
:100C0000937300F5D87303EB0113DB68D37300F51E
:100C1000D87303EB0113DB681C0A147400F5D87356
:100C200003EB0113DB681C0C547400F5D87303EB61
:100C30000113DB681B0E937421B9C36843F02003D2
:100C4000C36003E0036943F02003036110BD00218A
:100C50008171C171017241728172C1728170C17002
:100C60000321017102214171012101807047014678
:100C70000A68C868805C70472DE9F04104460E465A
:100C80002768002505E0204600F0CEFD7055681C61
:100C9000C5B2082DF7D32760BDE8F08102460020D9
:100CA00002EA01030BB1012000E00020704770B59B
:100CB00004462546A879012802D0022808D103E07D
:100CC000284600F037F804E0284600F042F800E03B
:100CD00000BF00BF70BD2DE9F0470646B6F804A07E
:100CE00035464FF0080921E0D14500D31FE02F8998
:100CF000B5F80A80022F02D0032F13D111E005F1BD
:100D00000C042079401E20716079401E6071A0792A
:100D1000401EA0712046FFF75FFB2046FFF736FC20
:100D200002E001E0BDE8F08700BF4544DCE700BF1A
:100D300000BFF7E770B50446E579012D05D0022D17
:100D400004D12046FFF7C7FF01E000E000BF00BF6D
:100D500070BD704770B506460C4604F080008028D0
:100D600008D104F07F0000EB800106F58E7000EBE7
:100D7000C10507E004F07F0000EB800106F55D701F
:100D800000EBC10504F07F00287004F08000C0096A
:100D900068702946304602F0B2FF002070BD70B581
:100DA00006460C4604F08000802808D104F07F003D
:100DB00000EB800106F58E7000EBC10505E004EB49
:100DC000840106F55D7000EBC1050020A87004F0F9
:100DD0007F002870C4F3C01068702946304602F0C6
:100DE00066FF002070BD2DE9F04106460D46904695
:100DF0001F4605F08000802808D105F07F0000EB39
:100E0000800106F58E7000EBC10407E005F07F005D
:100E100000EB800106F55D7000EBC10405F07F007A
:100E2000207005F08000C0096070C4F80880E77089
:100E3000607808B12078E080022F01D10020207175
:100E40002146304602F0E7FE0020BDE8F0812DE9A2
:100E5000F04105460E461746984606F07F0000EB27
:100E6000800105F55D7000EBC104E760C4F81480F3
:100E70000020A061607006F07F002070E8780128F3
:100E800000D12761207820B92146284602F0E7FDED
:100E900003E02146284602F093FF0020BDE8F081E0
:100EA00008B500220092009A61F30A1200920269CA
:100EB0001268009B1A4303691A6008BD70B50646A4
:100EC0000C4604F08000802808D104F07F0000EB7D
:100ED000800106F58E7000EBC10505E004EB84018E
:100EE00006F55D7000EBC1050120A87004F07F00DD
:100EF0002870C4F3C01068702946304602F02EFFF7
:100F0000002070BD2DE9F04107460D461646984673
:100F100005F07F0000EB800107F58E7000EBC10447
:100F20000120607005F07F002070E66026610020DF
:100F3000A061C4F81480207820B92146384602F018
:100F40008EFD03E02146384602F03AFF0020BDE85E
:100F5000F081000030B587B00546594C284602F0B4
:100F600044FD684600F0D6FF019CE868C068059023
:100F7000059820F4705005900598E968C8602846E7
:100F800003F0F0F803280BD10020A8704FF4007094
:100F9000A880059820F4705000F5105005907EE070
:100FA0000120A8704020A8804648844209D34648C2
:100FB000844206D2059820F4705000F560500590E8
:100FC0006DE04148844209D34048844206D20598E6
:100FD00020F4705000F55050059060E03B4884428A
:100FE00009D33B48844206D2059820F4705000F59E
:100FF0004050059053E03648844209D33548844236
:1010000006D2059820F4705000F53050059046E067
:101010003048844209D33048844206D2059820F4EF
:10102000705000F52050059039E02B48844209D3D8
:101030002A48844206D2059820F4705000F51050DA
:1010400005902CE02548844209D32548844206D2E5
:10105000059820F4705000F5005005901FE02048DE
:10106000844209D31F48844206D2059820F4705068
:1010700000F5E050059012E01A48844209D31A485E
:10108000844206D2059820F4705000F5C0500590B7
:1010900005E0059820F4705000F5A05005900598E3
:1010A000E968C86000200690069820F4005000F51A
:1010B000005006900698E9684861012007B030BDED
:1010C000007A030AC0E1E4000024F400E0EC04012B
:1010D00000C31801002D310140A44C0100366E01FF
:1010E00040E2950180C3C90160600B02F8B5054676
:1010F000002400200090284603F075F8064681E0A1
:1011000006F0010000287BD0E1B2284600F00CFB7D
:101110000090009800F0010030B3012000FA04F7BD
:101120002869406BB8432969486300200090009803
:1011300020F00100401C009005F1180050F8240038
:1011400000998160E1B232480068426828469047C1
:10115000E878012808D13CB940F21110405D04281C
:1011600002D1284602F026FD0098C0F3C00060B10D
:1011700000200090009820F008000830009005F151
:10118000180050F82400009981600098C0F3001006
:1011900060B100200090009820F010001030009006
:1011A00005F1180050F82400009981600098C0F300
:1011B000801060B100200090009820F04000403086
:1011C000009005F1180050F8240000998160009803
:1011D000C0F3400060B100200090009820F00200B1
:1011E000801C009005F1180050F8240000998160DF
:1011F0000098C0F3C01018B12146284600F0BEFA8E
:10120000641C7608002E7FF47BAF0120F8BD00003F
:10121000D80000207CB5044600250020019020461F
:1012200002F0E9FF06466FE006F00100002869D0F1
:10123000E9B2204602F0E7FF0190019800F00100BA
:10124000C8B300200190019820F00100401C0190DB
:1012500004F1540050F8250001998160E0780128DC
:1012600017D104F1540050F825000069009005EBF7
:10127000850104F55D7000EBC10080680099C1F341
:101280001201411A05EB850204F55D7000EBC20006
:101290008161E9B21E480068026820469047E07804
:1012A000012808D13DB940F21110005D052802D196
:1012B000204602F07FFC0198C0F3400060B100209E
:1012C0000190019820F00200801C019004F154006C
:1012D00050F82500019981600198C0F3C00088B1E1
:1012E0000B480068816820468847002001900198DB
:1012F00020F008000830019004F1540050F8250057
:10130000019981606D1C7608002E8DD101207CBD75
:10131000D80000203EB50446A07A78B1D4F80C017C
:1013200000680090009820F002000090009820F0E3
:10133000010000900099D4F80C0101600020019098
:10134000019820F00100401C01902069406801993B
:1013500088432169486009480068816920468847B8
:1013600000200290029820F0004000F1004002901E
:101370000298E168486101203EBD0000D8000020CD
:101380007CB5044600200190019820F01000103038
:101390000190E068806901998843E1688861E068AC
:1013A000006A0090009800F00F0000EB800104F547
:1013B0005D7000EBC1050098C0F3434007282DD2B3
:1013C000DFE800F02C04051D1E2C1F0027E000980C
:1013D000C0F30A1090B10098C0F30A122046E968E1
:1013E00002F01BFFE8680099C1F30A110844E860A5
:1013F000A8690099C1F30A110844A8610FE00EE042
:101400000DE0082204F2CC51204602F006FFA86944
:101410000099C1F30A110844A86100E000BF00BFB1
:10142000E068806901990843E168886101207CBD1A
:1014300038B5044608480068C1682046884700203F
:101440000090009820F00800083000900098E168B3
:101450004861012038BD0000D80000201FB50446B7
:10146000002000904FF48970005D009023480068D0
:1014700041692046884720698068019000200390D8
:10148000039820F4006000F5006003900398E16881
:101490004861A07A70B3019800F0010050B340F2A7
:1014A0001510005D012825D19DF80000032821D1E9
:1014B00000200290029820F00100401C0290D4F815
:1014C0000C01006802990843D4F80C1108600298D6
:1014D00020F00200801C0290D4F80C0100680299F0
:1014E0000843D4F80C1108600548006840F0060075
:1014F00003490860012004B010BD0000D80000209E
:1015000010ED00E030B587B0044600200290069050
:101510000590049003900190029820F00100401C77
:10152000029020694068029988432169486000213F
:10153000204602F0EDFD00250BE0FF2104F118002C
:1015400050F82500816004F1540050F825008160B6
:101550006D1C6078A842F0D84FF0FF31206981619E
:1015600006986FF30F00401C0690069880B200F5B5
:101570008030069006992069C161059820F0080026
:1015800008300590059820F00100401C0590059852
:1015900020F00200801C05900599206941610498A3
:1015A00020F00100401C0490049820F0080008304E
:1015B0000490049820F00200801C04900499206993
:1015C0000161206900680390039820F4FE60039095
:1015D000039920690160204602F0ECFA0020019096
:1015E000019820F4805000F5805001900198E16846
:1015F000486104480068016920468847012007B017
:1016000030BD0000D80000202DE9F04106460F460D
:101610003946304602F016FE01214FF4897081559B
:101620000021801C8155002511E005EB850106F5A0
:101630008E7000EBC104012060702570E5800020F1
:10164000E0704020A0600020E06060616D1C707858
:10165000A842EAD8002510E005EB850106F55D708B
:1016600000EBC104002060702570E580E070402030
:10167000A0600020E06060616D1C7078A842EBD82B
:10168000304602F0A1F9304601F0D1FF002130468A
:1016900002F040FE304602F057F8304602F001FDFD
:1016A000BDE8F08138B50446002000900748006886
:1016B000C16920468847009820F4801000F580100A
:1016C00000900098E1684861012038BDD8000020F2
:1016D00038B504460020009007480068016A20469B
:1016E0008847009820F4001000F500100090009842
:1016F000E1684861012038BDD800002038B50446B3
:10170000E068406800900098C0F3800020B1054870
:101710000068816A204688470098E1684860012097
:1017200038BD0000D800002030B5024615692B698D
:1017300015696C6B24FA01F505F0010543EAC51340
:1017400002F1180555F82150AD6805EA030030BDD7
:1017500038B5044608480068416A2046884700209A
:101760000090009820F0804000F1804000900098A8
:10177000E1684861012038BDD80000202DE9F84318
:1017800006460F4600250020009007EB870106F56E
:101790008E7000EBC104D4E90501451AA068A84287
:1017A00000D2A568E81C4FEA900906F1180050F82D
:1017B00027008069009029E0D4E90501451AA06856
:1017C000A84200D2A568E81C4FEA9009ABB2FAB271
:1017D0003046E16802F0C5FDE0682844E060A06999
:1017E0002844A06106F1180050F827008069009095
:1017F000D4E90501884209D12178012000FA01F8D5
:101800003069406B20EA080031694863009880B273
:10181000484506D9D4E90510884202D260690028FB
:10182000CAD10120BDE8F88301460B68CA68D05CC4
:101830000A68521C0A608B680A689A4201D3002227
:101840000A607047704710B500F0F4F902F044FEEA
:1018500000F085FA10BD4368C268D1544268521C3A
:101860004260D0E901239A4201D3002242607047CE
:101870002DE9F04104460F461546204600F03AF89F
:10188000A168081AA84202D80020BDE8F081D4E976
:10189000000188420AD96268E16888182A463946F8
:1018A000FEF7E4FC60682844606021E0D4E90110A0
:1018B000401AA8420AD96268E16888182A4639465F
:1018C000FEF7D4FC60682844606011E02089A1889C
:1018D000401A86B26268E168881832463946FEF7D7
:1018E000C5FCAA1BB919E068FEF7C0FCA81B606024
:1018F0000120CAE70146D1E90020904204D388883C
:101900000A88801A80B2704788880A8910440A8839
:10191000801A80B2F7E72DE9F04102460025002643
:10192000002000230024002791F803C00CF00F05CD
:1019300091F803C00CF0100CBCF1000F03D091F82B
:1019400002C04CEA050591F800C0BCF1000F31D08F
:10195000146800202BE04FF0010C0CFA00F3B1F8F2
:1019600000C00CEA03069E4220D183004FF00F0C0A
:101970000CFA03F7BC4305FA03FC4CEA040491F8A3
:1019800003C0BCF1280F06D14FF0010C0CFA00FC8B
:10199000C2F814C00AE091F803C0BCF1480F05D1A9
:1019A0004FF0010C0CFA00FCC2F810C0401C0828D3
:1019B000D1D31460B1F800C0BCF1FF0F34DD54681E
:1019C00000202EE000F1080C4FF0010808FA0CF39B
:1019D000B1F800C00CEA03069E4221D183004FF00B
:1019E0000F0C0CFA03F7BC4305FA03FC4CEA0404A1
:1019F00091F803C0BCF1280F05D100F1080C08FADA
:101A00000CF8C2F8148091F803C0BCF1480F07D15C
:101A100000F1080C4FF0010808FA0CF8C2F8108029
:101A2000401C0828CED35460BDE8F081F0B50A46CA
:101A3000002300240021002500F00046B6F1004FED
:101A400002D11D4EF16901E01B4E7168C0F30345E0
:101A500083B200F44016B6F5401F08D121F0706142
:101A6000154E766826F07066134F7E6012E000F423
:101A70008016B6F5801F06D1032606FA05F4A143A9
:101A800041F0706106E0460D360103FA06F6B143F7
:101A900041F0706122B1460D360103FA06F631437A
:101AA00000F00046B6F1004F02D1034EF16101E0B3
:101AB000014E7160F0BD00000000014041617047BF
:101AC00070B50A480468801C0568801C06683444A8
:101AD00054B108220649204600F0D4F804220449F3
:101AE0001031284600F0CEF870BD0000E8F7FF1F67
:101AF0004A01002070B506463048007800285BD1C6
:101B00002F480068B0F5005F02D100202C49086022
:101B10002B4800682B490968884203D100202749D7
:101B2000087070BD2648006826490968884206D9B1
:101B300023480068C0F500502349086006E02148AA
:101B400000681F490968401A1F4908601E4800685C
:101B5000402811D91A48008885B2402418480068E6
:101B60004030174908601848006840381649086036
:101B700001201249087018E01148008885B2124807
:101B8000008884B20E4800680F49096808440C496F
:101B9000086000200C490860402C03D1022007494E
:101BA000087002E0012005490870084842192346E0
:101BB00081213046FFF7A6F900BFB2E718000020E8
:101BC000100000200C000020140000202B02002038
:101BD00000BFFEE70023436003608260C16070477E
:101BE00010B500200C4908604FF400520B490C4816
:101BF000FFF7F0FF4FF400620A490B48FFF7EAFFD6
:101C00000A480B490860002008710220487104202E
:101C100048710120C87110BD640100202B02002012
:101C20003C230020502900204C23002020A1070045
:101C30006801002008B50121102000F04BF94FF495
:101C40000060ADF8000014208DF8030003208DF82B
:101C5000020069460A48FFF75EFE4FF48050ADF877
:101C6000000069460648FFF756FE4FF4006104483D
:101C7000FFF724FF4FF480510148FFF71FFF08BD15
:101C80000010014030B50B46002100BF16E00A24C9
:101C9000B4EB107F05D9302404EB107403F8114025
:101CA00005E0412404EB10740A3C03F811400001E4
:101CB00000254C00641C1D554C1CE1B29142E6DB32
:101CC00030BD0000F8B50546684602F0FBFB1D4C30
:101CD0004FF0CC3020600220A0710120E0711C2068
:101CE000A0800099E160A97A2174002606E005F140
:101CF0000B00815D04F114008155761C082EF6D38B
:101D0000287A08B9286800E06868A0600E48006872
:101D10000E490860A2880B490C48FFF7A9FD50B98D
:101D20000B48C06880F400600949C8600846C06874
:101D300080F48050C860054840680649086002F099
:101D400032FBF8BDA4310020100000203C2300200D
:101D5000001001400C00002000BFFEE7704708B5EE
:101D60004FF4407000F072F81C208DF80000002045
:101D70008DF801008DF8020001208DF803006846FF
:101D800000F02CF843208DF8000001208DF80100B0
:101D900000208DF8020001208DF80300684600F055
:101DA0001DF814208DF8000002208DF8010000209D
:101DB0008DF8020001208DF80300684600F00EF84F
:101DC00041208DF8000003208DF8010001208DF8DE
:101DD0000300684600F002F808BD000070B500215D
:101DE00000230F22C47804B3154C246804F4E06483
:101DF000C4F5E064210AC1F10403CA40447804FA3E
:101E000003F184781440214309010E4C0678A15552
:101E1000047804F01F050124AC4005786D11AD0075
:101E200005F1E025C5F8004109E0047804F01F053C
:101E30000124AC40044D0678761145F8264070BD6B
:101E40000CED00E000E400E080E100E00249014325
:101E5000024A1160704700000000FA050CED00E036
:101E600010B5024800F0D2FF10BD00005C23002036
:101E70007047000029B1064A52690243044B5A6177
:101E800004E0034A52698243014B5A6170470000E3
:101E90000010024029B1064AD2690243044BDA61BC
:101EA00004E0034AD2698243014BDA6170470000C3
:101EB0000010024029B1064A12690243044B1A611C
:101EC00004E0034A12698243014B1A617047000023
:101ED0000010024029B1064A92690243044B9A61FC
:101EE00004E0034A92698243014B9A617047000003
:101EF0000010024029B1064AD2680243044BDA605E
:101F000004E0034AD2688243014BDA607047000064
:101F1000001002402DE9F04100210022002500239D
:101F20000026002400278C46DFF86081D8F8048062
:101F300008F00C0121B1042907D0082959D109E082
:101F4000DFF84C81C0F8008058E0DFF84881C0F825
:101F5000008053E0DFF83481D8F8048008F4701270
:101F6000DFF82881D8F8048008F48035920C0D2A17
:101F700001D0921C00E0062235B9DFF81C8102FB7B
:101F800008F8C0F8008033E0DFF80081D8F82C8032
:101F900008F48036DFF8F480D8F82C8008F00F08B9
:101FA00008F1010446B9DFF8EC80B8FBF4F808FB4F
:101FB00002F8C0F800801BE0DFF8D080D8F82C8051
:101FC000C8F3031808F10107DFF8C080D8F82C80A7
:101FD000C8F3032808F1020CDFF8B880B8FBF7F863
:101FE00008FB0CF8B8FBF4F808FB02F8C0F8008016
:101FF00004E0DFF89C80C0F8008000BF00BFDFF87D
:102000008C80D8F8048008F0F0010909DFF88C8092
:1020100018F80130D0F8008028FA03F8C0F80480DE
:10202000DFF86880D8F8048008F4E061090ADFF876
:102030006C8018F80130D0F8048028FA03F8C0F852
:102040000880DFF84880D8F8048008F46051C90A95
:10205000DFF8488018F80130D0F8048028FA03F837
:10206000C0F80C80DFF82480D8F8048008F44041E0
:10207000890BDFF82C8018F80130D0F80C80B8FB01
:10208000F3F8C0F81080BDE8F081000000100240B5
:1020900000127A0000366E0100093D009401002014
:1020A000A40100200149086070470000D8004242A6
:1020B0002DE9F04180460C4641E04046FFF71AFC0E
:1020C000082802D20020BDE8F0814046FEF7CFFD8F
:1020D000CC2830D121464046FEF7CEFD2746BD88AC
:1020E0003868B0F1CC3F03D04046FFF79DFB26E0B7
:1020F000402D01DA082D0BD24046FFF795FB4046F4
:10210000FFF792FB4046FFF78FFB4046FFF78CFB43
:102110004046FFF7EFFBA84201DA0020D3E7002694
:1021200005E04046FFF780FBA055701C86B2AE422A
:10213000F7DB0120C7E74046FFF776FB00BFBCE7AF
:10214000704710B500F002F810BD00000CB500207B
:10215000019000903F48006840F480303D4908609D
:1021600000BF3C48006800F4003000900198401C1B
:102170000190009818B90198B0F5A06FF1D13548D9
:10218000006800F4003010B10120009001E0002050
:102190000090009801285CD12F48006840F01000A2
:1021A0002D4908600846006820F0070008600846CE
:1021B000006840F0020008602648406825494860F1
:1021C0000846406848600846406840F480604860BF
:1021D0000846C06A214908401E49C8620846C06ACC
:1021E0001F4908431B49C8620846006840F08060E8
:1021F000086000BF1748006800F000600028F9D0B0
:102200001448406820F47C10124948600846406831
:1022100040F4E81048600846006840F080700860AC
:1022200000BF0C48006800F000700028F9D0094891
:10223000406820F00300074948600846406840F0C5
:102240000200486000BF0348406800F00C00082806
:10225000F9D10CBD001002400020024000F0FEFF4A
:102260005408010070470000F0B500210020002351
:102270000024002200250026354F7F6807F00C015E
:1022800021B1042908D008294BD10BE0314FDFF8E8
:10229000C8C0CCF800704AE0304FDFF8BCC0CCF8C2
:1022A000007044E02A4F7F6807F47010284F7F6861
:1022B00007F48033800C0D2801D0801C00E006203C
:1022C00033B9274F4743DFF890C0CCF8007027E0C0
:1022D0001F4FFF6A07F480341D4FFF6A07F00F0796
:1022E0007A1C44B91D4FB7FBF2F74743DFF868C0CB
:1022F000CCF8007014E0164FFF6AC7F303177D1C7B
:10230000134FFF6AC7F30327BE1C144FB7FBF5F743
:102310007743B7FBF2F74743DFF83CC0CCF80070D7
:1023200005E00C4FDFF830C0CCF8007000BF00BFF4
:10233000074F7F68C7F30317DFF828C01CF80710A2
:10234000054F3F68CF40DFF810C0CCF80070F0BDFB
:102350000010024000127A00DC00002000366E01FE
:1023600000093D00E000002010B51648006840F06C
:1023700001001449086008464068134908401149A3
:10238000486008460068114908400E490860084640
:10239000006820F4802008600846406820F4FE00B1
:1023A00048600846006820F0A05008604FF47F00A5
:1023B00088600020C862FFF7C4FE4FF00060044947
:1023C000086010BD001002400000FFF0FFFFF6FEA5
:1023D00008ED00E010B50121880700F015F950B1B3
:1023E0000121880700F00DF8034800684CF25031D5
:1023F00008440149086010BD64010020CA430282FC
:102400007047CA430282704721B1028842F001023C
:10241000028004E002884FF6FE731A400280704783
:1024200010B504466848844208D10121C014FFF762
:1024300061FD0021E014FFF75DFDC4E0B4F1804FC1
:1024400008D101210846FFF735FD00210120FFF7E3
:1024500031FDB8E05D48844208D101210220FFF738
:1024600029FD00210220FFF725FDACE058488442F9
:1024700008D101210420FFF71DFD00210420FFF7F2
:1024800019FDA0E05348844208D101210820FFF73C
:1024900011FD00210820FFF70DFD94E04E48844215
:1024A00008D101211020FFF705FD00211020FFF7C2
:1024B00001FD88E04948844208D101212020FFF72E
:1024C000F9FC00212020FFF7F5FC7CE04448844221
:1024D00008D101214014FFF70DFD00216014FFF722
:1024E00009FD70E03F48844209D10121C804FFF78B
:1024F00001FD00214FF40020FFF7FCFC63E03A48A7
:10250000844209D101210805FFF7F4FC00214FF4B2
:102510008010FFF7EFFC56E03448844209D10121D6
:102520004805FFF7E7FC00214FF40010FFF7E2FC3D
:1025300049E02F48844208D101214020FFF7BAFC2E
:1025400000214020FFF7B6FC3DE02A48844208D134
:1025500001218020FFF7AEFC00218020FFF7AAFCBC
:1025600031E02548844208D101218015FFF7A2FC03
:102570000021A015FFF79EFC25E02048844209D1E8
:1025800001210804FFF7B6FC00214FF48030FFF76B
:10259000B1FC18E01A48844209D101214804FFF730
:1025A000A9FC00214FF40030FFF7A4FC0BE0154814
:1025B000844208D101218804FFF79CFC00214FF4DC
:1025C0008020FFF797FC10BD002C01400004004064
:1025D00000080040000C00400010004000140040C3
:1025E00000340140004C01400050014000540140C3
:1025F00000180040001C0040002000400040014046
:10260000004401400048014030B50246002000234C
:102610000024158A05EA0103958905EA010413B12E
:102620000CB1012000E0002030BD1AB183890B43BA
:10263000838102E083898B43838170470022028873
:102640001D4B98420ED01D4B98420BD0B0F1804FDD
:1026500008D01B4B984205D01A4B984202D01A4B17
:10266000984204D14FF68F731A404B881A43174B88
:10267000984207D0164B984204D04FF6FF431A40B9
:10268000CB881A4302808B8883850B8803850A4B8D
:1026900098420BD0094B984208D00E4B984205D077
:1026A0000D4B984202D00D4B984201D10B7A038614
:1026B0000123838270470000002C01400034014058
:1026C0000004004000080040000C004000100040E2
:1026D0000014004000400140004401400048014017
:1026E00010B540F22551044800F011F808210248C5
:1026F00000F004F810BD0000003801400246002040
:1027000013880B400BB1012000E00020704770B52A
:1027100002460B460024002100250020C3F3421589
:1027200003F01F01012606FA01F1012D02D196895D
:10273000314006E0022D02D1168A314001E0968A2E
:1027400031401C12012606FA04F41688344011B1F7
:102750000CB1012000E0002070BDF0B5034600245C
:102760000026002500201846C1F3421401F01F0680
:10277000012707FA06F5012C01D10C3004E0022CE8
:1027800001D1103000E014301AB107682F43076000
:1027900002E00768AF430760F0BD00002DE9F04795
:1027A00086B005460E460024A24600BFA14600277B
:1027B0002F462C8A4CF6FF700440F08804432C828C
:1027C000AC894EF6F3100440B08831890843718912
:1027D00008430443AC81AC8A4FF6FF400440B08903
:1027E0000443AC8201A8FFF795FB1F48874202D142
:1027F000DDF810A001E0DDF80CA0A88900F400408D
:1028000040B10AEBCA0000EB0A1031684900B0FB86
:10281000F1F807E00AEBCA0000EB0A103168890002
:10282000B0FBF1F86420B8FBF0F00401200964214A
:1028300001FB1089A88900F4004040B1322000EB70
:10284000C900B0FBF1F000F00700044308E03220BB
:1028500000EB09106421B0FBF1F000F00F0004431D
:102860002C8106B0BDE8F0870038014070B5044601
:102870000D46D4F8E40529464268204690470020DA
:1028800070BD70B504460D464FF48970005D022896
:1028900002D0032812D100E000BF688801280CD1C3
:1028A00000214FF48C700151D4F8E4052946826868
:1028B00020469047204600F075F804E0294620465F
:1028C00000F021F800BF00BF70BD2DE9F0410646C1
:1028D0000C46154600272B46224600213046FEF7BF
:1028E000B6FA3846BDE8F0812DE9F04106460C46BF
:1028F000154600272B46224600213046FEF702FBF4
:102900003846BDE8F08170B504460D46802120466A
:10291000FEF7D4FA00212046FEF7D0FA204601F057
:1029200049F970BD2DE9F04104460E4615460027D1
:10293000C4F89453C4F89053032140F21110015588
:102940002B46324600212046FEF781FA3846BDE884
:10295000F08170B504460025052140F211100155A3
:1029600000231A4619462046FEF771FA204601F068
:1029700021F9284670BD2DE9F04104460E46154662
:102980000027C4F83C51C4F83851022140F211101C
:1029900001552B46324600212046FEF7B3FA384651
:1029A000BDE8F08170B504460025042140F2111005
:1029B000015500231A4619462046FEF7A3FA204681
:1029C00001F0F8F8284670BD70B505460E46002E99
:1029D0005DD105F58E7440F21110405D022849D199
:1029E000A168E069884217D9A168E069401AE061EE
:1029F000E878012803D1D4E902100844E060A08BF4
:102A000082B22846E168FFF76FFF00231A46194695
:102A10002846FEF71CFA2DE0A168206AB0FBF1F20F
:102A200001FB1200A8B9A168206A884211D3D4E939
:102A3000080188420DD2002211462846FFF754FFB4
:102A40000020606200231A4619462846FEF7FFF967
:102A500010E0D5F8E405C06848B14FF48970405DD6
:102A6000032804D1D5F8E405C168284688472846DC
:102A7000FFF76FFF4FF48B70405D012816D1284699
:102A800000F090FA00214FF48B7041550EE0D5F81C
:102A9000E405406950B14FF48970405D032805D1C9
:102AA000D5F8E4053146426928469047002070BDBC
:102AB00070B505460E46A6BB05F55D7440F21110D3
:102AC000405D03283DD1A168E069884217D9A1681B
:102AD000E069401AE061E878012803D1D4E90210E6
:102AE0000844E060A368E069984201D2E06900E030
:102AF000A06882B22846E168FFF7E7FE21E0D5F83A
:102B0000E405006948B14FF48970405D032804D1A1
:102B1000D5F8E4050169284688472846FFF742FFB3
:102B20000FE0FFE7D5F8E405806950B14FF48970F4
:102B3000405D032805D1D5F8E40531468269284671
:102B40009047002070BD01460020704710B5044634
:102B5000D4F8E81548698047012140F21510015565
:102B6000002010BD10B50446D4F8E81588698047E8
:102B7000D4F8E4050021426820469047002140F245
:102B800015100155002010BD70B504460D46E888AB
:102B9000012804D029462046FFF7B5FE1AE04FF47D
:102BA0008970005D022802D003280DD105E00122C2
:102BB00009492046FFF7DFFE0BE0012204F588718A
:102BC0002046FFF7D8FE04E029462046FFF79BFE8B
:102BD00000BF00BF70BD00009C000020F8B5044697
:102BE0000E46F088009070880012082862D2DFE854
:102BF00000F061040C186161575CA078D4F8EC1502
:102C00000A6869469047054659E0A078D4F8E4156B
:102C10008A6A69469047054602216970C4F8F055F2
:102C20004DE0B078062834D2DFE800F0030B131B28
:102C3000232BA078D4F8EC154A68694690470546DE
:102C40002CE0A078D4F8EC158A68694690470546D0
:102C500024E0A078D4F8EC15CA6869469047054688
:102C60001CE0A078D4F8EC150A696946904705463F
:102C700014E0A078D4F8EC154A69694690470546F7
:102C80000CE0A078D4F8EC158A69694690470546AF
:102C900004E031462046FFF736FEF8BD00BF0EE0E7
:102CA00031462046FFF72FFEF7E731462046FFF773
:102CB0002AFEF2E731462046FFF725FEEDE700BF8A
:102CC000BDF8000088B1F08878B1F088BDF8001038
:102CD000884202DDBDF8000000E0F0880090BDF8F9
:102CE000002029462046FFF746FE00BFD5E70146F3
:102CF000002002E0421CD0B2491C0A78002AF9D117
:102D00007047000070B504460D464FF48970005DB1
:102D1000022802D0032813D100E000BF01200C4993
:102D200008604FF48C70005920B10846006840F0EC
:102D300002000860022206492046FFF71CFE04E05C
:102D400029462046FFF7DFFD00BF00BF70BD000031
:102D5000A00000202DE9F04104460D46174600264C
:102D6000FCB12046FFF7C3FF022101EB4000388091
:102D70003A783046711CCEB22A5403223046711C78
:102D8000CEB22A540AE014F8012B3046711CCEB2A0
:102D90002A5400223046711CCEB22A5420780028D2
:102DA000F1D1BDE8F0812DE9F04104460F4615460A
:102DB0001E46DDF81880204600F017FC2046FFF77D
:102DC000C2FEC4F8E465C4F8E885C4F8EC55394699
:102DD0002046FEF719FCD4F8E8150868804720461D
:102DE00000F002FCBDE8F08110B50446D4F8E4051B
:102DF000016A20468847002010BD10B50446D4F86B
:102E0000E405416A20468847002010BD7CB5054690
:102E10000024284601F0D4F9002875D0284601F096
:102E2000DAF90190019808B900207CBD0198C0F33F
:102E3000C04018B12846FEF7EDF904430198C0F3ED
:102E4000804018B12846FEF751F904430198C0F3B9
:102E5000400050B100200090009820F00200801C3B
:102E600000900098E968486100BF0198C00F18B150
:102E70002846FEF74FFA04430198C0F3C02018B16A
:102E80002846FEF7EBFA04430198C0F3C00018B1DE
:102E90002846FEF7CDFA04430198C0F3001018B19C
:102EA0002846FEF76DFA04430198C0F3003018B1CC
:102EB0002846FEF727FB04430198C0F3403018B1C1
:102EC0002846FEF747F804430198C0F3005018B1B4
:102ED0002846FEF7E7FB04430198C0F3405018B1C1
:102EE0002846FEF7F5FB04430198C0F3807018B143
:102EF0002846FEF72DFC04430198C0F3800018B16A
:102F00002846FEF7FBFB044320468EE790F8CC25CD
:102F10000A7090F8CD254A7090F8CE3590F8CF25FC
:102F200003EB02224A8090F8D03590F8D12503EBCC
:102F300002228A8090F8D23590F8D32503EB022242
:102F4000CA80CB884FF4A0721350012340F21112B3
:102F50001354704710B504460023402219462046FA
:102F6000FDF741FF0023402280212046FDF73BFF73
:102F700001214FF489700155A078D4F8E8255168F3
:102F80008847002010BD10B50446D4F8E81508693C
:102F9000804740F21310015D401E01550321015589
:102FA000002010BD01460348026808694260002005
:102FB00070470000A800002010B50446D4F8E405CE
:102FC000C06920B1D4F8E405C169204688470020D3
:102FD00010BD70B504460D46A88818BBE88808BB2C
:102FE000A87800F07F064FF48970005D032804D1B3
:102FF00029462046FFF787FC18E04FF48A700655F3
:1030000031462046FDF74CFF2046FFF7CBFC26B1AA
:1030100002214FF48970015508E001214FF48970B5
:10302000015503E029462046FFF76DFC70BD70B5E1
:1030300004460D46D4F8E405294602682046904728
:10304000D4F8E81588688047002070BD70B5044644
:103050000D46A8783049087008460078012804DD3C
:1030600029462046FFF74FFC55E04FF48970005D7C
:10307000022802D0032848D117E02748007880B101
:103080002548007884F8100103214FF48970015518
:10309000214801782046FFF7CAFF2046FFF782FC4F
:1030A00002E02046FFF77EFC34E01B48007880B940
:1030B00002214FF4897001551748007884F81001F7
:1030C000154801782046FFF7D1FB2046FFF76AFC40
:1030D0001AE094F8100110490978884211D094F848
:1030E00010112046FFF7C2FB0B48007884F810014E
:1030F000094801782046FFF79AFF2046FFF752FC67
:1031000002E02046FFF74EFC04E029462046FFF788
:10311000FAFB00BF00BF70BDA4000020F8B5044654
:103120000D460026688801280DD101214FF48C70CE
:103130000151D4F8E405294682682046904720468C
:10314000FFF730FC3FE0688802283CD12879D0BBEB
:10315000206940680090A8880612062E22D2DFE877
:1031600006F02103090F151B009820F070001030A5
:1031700000901DE0009820F070002030009017E0D3
:10318000009820F070003030009011E0009820F09E
:103190007000403000900BE0009820F0700050303C
:1031A000009005E0009820F070001030009000BF03
:1031B00000BF05480099016001214FF48B70015553
:1031C0002046FFF7EFFBF8BDA80000201CB5044621
:1031D00069462046FFF79AFE9DF8000000F01F00A8
:1031E00020B1012807D002280FD109E06946204606
:1031F00000F016F811E06946204600F007F90CE0EF
:103200006946204600F046F807E09DF8000000F00F
:1032100080012046FDF752FE00BF00BF00201CBD0C
:1032200070B505460C46002660780A2829D2DFE8EA
:1032300000F01923281E280A0528140F21462846C5
:10324000FFF7CCFC22E021462846FFF7C2FE1DE036
:1032500021462846FFF7FAFE18E021462846FFF7E8
:1032600093FC13E021462846FFF74CFD0EE0214673
:103270002846FFF753FF09E021462846FFF701FBE8
:1032800004E021462846FFF73EFB00BF00BF304662
:1032900070BD00002DE9F04105460E460027347947
:1032A000307800F06000202808D1D5F8E4053146D8
:1032B0008268284690473846BDE8F081707800283B
:1032C00057D001282BD0032875D14FF48970405D69
:1032D000022802D003281BD107E02CB1802C03D098
:1032E00021462846FDF7EAFD17E0708830B92CB179
:1032F000802C03D021462846FDF7E0FDD5F8E405F3
:1033000031468268284690472846FFF74BFB04E089
:1033100031462846FFF7F7FA00BF00BF70E04FF4D0
:103320008970405D022802D003281BD107E02CB130
:10333000802C03D021462846FDF7C0FD17E0708899
:1033400078B95CB1802C09D021462846FDF727FDCD
:10335000D5F8E40531468268284690472846FFF7AD
:1033600021FB04E031462846FFF7CDFA00BF00BF3D
:1033700046E04FF48970405D022802D0032837D11F
:1033800007E02CB1802C03D021462846FDF796FD9E
:1033900033E004F08000802812D104F07F0000EBBD
:1033A000800105F58E7000EBC100807820B101200E
:1033B0001549086016E022E000201349086011E07A
:1033C00004F0800070B904EB840105F55D7000EB3A
:1033D000C100807818B101200B49086002E000208C
:1033E00009490860022208492846FFF7C4FA04E0A8
:1033F00031462846FFF787FA00BF00BF00E000BF54
:1034000000BF384658E700009800002070B5044619
:103410000D4600264FF48970005D032814D12879E9
:1034200001280CDCD4F8E405294682682046904740
:10343000E88840B93EB92046FFF7B4FA03E02946D0
:103440002046FFF760FA04E029462046FFF75BFAC2
:1034500000BF00BF304670BD10B504464FF4897000
:10346000015D401C01550421401E0155D4F8E815AA
:10347000C8688047002010BD70B505460C462DB9C0
:103480002246064906A0FFF765FC04E022460349F0
:1034900003A0FFF75FFC014870BD00003C22002044
:1034A00056435020436F6E6669670000704770474F
:1034B00002461220088001487047000028010020C1
:1034C000704710B1012802D100E001E000E000BF28
:1034D00000BF7047704770477047000070B50546E1
:1034E0000C462DB92246064906A0FFF733FC04E03E
:1034F0002246034903A0FFF72DFC014870BD0000E0
:103500003C22002056435020496E74657266616308
:103510006500000002460420088001487047000052
:103520004401002070B505460C462246024903A01E
:10353000FFF710FC004870BD3C22002053544D6939
:1035400063726F656C656374726F6E69637300009C
:1035500070B505460C462DB92246064906A0FFF770
:10356000F9FB04E0224603490CA0FFF7F3FB0148F6
:1035700070BD00003C22002053544D333220566968
:10358000727475616C20436F6D506F727420696E38
:10359000204853206D6F64650000000053544D3384
:1035A00032205669727475616C20436F6D506F7272
:1035B0007420696E204653204D6F64650000000042
:1035C00070B505460C461A202080FEF779FA0148AE
:1035D00070BD0000480100200246432008800148D9
:1035E0007047000050000020704710B504460020CE
:1035F000FEF758FD01210803FEF73CFC10BD10B595
:1036000004464FF47A7104FB01F000F001F810BD9C
:1036100010B50022C0EB0013DB000724B3FBF4F16C
:1036200000BF531C1A468B4200D910BDF9E73EB5C6
:10363000044600250020029001900090207A012885
:103640003DD1E068806B0190019820F480300190BA
:10365000607A28B1019820F4801000F58010019064
:103660000198E168886300200290E068C0680290D9
:10367000029820F040000290029820F4800002900E
:10368000029820F400300290029820F4002002906A
:103690000298E168C860204600F05EF9E0780128F1
:1036A0003DD1009820F01E000A300090009820F0D4
:1036B0002000203000900098E16888602FE0E068EA
:1036C000C0680290029820F04000403002900298BA
:1036D000E168C860204600F03FF9002001900198A1
:1036E00020F4803000F580300190019820F4802093
:1036F00000F580200190019820F4002000F50020C2
:103700000190607A28B1019820F4801000F58010B3
:1037100001900198E16888631420FFF770FFE0785A
:1037200001280FD1E06880680090009820F01E000A
:103730000A300090009820F020002030009000987F
:10374000E168886028463EBD70B588B00446002612
:103750000020079006900590049003900021D4F873
:103760000C010160206900680690069820F4C050A2
:103770000690069920690160E07A01283FD1032173
:10378000204600F011FD8020E1684862059880B273
:1037900000F50010059005986FF30F00803005903C
:1037A0000598E1688862059800EB1041049861F380
:1037B0000F000490049880B200F500000490049873
:1037C000E168C1F80401049800EB104161F30F00B7
:1037D0000490049880B200F5001004900499E06809
:1037E000C0F80811049800EB104161F30F00049039
:1037F000049880B204900499E068C0F80C1110217C
:10380000204600F085FC204600F05CFC0021206989
:10381000016120694161491E20698161002120699F
:10382000C16100252CE004F1180050F82500006863
:1038300007900798C00F70B100200790079820F0FC
:10384000804000F180400790079820F0006000F170
:103850000060079001E00020079004F1180050F884
:10386000250007990160002104F1180050F8250097
:103870000161FF2104F1180050F8250081606D1CE2
:103880006078A842CFD800252CE004F1540050F80D
:103890002500006801900198C00F70B100200190D0
:1038A000019820F0804000F180400190019820F0C4
:1038B000006000F10060019001E00020019004F13F
:1038C000540050F8250001990160002104F15400D2
:1038D00050F825000161FF2104F1540050F8250043
:1038E00081606D1C6078A842CFD8002003900398B7
:1038F00020F4807000F580700390206900690399BE
:103900008843084321690861E07801281DD100201F
:103910000290029820F00100401C0290029820F0D2
:103920000200801C02904021029861F38A000290FC
:10393000029820F4803000F580300290029861F304
:1039400059400290029920690163204600F051FB22
:10395000304608B070BD0000F8B5044600260025CA
:103960000020009000BF0320FFF752FEE0680069CE
:103970000090681C05461349884201D90020F8BD13
:103980000098C00F0028EED00025009820F001001C
:10399000401C00900098E168086100BFE068006981
:1039A0000090681C05460749884200D904E0009849
:1039B00000F001000028F1D100BF0320FFF728FE2E
:1039C0003046DCE7400D030008B501460020002228
:1039D0000092009A22F00102521C0092CA6892687A
:1039E000009B9A43CB689A6008BD0EB50146002043
:1039F000002200920A69926802928A691268019212
:103A0000029AC2F3410232B1012A05D0022A09D03A
:103A1000032A0DD101E000BF00BF019A6FF30A0233
:103A200001920AE0019A6FF30A02D21C019204E0AB
:103A3000019A6FF30A02019200BF00BF019B8A69DD
:103A40001360009A22F4807202F5807200920A6973
:103A50005268009B9A431A430B695A600EBDFCB52D
:103A60000246002000240025019500954D78012D87
:103A700052D193691D6801951D6900954D6955B92D
:103A8000009D25F07F050095009D25F4002505F596
:103A90000025009516E08E684D69B54207D98D68FE
:103AA0004D610E7A009D66F30605009504E00E7DDB
:103AB000009D66F306050095009D25F4002505F59B
:103AC00000250095009D1D61D578012D06D10F7848
:103AD00002F1180555F827500E696E61019D25F019
:103AE000806505F180650195019D25F0004505F192
:103AF00000450195019D1D60D578002D59D14D6976
:103B0000002D56D00E780125B5402C4315696D6BFC
:103B10002543166975634CE00E7802F1540555F89B
:103B200026502D6801950E7802F1540555F826505F
:103B30002D6900954D695DB90E7A009D66F3060505
:103B40000095009D25F4002505F5002500950CE065
:103B50008D684D610E7A009D66F306050095009D07
:103B600025F4002505F5002500950F7802F1540590
:103B700055F82750009E2E61D578012D06D10F787B
:103B800002F1540555F827500E696E61019D25F02C
:103B9000806505F180650195019D25F0004505F1E1
:103BA000004501950F7802F1540555F82750019E04
:103BB0002E60FCBD0CB500210191019921F0C0419E
:103BC00001F1C0410191019921F4002101F5002189
:103BD0000191019921F07F0118310191019A416D04
:103BE0000A61C178012915D10021009100F2CC5160
:103BF000426D5161416D09680091009921F00041C9
:103C000001F1004100914FF080210091009A416D37
:103C10000A6000BF0CBD3CB50246002000240194A0
:103C200000944C78012C0CD10D7802F1180454F852
:103C300025300D780124AC40009D64F30F050095FC
:103C40000BE00D7802F1540454F825300D7801246E
:103C5000AC40009D64F31F4500951C680194019CD5
:103C6000C4F3C034E4B90D89019C65F30A040194DE
:103C7000CD78019C65F3934401948D79019C65F3A3
:103C800099540194019C24F0805404F180540194CF
:103C9000019C24F4004404F500440194019C1C6040
:103CA0001469E469009D2C431569EC613CBD38B58D
:103CB00003460020002400944C78012C05D10D7897
:103CC00003F1180454F8252004E00D7803F154049E
:103CD00054F8252014680094009C24F400140094E7
:103CE000CC78032C02D0CC78022C05D1009C24F097
:103CF000805404F180540094009C146038BD3CB59D
:103D0000024600200024019400944C78012C0CD130
:103D10000D7802F1180454F825300D780124AC40D8
:103D2000009D64F30F0500950BE00D7802F154043B
:103D300054F825300D780124AC40009D64F31F45F4
:103D40000095019C24F400440194019C1C601469BA
:103D5000E469009DAC431569EC613CBD38B5034690
:103D60000A460020002400945478012C18D11578BC
:103D700003F1180454F825100C680094009CE40F1B
:103D80002CB1009C24F0804404F180440094009CF9
:103D900024F4001404F500140094009C0C600EE060
:103DA000157803F1540454F825100C680094009C15
:103DB00024F4001404F500140094009C0C6038BD39
:103DC000FEB505460C460026002700200290019013
:103DD000607801287ED1217805F1180050F8210083
:103DE00000680290217805F1180050F82100006960
:103DF0000190606948B901986FF3120001900121A8
:103E0000019861F3DC40019017E06169019861F36A
:103E1000120001906069401EA1680844B0FBF1F1F6
:103E2000019861F3DC400190E078012805D1019808
:103E300020F0C04000F100500190227805F11800F8
:103E400050F8220001990161E878012807D1227811
:103E500005F1180050F82200216941610DE0E07879
:103E600001280AD0606940B12178012000FA01F7E9
:103E70002869406B384329694863E078012813D1E9
:103E80002869806800900098C0F3002030B902983B
:103E900020F0005000F10050029005E0029820F060
:103EA000805000F180500290029820F0806000F174
:103EB00080600290029820F0004000F100400290E3
:103EC000227805F1180050F8220002990160E0788C
:103ED000012800E008E070D1A08A83B22278284649
:103EE000E16800F03EFA68E0217805F1540050F8EE
:103EF000210000680290217805F1540050F821005B
:103F000000690190606950B9A168019861F31200DD
:103F100001900121019861F3DC40019017E0A06855
:103F2000401E61690844A168B0FBF1F1019861F39A
:103F3000DC4001900198C0F3C940A1684843019951
:103F400060F3120101910198C0F3120060612278C0
:103F500005F1540050F8220001990161E878012828
:103F600006D1227805F1540050F822002169416100
:103F7000E07801280ED1607930B1029820F000502D
:103F800000F10050029005E0029820F0805000F10E
:103F900080500290029820F0806000F180600290D2
:103FA000029820F0004000F100400290227805F1D4
:103FB000540050F82200029901603046FEBD08B559
:103FC00000210091491EC26851606FF08041C268B3
:103FD0005161009921F0004101F1004100910099E7
:103FE00021F4006101F5006100910099C2689161BE
:103FF00008BD38B50446002500200090E1688861BE
:104000006FF08040E16848612046FFF7D8FFE07814
:1040100020B9009820F0100010300090009820F493
:10402000006000F500600090009820F4805000F5DA
:1040300080500090009820F4005000F5005000904F
:10404000009820F4802000F580200090009820F453
:10405000002000F500200090009820F008000830B3
:104060000090009820F4801000F5801000900098D7
:1040700020F4001000F500100090009820F080401F
:1040800000F180400090009820F00400001D009096
:10409000E0688069009988430843E16888612846A0
:1040A00038BD08B50146002000220092009A22F097
:1040B0000102521C0092CA689268009B1A43CB68A6
:1040C0009A6008BDF8B5044600250026002000903F
:1040D000009820F01000103000900098E16808610E
:1040E00000BFE06800690090701C064607498842DE
:1040F00000D904E00098C0F300100028F1D100BFFF
:104100000320FFF785FA2846F8BD0000400D0300A4
:10411000F8B504460D4600260027002000900098C0
:1041200020F0200020300090009865F38A10009065
:104130000098E168086100BFE06800690090781CA1
:1041400007460749884200D904E00098C0F34010B0
:104150000028F1D100BF0320FFF75AFA3046F8BD1E
:10416000400D030008B5014600200A6992680092DC
:10417000009AC2F3410232B1012A06D0022A07D0C6
:10418000032A07D102E0032006E000BF022003E07B
:10419000012001E0022000BF00BF08BD0146C86841
:1041A000406900F00100704708B50269126800928A
:1041B000009A61F301020092009B0269136008BD3E
:1041C00000B502461046FFF7E9FF012801D00120A3
:1041D00000BD0020FCE701460020CA685069CA689B
:1041E0009269104070470146086982690869C06990
:1041F000024090B270470146086982690869C06947
:104200000240100C7047024602F1540353F821306B
:10421000986813695B6918407047F0B5034600243D
:10422000D01CC71700EB9777BD10D3F8D06000BF44
:1042300003E030680860091D641CAC42F9D30846ED
:10424000F0BD000070B502460C460023002000259A
:10425000D5700125957040259580012C0CD14FF02B
:10426000A0430125D57208251570042555709D15AC
:10427000D580022515720AE04CB9254B0025D57270
:104280000C251570062555704FF4A065D580D360B8
:1042900003F500651561002110E003F5106505EBDD
:1042A000411602F1180545F8216003F5306505EB6C
:1042B000411602F1540545F82160491C55788D429C
:1042C000EBD803F5806555614035C2F8CC5000212C
:1042D00008E003F5A06505EB411602F1900545F8ED
:1042E0002160491C15788D42F3D8002108E003F5C0
:1042F000805505EB013602F1D00545F82160491CD7
:1043000015788D42F3D803F56065C2F80C5170BD85
:1043100000000440F8B504460D460026E068C06879
:104320000090009820F000500090009820F080400D
:104330000090012D06D1009820F0005000F10050AF
:10434000009006E02DB9009820F0804000F18040F8
:1043500000900098E168C8603220FFF750F93046BD
:10436000F8BD2DE9F04104460026E078B0B90027F9
:104370000020DD1C4FEAE57805EB98784FEAA807A6
:1043800004F1D00555F822C000BF04E00D68CCF858
:104390000050091D401CB842F8D300BF3046BDE8AC
:1043A000F08100BFFEE710B500F054F810BD00002A
:1043B00010B50346042B15D007DC7BB1012B0ED0C2
:1043C000022B0DD0032B2ED10BE0202B0BD0212B59
:1043D0000AD0222B25D0232B25D123E024E023E073
:1043E00022E021E020E01FE04FF46120104C20602B
:1043F00020460078087020460088000A4870204651
:104400000068000C887020460068000EC8702046C6
:10441000007908712046407948712046807988717A
:1044200002E001E000E000BF00BF002010BD00007E
:10443000F000002070B505460E46002404E0295D1A
:104440000348FDF708FA641CB442F8D3002070BD9D
:104450004C23002002484068024908600020704751
:104460003C2300200C0000200020704708B54FF4CA
:10447000E1301249086000208880C8804FF4C06095
:104480000881002088810C2048810D48FEF786F9BC
:10449000012240F225510A48FEF75FF925208DF8E8
:1044A000000000208DF801008DF8020001208DF839
:1044B00003006846FDF792FC002008BD2C22002076
:1044C00000380140034909684FF08042928C114442
:1044D00001607047640100200EB54FF08040FDF789
:1044E0009FFF01210846FDF7D5FC4CF24F30ADF897
:1044F000040040F2CF20ADF800000020ADF8060027
:10450000ADF802008DF8080069464FF08040FEF7D4
:1045100095F801218807FDF771FF012211469007E8
:10452000FEF783F801218807FDF76EFF0EBD00003E
:1045300008B5FDF755FBFDF786F90A480A4B0B4A0B
:10454000012100900A48FEF72EFCFDF78DFE07E0E2
:1045500008490948FDF7ACFD10B10648FCF7A7FB78
:10456000F6E7000070010020240000200C0100206C
:104570005C230020503100204C2300202DE9F04125
:1045800006460F4625480078012838D1244800689F
:1045900018B900202149087031E0214800684028FE
:1045A0000ED92048008885B240241E48006840305B
:1045B0001C4908601A48006840381949086014E02E
:1045C0001848008885B21648008884B215480068EB
:1045D000134909680844134908600020104908601D
:1045E000402C02D102200D4908700F484219234681
:1045F00081213046FCF786FC0020BDE8F0810748A9
:104600000078022808D100231A4681213046FCF7A1
:1046100079FC0020014908700020EEE71800002016
:1046200014000020100000202B02002070B504466A
:104630000D4605EB850104F55D7000EBC100008BB4
:1046400086B2064831460269054890474023044A2D
:1046500001212046FCF7FBFB002070BDF800002084
:10466000EB01002070B504460D4681212046FCF781
:1046700071FB01212046FCF76DFB82212046FCF7EF
:1046800069FB024948688047002070BDF80000209F
:1046900010B5044608480068FF280AD00748836818
:1046A000074808490268044800689847FF20024903
:1046B0000860002010BD00001C000020F800002051
:1046C000200000200400002070B505460E4602239D
:1046D000402281212846FCF786FB0223402201214B
:1046E0002846FCF780FB0323082282212846FCF79A
:1046F0007AFB084C0220207100206071064908688E
:1047000080474023054A01212846FCF7A0FB0020F2
:1047100070BD000028010020F8000020EB010020FF
:1047200010B50446074801680068401C054A10603F
:10473000052905D10020114608602046FDF7DAF969
:10474000002010BD9400002070B505460C4620786E
:1047500000F0600068B3202825D1E088D8B1207827
:1047600000F0800058B1E288607824498B682449C1
:104770009847E28822492846FEF7FDF811E0607864
:1047800020490860E08820490860E2881C492846E2
:10479000FEF7C8F805E06078184900228B681146DA
:1047A0009847002070BD21462846FEF7ACF802204D
:1047B000F8E76078062804D00A2808D00B2818D11A
:1047C0000BE021462846FEF79EF80220EAE7012288
:1047D0000E492846FEF7CFF80BE0A078012803DA4F
:1047E000A0780A49086003E021462846FEF78BF8C6
:1047F00000BF00BF00BF00BF0020D3E7F8000020CB
:10480000040000201C0000202000002000000020E8
:104810003048000800000020A80100008C010008BA
:1048200030490008A8010020A0360000E801000877
:10483000011C72FF13C9461B08650413494742084F
:104840001A910C137D451B082D085A21144113D9C8
:1048500035150809024313020125C03209041B0162
:10486000020B13052416100105240110090104246C
:1048700002020524061701070582030815FF090433
:104880000133020A2E0705010240072A8107011998
:1048900013B12A1408C9291408CD311408B92F1BE3
:1048A0000855041359341B08870813E92D1B08FB0E
:1048B000041B4D2BAC190422AC12201BA24A8561AB
:1048C0001009010203040607080933C20112081384
:1048D0006D441B0869041BB1434819082A350C199B
:1048E0004C1A15C41A25041A51041AC1041A791451
:1048F0001ADD041A12AB311E4083044057E14E0208
:1049000003010A061212010726040309041A031AF6
:10491000D94C1AC3041AAD041AD7041AD5041AAF15
:10492000041AC104C129B069B405000204060800D4
:04000005080001519D
:00000001FF
